:100000000C9462020C949A020C949A020C949A0238
:100010000C949A020C949A020C949A020C949A02F0
:100020000C949A020C949A020C946E1D0C94421E2D
:100030000C9458180C949A020C949A020C949A02FC
:100040000C949A020C949A020C949A020C949A02C0
:100050000C949A020C94DE180C949A020C949A0256
:100060000C949A020C949A020C949A020C949A02A0
:100070000C949A020C949A020C949A020C949A0290
:100080000C949A020C949A020C949A020C949A0280
:100090000C949A020C949A020C949A020C949A0270
:1000A0000C949A020C949A020C949A022B0014005D
:1000B0001A000800150017001C0018000C001200A0
:1000C00013002A00290004001600070009000A0096
:1000D0000B000D000E000F00330034002F621D00D6
:1000E0001B00060019000500110010003600370043
:1000F000380030720651E000E200E30028422C6133
:100100002C6128435000510052004F0001001400A0
:100110001A00090013000A000D000F0018001C004F
:10012000330001000100040015001600170007004D
:100130000B00110008000C001200010001001D005E
:100140001B000600190005000E00100036003700E5
:100150003800010001000100010001000100010060
:100160000100010001000100010001000100010087
:10017000A800AA00A90001000100010001002D0251
:100180002E02010035021E021F022002210222025D
:100190002302240225022602270231020100010067
:1001A000AE00AC00AB000100010001000100010045
:1001B00001000100220A010001000100010001000C
:1001C000010001005000510052004F0001000100E9
:1001D00001000100010001000100010001002D00EB
:1001E0002E00010035001E001F002000210022000B
:1001F0002300240025002600270031000100010013
:1002000001000100010001000100010001000100E6
:10021000010001000553010001000100010001007F
:100220000100010001000100010001003A003B0053
:100230003C003D003E003F004000410042004300C2
:10024000440045004C0001000100010001000100D4
:100250000100010001000100010001000100010096
:1002600001000152010000520100010001000100E3
:100270000100010001000100010001000100010076
:100280000100010001000100010001000100010066
:100290000100010001000100010001000100010056
:1002A0000100010001000100010001000100010046
:1002B0000100010001000100010001000100010036
:1002C0000100010001000100010001000100010026
:1002D00001002800010001000100010001002C00C4
:1002E0002C000100010001000100010001000100DB
:1002F0000100F900FA0001000100F100ED00F20038
:1003000001000100010001000100F100F200010004
:100310000100EF00EE00F00001000100010001000B
:1003200001000100010001000100010001000100C5
:1003300001000100010001000100010001000100B5
:10034000010001000100010001000100140354003C
:100350006500630068006E0069006B002D004F00AF
:100360000000180342006F00610072006400730017
:100370006F0075007200630065000000040309044B
:1003800009023B00020100A0FA0904000001030178
:100390000100092111010001224000070581030825
:1003A00000010904010001030000000921110100FE
:1003B0000122B6000705820320000112010002009D
:1003C00000000873427900010001020001050109E3
:1003D00002A10185020901A10005091901290815D9
:1003E00000250195087501810205010930093115C3
:1003F00081257F95027508810609381581257F952D
:100400000175088106050C0A38021581257F9501C2
:1004100075088106C0C005010980A1018503190185
:100420002AB700150126B700950175108100C00597
:100430000C0901A101850419012AA002150126A0B9
:1004400002950175108100C005010906A10185060C
:10045000050719E029E715002501950875018102B6
:100460000507190029EF1500250195F07501810296
:100470000508190129059505750191029501750376
:100480009101C005010906A101050719E029E71539
:100490000025019508750181029501750881010506
:1004A00007190029FF150026FF0095067508810031
:1004B0000508190129059505750191029501750336
:1004C0009101C00011241FBECFEFDAE0DEBFCDBF27
:1004D00004B603FE18C08091A7029091A802A091D3
:1004E000A902B091AA028730904BA740B04B59F4B3
:1004F0001092A7021092A8021092A9021092AA02CA
:10050000E0E0F8E3099511E0A0E0B1E0E2E1F1E418
:1005100002C005900D92AC38B107D9F722E0ACE8E3
:10052000B1E001C01D92A73AB207E1F70E9449125B
:100530000C9471200C9400000F9304E023E042E03F
:100540000E94F6020F91089581E0089581E00895D8
:100550000C94A60208950C94AA021F93CF93DF93E4
:1005600000D000D00F92CDB7DEB749835A836B839A
:1005700030918F0189819A8131111DC06623B9F0B4
:100580002223A9F00E94E908182F682F89819A81F7
:100590000E94950869817A81812F0F900F900F90AA
:1005A0000F900F90DF91CF911F910C94B90F0E9483
:1005B000C108182FEFCF0E94E90869817A81EDCF39
:1005C000FC01262F408151816281738184810C94CA
:1005D000AD0281E00895CF93DF93EC0160E00E94CB
:1005E000E002BE01DF91CF910C94AB028F929F92FB
:1005F000AF92BF92CF92DF92EF92FF920F931F9331
:100600006B017C0181E090E0A0E0B0E04C015D0175
:1006100004C0880C991CAA1CBB1C4A95D2F7B501D2
:10062000A4014C015D0104C0880C991CAA1CBB1CD0
:100630002A95D2F7482959296A297B2904C0880FAD
:10064000991FAA1FBB1F0A95D2F78A019B010C2193
:100650001D212E213F21041715072607370789F48E
:100660008C299D29AE29BF29BC01CD011F910F9175
:10067000FF90EF90DF90CF90BF90AF909F908F90C2
:10068000089580959095A095B0958C219D21AE21DF
:10069000BF21EACF0C94EA100C94ED1008950E944B
:1006A00044070E944E032FEF84E39CE021508040DA
:1006B0009040E1F700C000000C9402190F931F93C3
:1006C000CF93DF938C0161E00E94E002EC01B8015E
:1006D0000E94A8028823A9F1B801CE010E94A816A1
:1006E000882379F1B801CE010E94D514882349F1FD
:1006F000B801CE010E941216882319F1F8018281F7
:10070000882361F0CB35FDE5DF0721F170F4C115D9
:10071000ECE5DE07A1F0CF3DDC45C9F0C801DF9173
:10072000CF911F910F910C94A402CC358DE5D80781
:10073000A1F0CD35DD4591F70E941E0DEFCF0E944F
:100740004F0380E0DF91CF911F910F9108950E9498
:10075000D80DF7CF0E94270DE1CF0E942A0DDECFE2
:100760000E943C180C94C8030E94CB030C944018C0
:1007700008950C94B80381E008950C94BB03089588
:10078000CF93C82F0E94B9038C2FCF910C94BD0337
:1007900080E00C94C0030E9404170C94C0030E94D4
:1007A000041790918E01981721F080938E010C947C
:1007B000C0030895CF93DF93CDB7DEB72B970FB665
:1007C000F894DEBF0FBECDBF4F83588769877A8705
:1007D0008B8761110E946C0C1E821D8285E0FE01D8
:1007E0003796DE01119601900D928A95E1F78C8182
:1007F0009D81892B89F449815A816B817C818D810E
:100800009E810E948D0B2B960FB6F894DEBF0FBE13
:10081000CDBFDF91CF91089589819A8189238F3F40
:1008200051F3CE0101960E94E9028111E4CFEBCF92
:10083000FC01808191810C942B09CF93C82F8823D0
:1008400009F447C08CEF8C0F813AA0F46C2F809193
:100850000201909103010E947817882329F08C2FC0
:100860000E942E0C0E948C0C8C2F0E94270CCF9182
:100870000C948C0C80E28C0F883048F4C77081E0B7
:1008800001C0880FCA95EAF70E944F0CF0CFEBE544
:10089000EC0FE33040F4F0E0E95BFE4F808190E044
:1008A000CF910C943817E8E5EC0FE73150F4F0E005
:1008B000EE0FFF1FE75EFE4F80819181CF910C9478
:1008C0004E17CD3E30F08C2F0E94CD12CF910C945C
:1008D000A013CF910895882361F19CEF980F913A6E
:1008E00020F40E942E0C0C948C0C90E2980F9830FF
:1008F00050F4877091E001C0990F8A95EAF7892F2B
:100900000E94550CF0CF9BE5980F933020F490E0B7
:1009100080E00C94381798E5980F973120F490E018
:1009200080E00C944E178D3E20F00E9427130C940B
:10093000A01308951F93CF93DF93182FEB010E940C
:100940001D04209731F4812FDF91CF911F910C94DA
:100950006B048FE99FE00197F1F700C00000219739
:10096000F0CF70E060E0893311F460E570E00C9442
:100970009A04882321F00E944F0C0C948C0C08954B
:10098000882321F00E94550C0C948C0C0895BF9282
:10099000CF92DF92EF92FF920F931F93CF93DF934B
:1009A0006C01D62FC72FFC011281F580F2949FE0D5
:1009B000F9220E94450CE82E8823B9F0E12E11237C
:1009C000A1F08C2F807F803421F080E28D0F883061
:1009D000D0F08091850282FD16C082E00E94ED0C6D
:1009E0000E94450C91E0E82EE926BC2EB2948FE0DF
:1009F000B822FBE0FB1508F468C0EB2DF0E0ED58E1
:100A0000FF4D0C940820E12CF0CF0C2F0F70C07F0D
:100A100011F00295007F112399F0002359F080E234
:100A20008D0F883010F0D11107C0802F0E944F0C1D
:100A30000E948C0C8D2F41C0802F0E945F0CF8CF3C
:100A40008D2F0E946B04002309F43FC080E28D0FBC
:100A5000883010F0D11104C0802F0E94550C03C0C3
:100A6000802F0E94650C0E948C0C2FC00C2F0F70E1
:100A7000C07FC03211F00295007FDD2381F0D130BC
:100A800009F469C0112309F473C0FF2009F469C097
:100A9000F601858180FFCECF8F70858362C0809103
:100AA000850282FF38C0112359F0002329F0802FDE
:100AB0000E944F0C0E948C0C80E00E941D0405C017
:100AC00080E00E946B040111C7CFEB2DE850FF0BB3
:100AD000349720F40E9404170E94C003EE2009F40A
:100AE00072C10E94410C80FD6EC1F60112820E940B
:100AF0003B0C0E94F907C6010E9404070E943B0CB0
:100B0000DF91CF911F910F91FF90EF90DF90CF90E9
:100B1000BF900C941A08112389F0F11006C00E94AE
:100B20006F0C802B0E94B904D0CF21E0F212F7CFD6
:100B30000E946F0C802B0E94750CC7CFF11006C06D
:100B40000E94820C802F0E94C004BFCF31E0F316B8
:100B500009F4BBCFF5CF112331F085E08F1508F4F0
:100B6000B4CF802FDFCF94E09F1508F4AECFEACF4B
:100B7000FF2041F3D93349F4FFEF27EE33E0F15082
:100B800020403040E1F700C000008D2F0E946B0430
:100B90009CCF8C2F86958695837069F0813009F003
:100BA00094CF8D2F9C2F9370111102C090E080E0A4
:100BB0000E944E178ACF8D2F9C2F9370111102C067
:100BC00090E080E00E94381780CF8D2F112329F00C
:100BD0000E94CD120E94A01378CF0E942713FACF53
:100BE0008C2F837009F041C011116FCF4D2F4295AA
:100BF00046954770440F440F0D2F0F7010E030E002
:100C000020E0042E04C0000F111F221F331F0A947E
:100C1000D2F760E070E0CB01D4FF0FC06FE070E06E
:100C200080E090E004C0660F771F881F991F4A95E7
:100C3000D2F76095709580959095C695C695C370CE
:100C4000602B712B822B932BC23049F058F4C130AA
:100C500019F00E94AD0739CF0E949B0736CF0E9442
:100C6000BF0733CF0E94990730CF8695112311F02B
:100C70008C2F8170882309F428CF4D2F42954695FB
:100C80004770440F440F0D2F0F7010E030E020E04C
:100C9000042E04C0000F111F221F331F0A94D2F725
:100CA00060E070E0CB01D4FF0FC06FE070E080E047
:100CB00090E004C0660F771F881F991F4A95D2F7EE
:100CC0006095709580959095C695C695C370602B7C
:100CD000712B822B932BC23049F058F4C13019F09C
:100CE0000E947008F2CE0E945E08EFCE0E94820839
:100CF000ECCE0E94D307E9CECF70112329F08C2FC0
:100D00000E94F9078D2F0ECF8D2F0E94C0048C2FCB
:100D10000E941A08DACED23F51F160F4D03FB9F008
:100D2000D13F81F0112309F449C0F11083CE8C2FFB
:100D30008F7121C0D33F11F1D43FA1F7809185027B
:100D400082FF26C08C2F8F71112311F314C0112341
:100D500049F084E08F1508F4B8CE8C2F8F710E9473
:100D60003D08B3CE95E09F1508F4AFCEF6CF8C2F9B
:100D70008F711111CDCF0E94F907A7CE112329F051
:100D80008C2F8F710E94E407A0CE0E94DF079DCEBA
:100D9000112349F0CF718C2F0E94F90763E08C2F4B
:100DA0000E94D20C92CE81E00E94ED0CE1E0EF15A2
:100DB00008F08BCE82E00E94ED0C87CEF110DACEE7
:100DC0008C2F8F71A5CFDF91CF911F910F91FF9045
:100DD000EF90DF90CF90BF9008950F931F93CF9324
:100DE000DF93EC01688179818A810E9435098C0149
:100DF0000E9494080E949807B801CE01DF91CF911C
:100E00001F910F910C94C704CF93DF93EC018B815A
:100E10009C81892B29F08881998189238F3F59F4FE
:100E2000DF91CF910895CE010E94ED06CE01DF91B2
:100E3000CF910C94EB02CE010E945E038111F3CF9F
:100E40000E94450C882361F38A81882349F38091AD
:100E5000850282FDE5CF82E0DF91CF910C94ED0C0D
:100E600090E080E00E94381790E080E00E944E17EA
:100E70000E946C0C0E948C0C0E94C7140C94A0134E
:100E80000E94350C0C9430070E945C0C0C944007B7
:100E900092959F70963091F058F4925F9F709230C7
:100EA00058F4803F19F030F4883E30F481E0089522
:100EB0009A5FF4CF843FD1F380E00895883EB0F389
:100EC000813FD1F7F3CFFC01808191810E942B09F2
:100ED0000C944807CF93DF9300D000D00F92CDB78A
:100EE000DEB70F900F900F900F900F90DF91CF9182
:100EF0000895CF93DF9300D000D000D0CDB7DEB7F8
:100F000026960FB6F894DEBF0FBECDBFDF91CF910E
:100F1000089508950C9489070E948A076093B2018E
:100F20007093B3018093B4019093B5010C94300792
:100F300008950C948C070F931F930091B2011091A8
:100F4000B3012091B4013091B501602B712B822B3C
:100F5000932B1F910F910C948C070F931F9300916B
:100F6000B2011091B3012091B4013091B501602319
:100F70007123822393231F910F910C948C070F935D
:100F80001F930091B2011091B3012091B4013091EF
:100F9000B50160277127822793271F910F910C9429
:100FA0008C070C949C020E94D1076093AE01709351
:100FB000AF018093B0019093B1010C94300760E0D1
:100FC00070E0CB010C94D3070F931F9341E050E0E6
:100FD00060E070E08A019B0104C0000F111F221F16
:100FE000331F8A95D2F7C901B8011F910F910C9454
:100FF000D3070F931F9341E050E060E070E004C01E
:10100000440F551F661F771F8A95D2F78091AE0156
:101010009091AF01A091B001B091B1018A019B0103
:10102000082B192B2A2B3B2BC901B8011F910F91BB
:101030000C94D3070F931F9341E050E060E070E001
:1010400004C0440F551F661F771F8A95D2F7CB0146
:10105000BA0160957095809590950091AE011091C0
:10106000AF012091B0013091B1016023712382233F
:1010700093231F910F910C94D3070F931F9341E07B
:1010800050E060E070E004C0440F551F661F771FFA
:101090008A95D2F78091AE019091AF01A091B001F5
:1010A000B091B1018A019B01082719272A273B2704
:1010B000C901B8011F910F910C94D3070F931F938F
:1010C0000091AE011091AF012091B0013091B101BA
:1010D000602B712B822B932B1F910F910C94D307B4
:1010E0000F931F930091AE011091AF012091B001B9
:1010F0003091B10160237123822393231F910F91BB
:101100000C94D3070F931F930091AE011091AF0180
:101110002091B0013091B101602771278227932778
:101120001F910F910C94D30708952CE0929F800D8E
:101130001124982F977041E001C0440F9A95EAF767
:1011400086958695869595E0899FF0011124E05754
:10115000FE4F90E080E070E05191DF0111979B011C
:10116000082E02C0369527950A94E2F72170219542
:101170002527242325272C9301968530910561F797
:1011800008952CE0929F800D1124982F97708695DA
:101190008695869525E0829FF0011124E057FE4F49
:1011A00050E040E080E0219130E0092E02C0369509
:1011B00027950A94E2F721703327042E01C0220FED
:1011C0000A94EAF7822B4F5F5F4F4530510559F77C
:1011D0000895BF92CF92DF92EF92FF920F931F93E9
:1011E000CF93DF938C01C090AE01D090AF01E0901F
:1011F000B001F090B1018091B2019091B301A09142
:10120000B401B091B501C82AD92AEA2AFB2ACFE154
:10121000D0E0BC2ED701C6010C2E04C0B695A79510
:10122000979587950A94D2F780FD0EC0219788F78D
:10123000B12C8B2DDF91CF911F910F91FF90EF90EB
:10124000DF90CF90BF900895B8018C2F0E94CD0FF2
:10125000019761F3EECFCF93DF93EC010E94E90891
:10126000BE01DF91CF910C94CD0F1F93CF93DF93ED
:10127000EB0190918F01992331F0CB01DF91CF9158
:101280001F910C942B09882379F0CB010E94E90867
:10129000182F682FCE010E949508BE01812FDF9183
:1012A000CF911F910C94CD0FCB010E94C108182F34
:1012B000F4CF1F93CF93DF93C091B60116E08091D6
:1012C000B7018C1304C0DF91CF911F910895D0E036
:1012D0001C9FF0011D9FF00D1124E854FE4F40812A
:1012E000518162817381848195810E947907219661
:1012F000C770E5CF4091E8015091E9016091EA01A2
:101300007091EB018091EC019091ED010C947907C3
:10131000FF920F931F93CF93DF938091ED01807F16
:10132000D1F48091EA018823B1F08091B601109147
:10133000B7016091E8017091E901A091EB01B091D2
:10134000EC01062F0723C0910001D091010196E026
:10135000F92E181306C0DF91CF911F910F91FF90C6
:10136000089590E0109711F00F3F19F401968770DF
:10137000F0CFF89E9001F99E300D1124F901E85448
:10138000FE4F41814713F2CF40814613EFCF428198
:101390004111ECCF438154814A1B5B0B4C175D0715
:1013A00028F78091ED018F7080618093ED01F90144
:1013B000E354FE4F80818F708061808388EE91E0DE
:1013C0000E940407DF91CF911F910F91FF900C9421
:1013D0005909AF92BF92CF92DF92EF92FF920F9393
:1013E0001F93CF93DF93CDB7DEB761970FB6F89415
:1013F000DEBF0FBECDBF8C0185E0F801DE011D967A
:1014000001900D928A95E1F7F801E28088EEC82EEE
:1014100081E0D82E6091EB017091EC0161157105AE
:1014200009F45FC19091E8012091E901892F82239D
:101430008F3F09F456C140815181A380B480F09060
:10144000EA01F501E61BF70BBF01E0910001F09105
:101450000101FF2009F4F6C08091ED01382F307FA3
:101460006E177F0708F0AFC0311179C0FE2C25132D
:1014700023C0941321C0E1101FC08F70806180933E
:10148000ED010E947A09C6010E9404078091ED01D6
:10149000F80185838F2D61960FB6F894DEBF0FBEDD
:1014A000CDBFDF91CF911F910F91FF90EF90DF9013
:1014B000CF90BF90AF900895AB2829F0842F85235B
:1014C0008F3F09F027C180E0F82FF170DF2E80FFF9
:1014D0003CC08091B6012091B70136E0821315C05F
:1014E0004D875E878D859E850E942B09292F229529
:1014F0002F702230F0F0243018F59F70F1F0F801D1
:101500009581907FD1F4D12C1EC090E0389FF001DE
:10151000399FF00D1124E854FE4F6181651306C018
:101520006081641303C062816E110FC001968770E1
:10153000D5CF9F7011F0882331F3805E883018F387
:10154000C8010E940407FD2CA5CFEE2009F4A2CF0C
:101550008091ED0181608093ED01F12C9BCF2513EB
:1015600006C0941304C0F801EE2009F487C0C80136
:101570000E946307882319F1EE2009F18091ED01A3
:10158000803270F02091E8013091E90138872F8393
:101590001986BB86AA868C87CE0107960E9404070F
:1015A00086E0F801A8EEB1E001900D928A95E1F78E
:1015B0000E9488090E947A09FF24F3946BCFC80126
:1015C0000E940407F9CF311113C07A2DB98AA88A75
:1015D0006E2D89890E946A0788EE91E00E940407B7
:1015E00086E0F60111928A95E9F70E947A09B5CF53
:1015F00025130FC094130DC0E1100BC0F8018583B3
:10160000C8010E94040786E0F60111928A95E9F765
:1016100041CFC8010E946307882389F2EE2079F246
:101620008091ED01803208F4BBCF2091E801309128
:10163000E9013A8329831B82BD82AC828E83CE016D
:101640000196ACCF6E177F0708F03EC0FE2CEE204F
:1016500009F4B5CF25132AC0941328C08091ED0159
:1016600080FD1BC0982F907FC1F0F8018583903FCB
:1016700031F0982F907F905F8F70892B8583C80100
:101680000E94040786E0F801A8EEB1E001900D92F7
:101690008A95E1F70E947A09FDCE86E0F801A8EE6E
:1016A000B1E001900D928A95E1F7F4CEC8010E9455
:1016B0006307811175CF8091ED0181608093ED0109
:1016C000C8010E940407E6CE7A2DB98AA88A6E2D39
:1016D00089890E946A0786E0F60111928A95E9F7E6
:1016E000D9CFEE2009F46BCFC8010E946307F82E12
:1016F000882309F464CF86E0F801A8EEB1E00190F8
:101700000D928A95E1F788EE91E00E9418040E94FC
:101710008809C0CF81E08E25D7CE1F93CF93DF936A
:10172000CDB7DEB72C970FB6F894DEBF0FBECDBF96
:101730004F83588769877A878B879C87CE01079666
:101740000E94E909882369F08A859B85892B39F0F5
:101750004F815885842F85238F3F09F071C016E093
:101760005FC086E0FE013796DE01119601900D9272
:101770008A95E1F78A859B85892B89F388859F81E6
:1017800089238F3F61F32091B70130E0C9010196B1
:10179000877099274091B6014817190671F40E9485
:1017A00044071092B7011092B60186E0E8EEF1E02E
:1017B000DF011D928A95E9F7D2CF96E0929FD00182
:1017C000939FB00D1124A854BE4FFE013196019095
:1017D0000D929A95E1F78093B7010E945909BFCF06
:1017E000819FC001112488549E4F0E94E9098823DB
:1017F000E9F0E091B6011E9FF0011124E854FE4F7C
:101800004081518162817381848195810E94790731
:101810008091B60190E00196877099278093B60178
:101820008091B6019091B7018913DACF2C960FB64B
:10183000F894DEBF0FBECDBFDF91CF911F91089509
:1018400069857A858B859C850E94790788CF682F6A
:1018500080910201909103010C94F817682F8091F8
:101860000201909103010C94031880910201909160
:1018700003010C940E1880910E028595859585952F
:10188000089580910E028770089590910E029770CE
:1018900081E009F480E008958091310208959091EB
:1018A0003102892B80933102089580959091310205
:1018B00098239093310208951092310208959091E7
:1018C0003002892B809330020895809590913002E8
:1018D00098239093300208951092300208958091D9
:1018E0000F02089508950C94720C9091850292FD58
:1018F00008C090910F02981721F080930F020C946A
:10190000730C089580910F02882329F010920F0222
:1019100080E00C94730C0895CF93DF93E091020163
:10192000F0910301809131028083E0910201F091F6
:101930000301808190913002892B808390910F0266
:10194000992381F0E0910201F09103018081892BBC
:10195000808380910201909103010E94641781119C
:101960000E94820CC0910201D091030140E250E03C
:101970006EEE71E0CE010E942220892B69F080E298
:10198000FE01AEEEB1E001900D928A95E1F7CE0135
:10199000DF91CF910C941017DF91CF9108950895A6
:1019A0000C94CF0C9091850292FD10C098E0899F15
:1019B00090011124622B60930E020E94F90780911E
:1019C0000E028595859585950C94D00C0C94F9079D
:1019D00010920E0280E00C94D00C90910E02809533
:1019E000892380930E02282F277091F4282F082E28
:1019F000000C330B9217130659F09091850292FD5B
:101A000007C08595859585950E941A080C94E80C69
:101A100008959091850292FB222720F9281769F0FA
:101A200080FB92F9909385028091840290918502C7
:101A30000E94540D82E00C94ED0C08958091850273
:101A400082FB882780F991E089270C94090D81E0B9
:101A50000C94090D80E00C94090D6FEF7FEF90E07E
:101A600080E00C945B2090E080E00E94372021E031
:101A7000893E9E4F09F020E0822F089582E090E099
:101A80000C942F2083E090E00C942F20CF9384E0DF
:101A900090E00E942F20C82F82E290E00E942F2029
:101AA000982F8C2FCF910895CF93C92F682F84E062
:101AB00090E00E943D206C2F82E290E0CF910C9448
:101AC0003D20AB01BC018FE090E00C944F20AB01B6
:101AD000BC0183E190E00C944F2060E070E0CB010A
:101AE0000C94670D60E070E0CB010E94610D0C94D6
:101AF0006D0D69EE7EEF90E080E00E945B2060E07B
:101B000082E090E00E943D2060E083E090E00E944F
:101B10003D201092B2011092B3011092B4011092C4
:101B2000B50160E084E090E00E943D2060E082E248
:101B300090E00E943D2060E085E090E00E943D2022
:101B400060E086E090E00E943D206FEF87E090E04B
:101B50000E943D2040E050E0BA0188E090E00E9401
:101B60004F2060E08DE090E00E943D2040E050E09A
:101B7000BA0188E190E00E944F2060E087E190E0A8
:101B80000E943D2040E050E0BA018CE190E00E94CC
:101B90004F2070E060E080E290E00E945B2040E037
:101BA00050E0BA0188E190E00E944F200C94720D41
:101BB0000C94790D682F8EE090E00C943D200E94EB
:101BC000C31860933E0270933F028093400290934B
:101BD000410260933A0270933B0280933C029093DF
:101BE0003D02089585B7806885BF85B7806885BF49
:101BF0000895089508950C94FA0D08950C94FD0D20
:101C00000E94F20D8BEA90E10E94FA160E94F90DF3
:101C10000C94FB0D81E008950C940A0E089508952C
:101C20000E940E0E0C940F0E0E94C5100C94BF0360
:101C30000E94AE180E94A3110E94140E0C94FE0D77
:101C40005F926F927F928F929F92AF92BF92CF924C
:101C5000DF92EF92FF920F931F93CF93DF93CDB755
:101C6000DEB72A970FB6F894DEBF0FBECDBF0E9435
:101C7000B811A82E81110E94DF0D32E3832E32E0CD
:101C8000932E10E000E0502E802F0E94EF106C0188
:101C9000F401619071904F016816790609F454C0FF
:101CA0008091420281FD0E94F810B12CEE24E39451
:101CB000F12C6C247D24C3018E219F21892BF1F10D
:101CC0000E940C0E8823A9F0BE825F82CE20DF2006
:101CD00081E0CD2809F480E088870E94B7188160F0
:101CE000782F9A8789874E815F8168858A850E94CF
:101CF000DA03000F111FF801EE5CFD4F8081918126
:101D0000E826F926F182E08281E0A11001C080E09E
:101D10002A960FB6F894DEBF0FBECDBFDF91CF91EC
:101D20001F910F91FF90EF90DF90CF90BF90AF90F9
:101D30009F908F907F906F905F900895B394EE0C7A
:101D4000FF1CFCE0BF12B7CF0F5F1F4F043011051F
:101D500009F099CF8FEF89838A831B820E94B7187D
:101D60008160782F9D838C8349815A816B818D811D
:101D70000E94DA03C9CF0E94200E0E94BB130C946C
:101D8000CF03CF93DF930E94D10FEC01811521E5A2
:101D9000920708F042C0811530E5930708F09DC016
:101DA000883E910530F5803E910508F092C0883A52
:101DB000910588F4853A910508F084C08130910539
:101DC00009F487C0009709F484C0049708F081C023
:101DD000D0E0C0E07EC08F3B9105D0F7C85AD0E07C
:101DE000CC0FDD1FC65BDE4F0990D881C02DD464B7
:101DF00070C08115904250F4C11581E0D80708F0F9
:101E000068C0CD3ED10520F3D06563C0C11590E414
:101E1000D907F0F2DF70D06A5CC0811525E5920722
:101E200000F5811534E5930708F08BC0811543E573
:101E3000940708F073C0C11582E5D80708F469C09B
:101E4000CE018370992721E030E002C0220F331FBA
:101E50008A95E2F7C695C69580E2C89FE0011124F5
:101E600054C0C11599E5D907A8F4C11528E5D207D2
:101E700008F06CC0C11536E5D30708F0A9CF8C2F48
:101E80000E946810C82FD0E0DC2FCC27CC27DF7150
:101E9000D0621FC0C1154AE5D40708F45CC0CE016A
:101EA00090568115904208F093CF8D2F8F710E942C
:101EB000681090E0982F882788279F719C012C2B11
:101EC000E901E6CFC55AD0E0C858DE4FC881D0E05E
:101ED000D064CE01DF91CF910895E4E09695879587
:101EE000EA95E1F783702C2F26952695237040E222
:101EF000249F90011124382B8C2F8370C1E0D0E0F7
:101F000002C0CC0FDD1F8A95E2F7C22BD32BDC6811
:101F1000E0CFDC2FCC27C16FD06ADBCF837099274D
:101F200021E030E002C0220F331F8A95E2F7C69508
:101F3000C69590E2C99FE0011124C22BD32BDA6829
:101F4000C8CFD82FCC27C46FD06AC3CFDC2FCC2703
:101F5000C06FD06ABECF8C2F8F700E94681034E0A3
:101F6000D695C7953A95E1F7CF709C2FEC01D069D3
:101F7000B0CF972F70E02CE0929F600D711D11245F
:101F8000FB0190E3899FE00DF11D1124EE0FFF1F6F
:101F9000E455FF4F8591949108950E94B90F0C94D8
:101FA000C10E82389105B1F1B0F48133910509F485
:101FB00075C048F48932910509F469C08A329105E7
:101FC00009F473C008958533910509F459C0893324
:101FD000910501F10895833E9105A9F138F4803E01
:101FE0009105F9F0823E910549F10895863E9105EB
:101FF000A9F1873E9105C9F1843E910519F520911B
:10200000850221FF1FC08091840284FD14C087EEE9
:1020100090E00895209184022370A1F080EE90E07A
:1020200008952091840220FD47C03091850230FF41
:1020300009C024FF44C090E080E004C020918402E5
:1020400022FDF7CF08952091840222FD3BC03091FC
:10205000850230FDE3CF24FFF5CFEDCF2091840240
:1020600023FFF0CF24FDE7CFD2CF2091840223FDC0
:102070002CC03091850231FFEECF84EE90E00895C0
:102080002091840225FFDECF89E290E0089520911F
:10209000840225FFD7CF85E390E008952091840244
:1020A00026FFD0CF8AE290E008952091840226FF97
:1020B000C9CF81E390E0089589E390E0089583EE2D
:1020C00090E0089582EE90E0089586EE90E0089505
:1020D0009091840292FF06C0282F28712830F9F4CD
:1020E000877F846093FF06C0282F28712831F1F480
:1020F000877E84612091850220FF06C0382F3871C9
:102100003830D9F4877F816021FF06C0282F2871DD
:102110002831D1F4877E816194FD877E0895282F30
:1021200024712430F9F68B7F8860DCCF282F24714E
:10213000243101F78B7E8861DDCF382F317131304A
:1021400019F78E7F8860E0CF282F2171213121F788
:102150008E7E8861E1CF80E008950C942D0D0E9461
:10216000B8118FE39CE90197F1F700C000000E94CD
:10217000B81180E00E94EF1080FF04C00E94AD10F3
:102180000C94021908950C94AF100E94330D811124
:1021900002C00E94D80D0E943E0D809342020E9410
:1021A000460D90938502809384020E94C3100E9482
:1021B000420D682F70E090E080E00E9499076091E6
:1021C000AE017091AF018091B0019091B1010C947A
:1021D000D10708950C94E91008950C94EC10E82FA1
:1021E000F0E0EE0FFF1FE257FD4F808191810895CF
:1021F000089580EA8A95F1F7089500C008950C9437
:10220000F910F894E82FE295EF70F0E031A1282F53
:102210002F7081E090E001C0880F2A95EAF7982F8F
:102220009095932391A392A1892B82A378940895EA
:10223000CF93DF9380E30E94011181E30E9401119B
:1022400082E30E94011183E30E940111CBE7D1E0F8
:1022500089918F3F11F00E94011181E0C738D807A2
:10226000B9F7DF91CF910895AF92BF92DF92EF92CD
:10227000FF920F931F93CF93DF938C01D62EC62F1F
:10228000D0E0CE0189579E4F7C01FC0120812F3F79
:1022900009F44CC0F894E22FE295EF70F0E031A120
:1022A0002F7081E090E001C0880F2A95EAF7932F04
:1022B000982B91A392A18095892382A378940E9460
:1022C000FD10EBE7F1E041E050E0B12CA12C2191B1
:1022D0002F3FB1F1A22FA295AF70B0E090968C91F4
:1022E00090E02F7002C0959587952A95E2F780FDC2
:1022F00027C0CA01A82AB92A440F551F81E0E73830
:10230000F80729F7F70180818F3F11F00E94011132
:1023100061E0A114B10409F460E08D2D0E94FF106A
:10232000CC0FDD1FC00FD11FB982A882DF91CF91E2
:102330001F910F91FF90EF90DF90BF90AF900895A5
:1023400090E080E0D7CF0E94181188E0EEE8F2E03C
:10235000DF01982F1D929A95E9F7E6E8F2E0DF0198
:102360001D928A95E9F784E00E9403120C944A03B7
:10237000FF920F931F93CF93DF93CDB7DEB72897CC
:102380000FB6F894DEBF0FBECDBF8E010F5F1F4F9B
:1023900088E0F80111928A95E9F7F12C6F2DC801B8
:1023A0000E943411F394F4E0FF12F8CF48E050E0BB
:1023B000B80186E892E00E942220FF24F39400975F
:1023C00009F4F12C892B41F088E0F801A6E8B2E08D
:1023D00001900D928A95E1F72F2D44E06EE872E0AE
:1023E00086E892E00E9404120E944C038F2D2896EA
:1023F0000FB6F894DEBF0FBECDBFDF91CF911F9116
:102400000F91FF9008950895FF920F931F93CF931C
:10241000DF93F82E092F162FD72FC42F222349F030
:1024200081E0809345020E94B71890934402809304
:102430004302809145028823A1F08091430290914C
:1024400044020E94CF18059760F0EF2DF02FA12FC6
:10245000BD2F90E080E0D0E08C179D0744F01092F3
:102460004502DF91CF911F910F91FF900895219127
:1024700031912D933D930196EFCF0E94C81A0E948F
:10248000180E0C94D41A0E94D81A0E94BB0E0C94F9
:10249000F21A0E9457180E94AF1A0E94000E0E9462
:1024A0003D120E9443120E94100EFBCF80914C02FD
:1024B00080FF0DC06091090170E0660F771F6038E2
:1024C000710570F56115710569F1862F089581FF19
:1024D00007C06091090184E0689FB0011124EFCF2B
:1024E0006091090182FD0AC080914B028823A9F006
:1024F0002091080160910901821710F088E0ECCF6B
:10250000869FC001112433E0880F991F3A95E1F7A7
:10251000622F70E00E94F41FD2CF68E070E0D5CF48
:102520008FE7089581E0089580914C0280FF0CC0F0
:102530006091050170E075956795759567956115D2
:10254000710549F1862F089581FF06C0609105014C
:1025500070E075956795F3CF6091050182FD0BC022
:1025600090914A029923A1F06091040180910501A4
:10257000961738F0682F70E06038710500F38FE728
:102580000895899FC001112470E00E94F41FF4CFC8
:1025900061E070E0D7CF81E008958D3E31F40E9474
:1025A000561281958093500208958E3E19F40E9430
:1025B0005612F8CF8F3E31F40E94561281958093C7
:1025C0004F020895803F19F40E945612F8CF893FB8
:1025D00029F40E9494128093510208958A3F21F4B5
:1025E0000E9494128195F7CF8B3F31F40E94941290
:1025F00081958093520208958C3F19F40E949412A1
:10260000F8CF9FE0980F983070F4815F990B21E02C
:1026100030E001C0220F8A95EAF780914E02822BAA
:1026200080934E0208958D3F31F480914C02816079
:1026300080934C0208958E3F21F480914C02826079
:10264000F7CF8F3FB9F780914C028460F1CF409172
:102650004F028D3E59F48091500287FF0DC01092B9
:10266000500241110BC010924B0208C08E3E81F403
:102670008091500218169CF3442381F080915102FE
:1026800090915202892B09F05AC010924A02089583
:102690008F3E49F447FFF0CF10924F0280915002D5
:1026A0008111ECCFE0CF803F19F41416ACF3E4CFE6
:1026B00090915102893F29F41916F4F610925102B3
:1026C000DBCF8A3F19F497FFD7CFF8CF9091520212
:1026D0008B3F29F497FFD0CF10925202CDCF8C3F81
:1026E00019F41916CCF3C8CF9FE0980F983090F4E6
:1026F000815F990B21E030E0B90102C0660F771FBE
:102700008A95E2F7CB01809590914E0289238093C0
:102710004E02B2CF8D3F31F480914C028E7F809378
:102720004C02AACF8E3F21F480914C028D7FF7CFCF
:102730008F3F09F0A1CF80914C028B7FF0CF08959D
:102740000E94B7189C0190914F0280915002982BE3
:1027500021F03093490220934802909151028091D8
:102760005202982B21F030934702209346028DE4C9
:1027700092E00C942A17EF92FF920F931F93CF933E
:10278000DF9300D000D000D0CDB7DEB786E0EDE417
:10279000F2E0DE01119601900D928A95E1F7E0904A
:1027A0004F02F0905002009151021091520210928B
:1027B0004F021092500210925102109252028E2D2E
:1027C0008F2991F080914802909149020E94CF1880
:1027D000AC0190914B02992309F43FC080910A010A
:1027E0008417150608F447C0802F812B91F0809143
:1027F0004602909147020E94CF18AC0190914A0284
:10280000992309F477C0809106018417150608F40E
:102810007FC080914F0290915002892B909151027C
:10282000892B90915202892B11F00E94A01386E00F
:10283000FE013196ADE4B2E001900D928A95E1F788
:1028400026960FB6F894DEBF0FBECDBFDF91CF91B5
:102850001F910F91FF90EF90089520910B018AE056
:10286000289F900111242417350708F0BDCF9F5FE2
:1028700090934B0202C09F3FD1F7EE2059F00E9487
:1028800056129FEF1E140CF491E0899F802D1124A5
:1028900080934F02FF2059F00E9456129FEF1F14A1
:1028A0000CF491E0899F802D112480935002309187
:1028B0004F02332309F498CF20915002222309F4C8
:1028C00093CF45EB3403C0011124992359F0909321
:1028D0004F0245EB240390011124332339F0309348
:1028E000500282CF81E080934F02F3CF81E080934A
:1028F00050027ACF209107018AE0289F900111248D
:102900002417350708F085CF9F5F90934A0202C0D5
:102910009F3FD1F7002359F00E9494129FEF1016A9
:102920000CF491E0899F802D112480935102112392
:1029300059F00E9494129FEF11160CF491E0899FB8
:10294000802D11248093520230915102332309F4D7
:1029500060CF20915202222309F45BCF45EB340370
:10296000C0011124992359F09093510245EB24039F
:1029700090011124332339F0309352024ACF81E081
:1029800080935102F3CF81E08093520242CF86E0E0
:10299000EDE4F2E0DF011D928A95E9F710924B0217
:1029A00010924A0210924C020895CF93DF93EC01EB
:1029B000FB018281882309F433C1C430FDE5DF07C0
:1029C000C0F5CB3F9CE5D90730F49E0122503C4531
:1029D00024313105B0F50E94460D90938502809315
:1029E0008402C1318CE5D80709F4EEC008F069C053
:1029F000C930ECE5DE0709F4D5C0C8F5C5308CE573
:102A0000D80709F4C7C000F5C330ECE5DE0709F4C8
:102A1000B9C008F0BBC0C230DC4509F4ADC080913C
:102A20008402909185020E94540D0E94440780E028
:102A300008C0C236EDE5DE0771F2C63AFDE5DF07F4
:102A400051F2DF91CF910895809184028062C73066
:102A50009CE5D90709F493C0809184028061C83055
:102A6000DC4508F48CC080918402806488C0809129
:102A700084028B7FCD30FCE5DF0709F480C098F439
:102A8000809184028E7FCB309CE5D90709F477C012
:102A9000809184028C60CC30DC4508F470C0809159
:102AA00084028D7F6CC0809184028F7ECF30FCE5E4
:102AB000DF0709F464C008F47BC0809184028F7D35
:102AC0005EC0CE3F9CE5D90709F47AC050F5C53108
:102AD000FCE5DF0709F486C098F480918402837FC7
:102AE000C3319CE5D90709F44AC008F471C00E94BB
:102AF000440790918402892F97FB87F980583FC043
:102B0000CC3FFCE5DF0709F449C008F055C08091CF
:102B100085028160CB3FDC4509F081CF809385023F
:102B20007ECFC230EDE5DE0709F468C0A8F4C11518
:102B30008DE5D80709F452C0809185028360C130C9
:102B4000DD4560F380918502982F909591708E7F7E
:102B5000892B90FB81F9E2CFC236EDE5DE0709F45F
:102B600051C0C63AFDE5DF0709F453C0C330DD4567
:102B700009F055CF80E043C080918402816080934A
:102B800084024DCF809184028260F9CF80918402CB
:102B90008460F5CF809184028860F1CF80918502B6
:102BA0008260BCCF0E944407809184028068E7CF96
:102BB00080918402877FE3CF809185028E7FAECFA4
:102BC000809185028D7FAACF809184028F7BD7CFA1
:102BD0000E944407809184028F77D1CF8091850233
:102BE0008C7F9CCF8091840282FB992790F921E011
:102BF000922790FB82F990FB83F9C1CF81E00E947C
:102C0000DA0D0DCF90918402892F8F7E94FF806121
:102C1000B6CF90918402892F8E7F90FF8160AFCFD5
:102C200081E00FCFCF93DF93EB0186319C4511F507
:102C30000E944C0C9A81992399F08A7A91E009F4C8
:102C400090E090935302811109C089E20E94270C01
:102C50000E948C0C80E0DF91CF91089585E3F6CF40
:102C600080915302811104C089E20E942E0CF0CFA2
:102C700085E3FBCF81E0EFCF0F931F93CF93DF93DB
:102C8000C42FD22FFC0182818823C9F040935602C1
:102C90000E94B718909355028093540280E28C0FE3
:102CA000883008F050C0C77081E001C0880FCA9515
:102CB000EAF7DF91CF911F910F910C94B904109115
:102CC0005602141335C080915402909155020E940F
:102CD000CF188D37910560F5C0E2CD0F1D17B9F003
:102CE00080E2810F883040F4177081E001C0880FC6
:102CF0001A95EAF70E94C004C83048F481E09D2F7D
:102D0000977001C0880F9A95EAF70E94B904802F46
:102D10000E94B104C830B8F4D77081E001C0880FB8
:102D2000DA95EAF7DF91CF911F910F910C94C004CF
:102D300080E28C0F883038F4C77081E001C0880FC2
:102D4000CA95EAF7EFCFDF91CF911F910F910895C8
:102D50000F939C01CB01243F4CE5340759F1A8F4B3
:102D6000293DFCE53F0701F12A3D4CE53407D1F14F
:102D7000283D3C4591F406E221EE41EE68ED7CE50C
:102D80000E943C1680E00F910895263FFCE53F0726
:102D9000E9F0B0F0273F3C45F9F0FC01828188233F
:102DA00039F110925602EFCF07E225EE45EE69EDBC
:102DB0007CE5E6CF06E221EE40EE64EF7CE5E0CF75
:102DC00007E225EE44EE65EF7CE5DACF06E221EE80
:102DD00042EE66EF7CE5D4CF07E225EE46EE67EFE4
:102DE0007CE5CECF08E221E045EE6AED7CE5C8CF78
:102DF00081E0C9CF90938D0180938C0108959093C9
:102E00005C0280935B020895E0915B02F0915C02AA
:102E1000309721F00190F081E02D099480E0089531
:102E2000E0915B02F0915C02309799F020911801DB
:102E3000222359F02091840227FF07C0DC012C9146
:102E400011962C93119726E02C930280F381E02DAC
:102E500009940895E0915B02F0915C02309739F09B
:102E600022E0DC012C930480F581E02D0994089583
:102E70002091590230915A022817390771F0909326
:102E80005A0280935902E0915B02F0915C02309704
:102E900021F00680F781E02D0994089520915702D2
:102EA000309158022817390771F090935802809397
:102EB0005702E0915B02F0915C02309721F00084B0
:102EC000F185E02D09940895FC0132968091180156
:102ED000882321F0809184029EE187FF96E080E0C4
:102EE000915008F4089521912223D1F38F5FF8CFF8
:102EF000662301F1209118012223F1F02091840230
:102F000027FF1AC0462F4695469546954E3190F4B8
:102F1000677021E030E002C0220F331F6A95E2F7AC
:102F2000840F911DFC01828190E02823392381E0E8
:102F3000232B69F480E00895FC01329608962191D4
:102F4000261721F0E817F907D1F7F4CF81E00895AB
:102F50009C01FC0132969FEF80E04191461751F0B1
:102F60009F3F19F4411101C0982F8F5F8630A9F758
:102F70009F3F09F40895290F311D97FD3A95F901F6
:102F800062830895FC01329608962191261303C0AE
:102F9000DF0111971C92E817F907B9F70895E62F9A
:102FA000E695E695E695EE3168F4E80FF92FF11D08
:102FB000677021E030E001C0220F6A95EAF7828154
:102FC000822B82830895E62FE695E695E695EE310D
:102FD00070F4E80FF92FF11D677021E030E001C0B7
:102FE000220F6A95EAF7209582812823228308958B
:102FF00020911801222329F02091840227FD0C94AE
:10300000CF170C94A81720911801222329F02091A2
:10301000840227FD0C94E3170C94C217FC0132962E
:1030200080911801882351F08091840287FF06C0A7
:103030008EE1DF011D928A95E9F7089586E0F9CFC8
:1030400008950C942018811105C081E080935D02E1
:103050000C94211882E0FACF83E080935D020C94F7
:1030600021180C94231881E080935D020C942118A0
:103070000C943318089508950C943B1808950895FE
:103080000C943A18CF930E943E180E94B8110E94E7
:103090003F18C0E08C2F0E94EF10892B31F4CF5FD6
:1030A000C430C1F780E0CF91089581E0FCCF08954E
:1030B0001F921FB61F9211248F939F93AF93BF93BC
:1030C00080915E02811113C08091960290919702C7
:1030D000A0919802B09199024196A11DB11D8093D3
:1030E000960290939702A0939802B0939902BF9191
:1030F000AF919F918F911F901FBE1F901895809147
:103100009E02843031F10E94B00310925E0288E189
:1031100090E020E40FB6F894A895809360000FBE6D
:103120002093600083B7817F846083BF83B7816011
:1031300083BF7894889583B78E7F83BF0FB6F8944A
:10314000A895809160008861809360001092600073
:103150000FBE08950E9444070C94B40382E084BD1E
:1031600093E095BD9AEF97BD80936E0008952FB7B9
:10317000F8948091960290919702A0919802B09154
:1031800099022FBF08952FB7F8946091960270911D
:10319000970280919802909199022FBF08959C0107
:1031A0004FB7F8948091960290919702A09198025F
:1031B000B09199024FBF821B930B089578941F9290
:1031C0001FB61F9211248F939F93AF93BF9380914B
:1031D000960290919702A0919802B091990201965F
:1031E000A11DB11D8093960290939702A09398021F
:1031F000B0939902BF91AF919F918F911F901FBE85
:103200001F90189581E08093E00080E28093D800C1
:103210001092C9008FE19EE40197F1F700C0000011
:1032200087E090EBDC018093A7029093A802A09323
:10323000A902B093AA0288E19CE00FB6F894A89581
:10324000809360000FBE90936000FFCF8091820258
:10325000089508959C0182E08093E9009FEF80919A
:10326000E800915085FD06C085ED8A95F1F70000D4
:103270009111F5CF8091E80085FF0CC050E040E04F
:1032800066E070E0C9010E94631B8091E8008E77C0
:103290008093E8000895CF93DF93EC0180911801AB
:1032A0008823B1F18091840287FF32C060E282E01E
:1032B0008093E9008FEF9091E800815095FD06C062
:1032C00095ED9A95F1F700008111F5CF8091E80016
:1032D00085FF1BC08091180170E050E040E0811133
:1032E00004C050E040E068E070E0CE010E94631B43
:1032F0008091E8008E778093E80080E2FE01A2E6EC
:10330000B2E001900D928A95E1F7DF91CF91089597
:1033100068E081E0CDCF80935F027093610260939B
:10332000600280919E02843001F582E08093E90082
:103330008FEF9091E800815095FD06C095ED9A952C
:10334000F1F700008111F5CF8091E80085FF0DC0F5
:1033500050E040E063E070E08FE592E00E94631B84
:103360008091E8008E778093E8000895BC0184E0A6
:103370000C948B19BC0183E00C948B1980919D02F5
:10338000811109C00E94F31C0E94501D8091E2002F
:1033900084608093E200089510929D0208950C9439
:1033A000331860919A0281E0611101C080E00C94B1
:1033B0002C1890919E0281E0943009F080E0609199
:1033C0009A020C94311842E061EC81E00E946F1C7B
:1033D00042E261EC82E00E946F1C90919E0281E0CB
:1033E000943009F080E060919A020C942318809147
:1033F000A002833009F460C030F48130C9F182301A
:1034000009F49CC008958A3009F488C08B3009F40F
:103410006EC0893009F04FC080919F02813209F05F
:103420004AC08091A3029091A402029708F043C081
:103430008091E800877F8093E8008091E80082FF18
:1034400036C09091F3008091F200029731F48091A0
:10345000F100813011F0863021F48091F1008093E9
:1034600082028091E8008B778093E8000C94A31C83
:1034700080919F02813AF9F48091E800877F8093E0
:10348000E8008091A3029091A402892B61F460E28C
:1034900082E692E070E00E94B21B8091E8008B7798
:1034A0008093E800089560E090E080E0F3CF8091A1
:1034B0009E028111C2CF089580919F02813AD9F76F
:1034C0008091A3029091A402892BA9F78091E80032
:1034D000877F8093E8008091E80080FFFCCF809197
:1034E00018018093F1008091E8008E77BDCF809124
:1034F0009F02813201F78091A3029091A402892B4F
:10350000D1F68091E800877F8093E8000E94A31C99
:103510008091A102809318010C94440780919F022E
:10352000813249F68091E800877F8093E8000E940D
:10353000A31C8091A20280938302089580919F0230
:10354000813A09F0B8CF8091E800877F8093E80046
:103550008091E80080FFFCCF80918302C2CF84B7C6
:10356000877F84BF0FB6F894A8958091600088612A
:1035700080936000109260000FBE80E890E00FB66C
:10358000F89480936100909361000FBE0C943818FA
:103590000E94F31C0E94501DE2EEF0E080818460E6
:1035A000808378940C94D91F8CE091E00C94FF16E2
:1035B00080919E028530A9F480919E02853011F0A1
:1035C0000C94AA180E947F1880919C028823A1F372
:1035D0000E944218882381F30E944D1B0E944407D9
:1035E000EBCF089508950C94F51A292F3327233033
:1035F000310519F168F42130310509F444C0223055
:10360000310509F445C090E080E030E020E025C0BD
:103610002132310549F122323105A9F780E490E0E9
:1036200023E834E061157105C1F086EB90E02DECE4
:1036300033E06130710589F0E6CF9927813091053B
:1036400081F0009729F00297F1F6ECE4F3E002C074
:10365000ECE7F3E0849190E09F01FA01318320834D
:103660000895E2E6F3E0F6CF89E090E022E933E066
:103670006115710591F389E090E02BEA33E0613048
:10368000710559F3C0CF82E190E02BEB33E0E5CF39
:103690008BE390E020E833E0E0CF80E189BD82E178
:1036A00089BD09B400FEFDCF8091D8008F7D809345
:1036B000D8008091E00082608093E0008091E0007B
:1036C00081FDFCCF0895AF92BF92CF92DF92FF921F
:1036D0000F931F93CF93DF936C01EB018A010E943C
:1036E000C21CF82E811123C00115110539F0F80113
:1036F00080819181C81BD90BC80ED91EB12CA12C79
:103700002097A9F08091E80085FD22C08091E80013
:103710008E778093E80001151105A1F0F8018081F2
:103720009181A80EB91EB182A08285E0F82E8F2D5E
:10373000DF91CF911F910F91FF90DF90CF90BF90BD
:10374000AF9008950E94C21C8823D1F2F82EEFCFCB
:10375000F60181916F018093F1002197FFEFAF1A7D
:10376000BF0ACECFFC018091A5029091A6028617D8
:103770009707A0F06115710529F49091E8009E77F4
:103780009093E80090E06115710551F4911108C023
:103790008091E80082FF34C080E00895BC01F2CF40
:1037A00080919E028823C1F18530C1F18091E800AB
:1037B00083FD30C08091E80082FDEACF8091E8006F
:1037C00080FFE1CF8091F3002091F200382F611546
:1037D000710519F02830310558F091E02830310595
:1037E00009F090E02091E8002E772093E800CBCFFD
:1037F00081918093F100615071092F5F3F4FE7CFB6
:1038000080919E02882341F0853041F08091E8004C
:1038100083FFBECF81E0089582E0089583E008959C
:10382000FC018091A5029091A60286179707A0F04F
:103830006115710529F48091E8008E778093E80086
:1038400090E06115710551F4911108C08091E80074
:1038500082FF35C080E00895BC01F2CF80919E02C6
:103860008823C9F18530C9F18091E80083FD31C01A
:103870008091E80082FDEACF8091E80080FFE1CFEF
:103880008091F3002091F200382F6115710519F035
:103890002830310558F091E02830310509F090E0EA
:1038A0008091E8008E778093E800CBCF849180935D
:1038B000F1003196615071092F5F3F4FE6CF809143
:1038C0009E02882341F0853041F08091E80083FF1B
:1038D000BDCF81E0089582E0089583E00895982F98
:1038E000973028F08F708093E90081E008959093DD
:1038F000E900242F762F50E0981731F07091EC00FA
:103900002091ED005091F00021FD02C09F5FE8CFB3
:103910003091EB003E7F3093EB003091ED003D7F26
:103920003093ED003091EB0031603093EB007093F9
:10393000EC002093ED005093F0002091EE0027FD65
:10394000E5CF80E0089580919F0287FF13C08091AA
:10395000E80082FF06C08091E8008B778093E80042
:1039600004C080919E028111F2CF089580919E0241
:103970008823D9F38091E80080FFF8CF8091E80098
:103980008E77ECCF2091E4003091E50095E6A90117
:103990002091EC00822F817020FF06C08091E8000A
:1039A00080FF06C080E008952091E80022FD1AC043
:1039B00080919E02882389F0853089F08091EB0008
:1039C00085FD0FC02091E4003091E50042175307B8
:1039D000F9F29150E1F684E0089582E0089583E0E1
:1039E000089581E008950E94611D0E94691DE0EE26
:1039F000F0E0808181608083E8EDF0E080818F7766
:103A0000808319BCA7EDB0E08C918E7F8C93808170
:103A10008F7E808310929D0208950F931F93CF9302
:103A2000DF930E94611D0E94691DC8EDD0E088816E
:103A30008F77888388818068888388818F7D888359
:103A400019BC10929E0210929A0210929C0210923F
:103A50009B0200EE10E0F80180818B7F80838881DB
:103A60008160888342E060E080E00E946F1CE1EEAC
:103A7000F0E080818E7F8083E2EEF0E080818160E3
:103A80008083808188608083F80180818E7F80833D
:103A9000888180618883DF91CF911F910F91089574
:103AA000E8EDF0E080818F7E8083E7EDF0E08081BB
:103AB0008160808384E082BF81E080939D020C94CA
:103AC0000D1DE8EDF0E080818E7F80831092E20092
:103AD00008951092DA001092E10008951F920F925B
:103AE0000FB60F9211242F933F934F935F936F93D1
:103AF0007F938F939F93AF93BF93EF93FF938091A7
:103B0000E10082FF0BC08091E20082FF07C080913C
:103B1000E1008B7F8093E1000E94D81F8091DA0042
:103B200080FF19C08091D80080FF15C08091DA0015
:103B30008E7F8093DA008091D90080FF96C080E16B
:103B400089BD82E189BD09B400FEFDCF81E080938B
:103B50009E020E94BE198091E10080FF19C08091F1
:103B6000E20080FF15C08091E2008E7F8093E2002A
:103B70008091E20080618093E2008091D8008062B1
:103B80008093D80019BC85E080939E020E94D119D1
:103B90008091E10084FF2BC08091E20084FF27C068
:103BA00080E189BD82E189BD89B5982F917080FF40
:103BB000FBCF8091D8008F7D8093D8008091E10069
:103BC0008F7E8093E1008091E2008F7E8093E200FF
:103BD0008091E20081608093E20080919A028823C4
:103BE00009F449C084E080939E020E94D919809113
:103BF000E10083FF29C08091E20083FF25C080910E
:103C0000E100877F8093E10082E080939E02109222
:103C10009A028091E1008E7F8093E1008091E20022
:103C20008E7F8093E2008091E20080618093E200C9
:103C300042E060E080E00E946F1C8091F0008860AC
:103C40008093F0000E94CF19FF91EF91BF91AF9147
:103C50009F918F917F916F915F914F913F912F91A4
:103C60000F900FBE0F901F90189519BC10929E02D6
:103C70000E94CC1970CF8091E30087FD93E0909370
:103C80009E02B3CF1F920F920FB60F9211242F9363
:103C90003F934F935F936F937F938F939F93AF93D4
:103CA000BF93CF93DF93EF93FF93D091E900DF7041
:103CB0008091EC00C82FC17080FDC0E81092E9002F
:103CC0008091F000877F8093F00078940E94861E98
:103CD0001092E9008091F00088608093F000CD2B75
:103CE000CF70C093E900FF91EF91DF91CF91BF9129
:103CF000AF919F918F917F916F915F914F913F9184
:103D00002F910F900FBE0F901F9018951F93CF9378
:103D1000DF93CDB7DEB7AA970FB6F894DEBF0FBE1C
:103D2000CDBF8FE992E02091F100FC012193CF01FA
:103D3000F2E0873A9F07B9F70E94F7198091E800EF
:103D400083FF1EC180919F029091A0029A3008F0DB
:103D500017C1E92FF0E0E158FF4D0C94082080389E
:103D600099F0823809F00CC18091A3028F708730DE
:103D700008F006C18093E9008091EB0085FB88275D
:103D800080F91092E90006C080919B0290919C02FC
:103D9000911182609091E800977F9093E800809362
:103DA000F1001092F1008091E8008E77E5C0882341
:103DB00009F4D3C0823009F0E3C08091A1028111DF
:103DC000D6C08091A3028F702FEF280F263008F005
:103DD000D7C08093E9002091EB0020FFC8C093304A
:103DE00031F48091EB0080628093EB00C0C0909131
:103DF000EB0090619093EB0021E030E001C0220FD6
:103E00008A95EAF72093EA001092EA008091EB008D
:103E10008860EACF8111B4C01091A1021F77809110
:103E2000E3008078812B8093E3008091E800877F16
:103E30008093E8000E94A31C8091E80080FFFCCFE3
:103E40008091E30080688093E30082E0111183E0B9
:103E500080939E0295C08058823008F091C0809176
:103E6000A1029091A2028C3D23E09207A1F583E08C
:103E70008A838AE289834FB7F894DE01139620E0A3
:103E80003EE051E2E32FF0E050935700E49120FF31
:103E900003C0E295EF703F5FEF708E2F90E0EA3045
:103EA000C0F0C7968D939D932F5F243159F74FBF74
:103EB0008091E800877F8093E8006AE270E0CE019D
:103EC00001960E94B21B8091E8008B778093E800F6
:103ED00057C0C096E7CF6091A3027091A402AE01D3
:103EE0004F5F5F4F0E94F31ABC01892B09F448C051
:103EF0009091E800977F9093E80089819A810E94D1
:103F0000101CE1CF8038E1F58091E800877F809335
:103F1000E80080919A028093F10045CF811130C072
:103F20009091A102923060F58091E800877F8093A4
:103F3000E80090939A020E94A31C80919A02882321
:103F400011F084E005C08091E30087FDFACF81E0A5
:103F500080939E020E94E31913C08091A1028130D8
:103F600079F481E0933009F080E080939C02109214
:103F7000E9008091E800877F8093E8000E94A31CFD
:103F80008091E80083FF0AC08091E800877F8093DA
:103F9000E8008091EB0080628093EB00AA960FB658
:103FA000F894DEBF0FBECDBFDF91CF911F91089572
:103FB0000895CF9380919E028823A1F0C091E900DB
:103FC000CF709091EC00892F817090FD80E8C82B14
:103FD0001092E9008091E80083FD0E94861ECF7058
:103FE000C093E900CF91089597FB072E16F4009433
:103FF00007D077FD09D00E940E2007FC05D03EF4C3
:10400000909581959F4F0895709561957F4F089584
:10401000EE0FFF1F0590F491E02D0994AA1BBB1B26
:1040200051E107C0AA1FBB1FA617B70710F0A61BB8
:10403000B70B881F991F5A95A9F780959095BC01D9
:10404000CD010895FB01DC0104C08D910190801920
:1040500021F441505040C8F7881B990B0895F999F5
:10406000FECF92BD81BDF89A992780B50895A8E149
:10407000B0E042E050E00C946320262FF999FECF87
:1040800092BD81BDF89A019700B4021639F01FBAAB
:1040900020BD0FB6F894FA9AF99A0FBE08950396C8
:1040A000272F0E943E200E943D20252F0E943E2067
:1040B000242F0C943E200196272F0E943E200C9422
:1040C0003D20DC01CB01FC01F999FECF06C0F2BD19
:1040D000E1BDF89A319600B40D9241505040B8F7C6
:1040E0000895F894FFCF0505050536053605C90581
:1040F000E50565056505F0057C068B068B06AF1E9C
:10410000D71EC01FD71EC01F0A1F2B1FC01F821F14
:024110008E1F00
:104112007D001002280850011E0A140126194B19AD
:104122002A19BA19B619291901E200E900EA00B5FB
:1041320000B600B700CD008301CC008A0192019441
:10414200012102230224022502260227022A02B3A7
:1041520000B4006F007000818283E200E900EA008F
:10416200B500B600B700CD008301CC008A019201F0
:1041720094012102230224022502260227022A0296
:10418200B300B4006F007000818283353637F56763
:0C41920090919293949596303132330056
:00000001FF
