:100000000C9462020C949A020C949A020C949A0238
:100010000C949A020C949A020C949A020C949A02F0
:100020000C949A020C949A020C94841D0C94581E01
:100030000C9455180C949A020C949A020C949A02FF
:100040000C949A020C949A020C949A020C949A02C0
:100050000C949A020C94DC180C949A020C949A0258
:100060000C949A020C949A020C949A020C949A02A0
:100070000C949A020C949A020C949A020C949A0290
:100080000C949A020C949A020C949A020C949A0280
:100090000C949A020C949A020C949A020C949A0270
:1000A0000C949A020C949A020C949A022B0014005D
:1000B0001A000800150017001C0018000C001200A0
:1000C00013002A00290004001600070009000A0096
:1000D0000B000D000E000F00330034002F621D00D6
:1000E0001B00060019000500110010003600370043
:1000F000380030720651E000E200E30028422C6133
:100100002C6128435000510052004F0001001400A0
:100110001A00090013000A000D000F0018001C004F
:10012000330001000100040015001600170007004D
:100130000B00110008000C001200010001001D005E
:100140001B000600190005000E00100036003700E5
:100150003800010001000100010001000100010060
:100160000100010001000100010001000100010087
:10017000A800AA00A90001000100010001002D0251
:100180002E02010035021E021F022002210222025D
:100190002302240225022602270231020100010067
:1001A000AE00AC00AB000100010001000100010045
:1001B00001000100220A010001000100010001000C
:1001C000010001005000510052004F0001000100E9
:1001D00001000100010001000100010001002D00EB
:1001E0002E00010035001E001F002000210022000B
:1001F0002300240025002600270031000100010013
:1002000001000100010001000100010001000100E6
:10021000010001000553010001000100010001007F
:100220000100010001000100010001003A003B0053
:100230003C003D003E003F004000410042004300C2
:10024000440045004C0001000100010001000100D4
:100250000100010001000100010001000100010096
:1002600001000152010000520100010001000100E3
:100270000100010001000100010001000100010076
:100280000100010001000100010001000100010066
:100290000100010001000100010001000100010056
:1002A0000100010001000100010001000100010046
:1002B0000100010001000100010001000100010036
:1002C0000100010001000100010001000100010026
:1002D00001002800010001000100010001002C00C4
:1002E0002C000100010001000100010001000100DB
:1002F0004D00ED004A0001000100FA00F900010084
:100300000100010001000100EF00EE00F00001001B
:100310000100F100F20001000100010001000100F4
:1003200001000100010001000100010001000100C5
:1003300001000100010001000100010001000100B5
:10034000010001000100010001000100140354003C
:100350006500630068006E0069006B002D004F00AF
:100360000000180342006F00610072006400730017
:100370006F0075007200630065000000040309044B
:1003800009023B00020100A0FA0904000001030178
:100390000100092111010001224000070581030825
:1003A00000010904010001030000000921110100FE
:1003B0000122B6000705820320000112010002009D
:1003C00000000873427900000101020001050109E3
:1003D00002A10185020901A10005091901290815D9
:1003E00000250195087501810205010930093115C3
:1003F00081257F95027508810609381581257F952D
:100400000175088106050C0A38021581257F9501C2
:1004100075088106C0C005010980A1018503190185
:100420002AB700150126B700950175108100C00597
:100430000C0901A101850419012AA002150126A0B9
:1004400002950175108100C005010906A10185060C
:10045000050719E029E715002501950875018102B6
:100460000507190029EF1500250195F07501810296
:100470000508190129059505750191029501750376
:100480009101C005010906A101050719E029E71539
:100490000025019508750181029501750881010506
:1004A00007190029FF150026FF0095067508810031
:1004B0000508190129059505750191029501750336
:1004C0009101C00011241FBECFEFDAE0DEBFCDBF27
:1004D00004B603FE18C08091A5029091A602A091D7
:1004E000A702B091A8028730904BA740B04B59F4B7
:1004F0001092A5021092A6021092A7021092A802D2
:10050000E0E0F8E3099511E0A0E0B1E0E6E9F1E40C
:1005100002C005900D92AA38B107D9F722E0AAE8E7
:10052000B1E001C01D92A53AB207E1F70E942A127C
:100530000C94B3200C9400000F9304E023E042E0FD
:100540000E94F3020F91089581E0089581E00895DB
:100550000E94A602089508950E94AB020895A5E0A6
:10056000B0E0E5EBF2E00C94282049835A83309107
:100570008D0189819A81311119C0662399F0222356
:1005800089F00E941009182F682F89819A810E9492
:10059000EC0869817A81812F0E94960F2596E3E00D
:1005A0000C9444200E94FE08182FF3CF0E941009DB
:1005B00069817A81F1CFFC01262F408151816281CE
:1005C000738184810E94AF02089581E00895CF93E2
:1005D000DF93EC0160E00E94DB02BE010E94AC02EE
:1005E000DF91CF9108958F929F92AF92BF92CF9259
:1005F000DF92EF92FF920F931F936B017C0181E0DA
:1006000090E0A0E0B0E04C015D0104C0880C991CB2
:10061000AA1CBB1C4A95D2F7B501A4014C015D018F
:1006200004C0880C991CAA1CBB1C2A95D2F7482927
:1006300059296A297B2904C0880F991FAA1FBB1F4B
:100640000A95D2F78A019B010C211D212E213F2101
:10065000041715072607370789F48C299D29AE2929
:10066000BF29BC01CD011F910F91FF90EF90DF904A
:10067000CF90BF90AF909F908F9008958095909568
:10068000A095B0958C219D21AE21BF21EACF0E947B
:10069000D51008950E94D910089508950E943E072C
:1006A0000E944D032FEF84E39CE021508040904056
:1006B000E1F700C0000008950E944E030E94001957
:1006C00008950E944E030E94241908950F931F93CA
:1006D000CF93DF938C0161E00E94DB02EC01B80153
:1006E0000E94A802811106C080E0DF91CF911F9186
:1006F0000F910895B801CE010E9486168823A1F3B8
:10070000B801CE010E94BB14882371F3B801CE0159
:100710000E94F815882341F3F8018281882361F053
:10072000CB35FDE5DF0701F158F4C115ECE5DE0737
:1007300091F0CF3DDC4591F0C8010E94A402D5CFD5
:10074000CD358DE5D80769F090F0C83ADD45A1F7C1
:100750000E946103C9CF0E945C03C6CF0E94D60DE0
:10076000F7CF0E94100DE8CF0E941A0DE5CF0E942E
:100770001E0DE2CF0E9431180E94D70308950E94F7
:10078000DB030E943618089508950E94C40308955B
:1007900081E008950E94C80308950895CF93C82F5B
:1007A0000E94C5038C2F0E94CA03CF91089580E058
:1007B0000E94CE0308950E94E2160E94CE0308957F
:1007C0000E94E21690918C01981721F080938C0181
:1007D0000E94CE030895ABE0B0E0E1EFF3E00C94AB
:1007E00029204F83588769877A878B8761110E94F8
:1007F0005B0C1E821D8285E0FE013796DE0111969C
:1008000001900D928A95E1F78C819D81892B61F48D
:1008100049815A816B817C818D819E810E94840BEC
:100820002B96E2E00C94452089819A8189238F3FA1
:1008300079F3CE0101960E94E5028111E9CFF0CF54
:10084000FC01808191810E944A090895CF93C82FAD
:100850008823B9F08CEF8C0F813AA8F46C2F80912B
:100860000001909101010E945717882329F08C2FD5
:100870000E941B0C0E947C0C8C2F0E94130C0E9467
:100880007C0CCF91089580E28C0F883048F4C770BB
:1008900081E001C0880FCA95EAF70E943E0CEFCFB5
:1008A000EBE5EC0FE33040F4F0E0EB5BFE4F8081D2
:1008B00090E00E941717E5CFE8E5EC0FE73150F420
:1008C000F0E0EE0FFF1FE95EFE4F808191810E94F4
:1008D0002D17D7CFCD3EA8F28C2F0E94AE120E94CA
:1008E0008113CFCF882379F19CEF980F913A28F4A8
:1008F0000E941B0C0E947C0C089590E2980F983087
:1009000050F4877091E001C0990F8A95EAF7892F1A
:100910000E94440CEFCF9BE5980F933028F490E0B1
:1009200080E00E941717089598E5980F973128F4F2
:1009300090E080E00E942D1708958D3E20F00E94E7
:1009400008130E94811308951F93CF93DF93182FEC
:10095000EB010E942604209739F4812F0E94720433
:10096000DF91CF911F9108958FE99FE00197F1F7F3
:1009700000C000002197EFCF70E060E0893311F4F0
:1009800060E570E00E94A4040895882321F00E948D
:100990003E0C0E947C0C0895882321F00E94440C98
:1009A0000E947C0C0895B0E0A0E0E9EDF4E00C9426
:1009B00022206C01D62FC72FFC011281F580F29402
:1009C0009FE0F9220E94340CE82E8823B9F0E12E32
:1009D0001123A1F08C2F807F803421F080E28D0FD5
:1009E0008830D0F08091830282FF16C082E00E949E
:1009F000DF0C0E94340C91E0E82EE926BC2EB29464
:100A00008FE0B822FBE0FB1508F468C0EB2DF0E0A6
:100A1000EB54FF4D0C941320E12CF0CF0C2F0F70F2
:100A2000C07F11F00295007F112399F0002359F047
:100A300080E28D0F883010F0D11107C0802F0E9406
:100A40003E0C0E947C0C8D2F41C0802F0E944E0CCA
:100A5000F8CF8D2F0E947204002309F43FC080E27A
:100A60008D0F883010F0D11104C0802F0E94440CEB
:100A700003C0802F0E94540C0E947C0C2FC00C2FAE
:100A80000F70C07FC03211F00295007FDD2381F02E
:100A9000D13009F463C0112309F46DC0FF2009F4BB
:100AA00063C0F601858180FFCECF8F7085835CC0E7
:100AB0008091830282FD33C0112359F0002329F075
:100AC000802F0E943E0C0E947C0C80E00E94260435
:100AD00005C080E00E9472040111C7CFEB2DE850E1
:100AE000FF0B349720F40E94E2160E94CE03EE2002
:100AF00089F00E94300C80FD0DC0F60112820E9428
:100B00002A0C0E94F407C6010E94FE060E942A0CCD
:100B10000E941608CDB7DEB7E9E00C943E20112301
:100B200089F0F11006C00E945E0C802B0E94C50463
:100B3000D5CF21E0F212F7CF0E945E0C802B0E94ED
:100B4000650CCCCFF11006C00E94720C802F0E9461
:100B5000CC04C4CF31E0F31609F2F6CF112331F003
:100B600085E08F1508F4BACF802FE0CF94E09F1571
:100B700008F4B4CFEBCFFF2049F3D93349F4FFEFAA
:100B800027EE33E0F15020403040E1F700C0000094
:100B90008D2F0E947204A2CF8C2F8695869583702C
:100BA00069F0813009F09ACF8D2F9C2F937011112D
:100BB00002C090E080E00E942D1790CF8D2F9C2FD7
:100BC0009370111102C090E080E00E94171786CF49
:100BD0008D2F112329F00E94AE120E9481137ECF27
:100BE0000E940813FACF8C2F837009F041C01111B5
:100BF00075CF4D2F429546954770440F440F0D2FEA
:100C00000F7010E030E020E0042E04C0000F111F30
:100C1000221F331F0A94D2F760E070E0CB01D4FFAB
:100C20000FC06FE070E080E090E004C0660F771FB7
:100C3000881F991F4A95D2F7609570958095909579
:100C4000C695C695C370602B712B822B932BC23037
:100C500049F058F4C13019F00E94A2073FCF0E941A
:100C60008F073CCF0E94B50739CF0E948C0736CF43
:100C70008695112311F08C2F8170882309F42ECFD3
:100C80004D2F429546954770440F440F0D2F0F701E
:100C900010E030E020E0042E04C0000F111F221FDE
:100CA000331F0A94D2F760E070E0CB01D4FF0FC08D
:100CB0006FE070E080E090E004C0660F771F881F4F
:100CC000991F4A95D2F76095709580959095C69535
:100CD000C695C370602B712B822B932BC23049F0C9
:100CE00058F4C13019F00E946F08F8CE0E945C08D9
:100CF000F5CE0E948208F2CE0E94CB07EFCECF70D5
:100D0000112329F08C2F0E94F4078D2F0FCF8D2FE8
:100D10000E94CC048C2F0E941608E0CED23F51F1E5
:100D200060F4D03FB9F0D13F81F0112309F449C0FC
:100D3000F11089CE8C2F8F7121C0D33F11F1D43F98
:100D4000A1F78091830282FD26C08C2F8F71112321
:100D500011F314C0112349F084E08F1508F4BECEBE
:100D60008C2F8F710E943A08B9CE95E09F1508F438
:100D7000B5CEF6CF8C2F8F711111CDCF0E94F40715
:100D8000ADCE112329F08C2F8F710E94DE07A6CEE5
:100D90000E94D807A3CE112349F0CF718C2F0E9457
:100DA000F40763E08C2F0E94C10C98CE81E00E9472
:100DB000DF0CE1E0EF1508F091CE82E00E94DF0C3D
:100DC0008DCEF110DACE8C2F8F71A5CF0F931F939C
:100DD000CF93DF93EC01688179818A810E94550964
:100DE0008C010E9495080E948B07B801CE010E94D9
:100DF000D304DF91CF911F910F910895CF93DF938B
:100E0000EC018B819C81892B29F088819981892330
:100E10008F3F51F4DF91CF910895CE010E94E606F5
:100E2000CE010E94E702F6CFCE010E946603811137
:100E3000F4CF0E94340C882369F38A81882351F30C
:100E40008091830282FFE6CF82E00E94DF0CE2CF36
:100E500090E080E00E94171790E080E00E942D173C
:100E60000E945B0C0E947C0C0E949D130E948113C7
:100E700008950E94230C0E94280708950E944B0C9D
:100E80000E943907089592959F70963091F058F41A
:100E9000925F9F70923058F4803F19F030F4883E92
:100EA00030F481E008959A5FF4CF843FD1F380E07D
:100EB0000895883EB0F3813FD1F7F3CFFC018081E4
:100EC00091810E944A090E9443070895A5E0B0E07D
:100ED000ECE6F7E00C9429202596E2E00C944520FE
:100EE000A6E0B0E0E6E7F7E00C9429202696E2E0E1
:100EF0000C94452008950E947A0708950E947B076C
:100F00006093B0017093B1018093B2019093B301EB
:100F10000E942807089508950E947E0708950F9360
:100F20001F930091B0011091B1012091B201309155
:100F3000B301602B712B822B932B0E947E071F9194
:100F40000F9108950F931F930091B0011091B1017B
:100F50002091B2013091B301602371238223932346
:100F60000E947E071F910F9108950F931F93009188
:100F7000B0011091B1012091B2013091B30160270D
:100F80007127822793270E947E071F910F91089552
:100F90000E949C0208950E94C8076093AC01709360
:100FA000AD018093AE019093AF010E942807089590
:100FB00060E070E0CB010E94CB0708950F931F9370
:100FC00041E050E060E070E08A019B0104C0000F46
:100FD000111F221F331F8A95D2F7C901B8010E9441
:100FE000CB071F910F9108950F931F9341E050E09D
:100FF00060E070E004C0440F551F661F771F8A959C
:10100000D2F78091AC019091AD01A091AE01B09169
:10101000AF018A019B01082B192B2A2B3B2BC901FD
:10102000B8010E94CB071F910F9108950F931F9352
:1010300041E050E060E070E004C0440F551F661FBF
:10104000771F8A95D2F7CB01BA016095709580958C
:1010500090950091AC011091AD012091AE013091BD
:10106000AF0160237123822393230E94CB071F913A
:101070000F9108950F931F9341E050E060E070E0FE
:1010800004C0440F551F661F771F8A95D2F78091C1
:10109000AC019091AD01A091AE01B091AF018A0178
:1010A0009B01082719272A273B27C901B8010E945D
:1010B000CB071F910F9108950F931F930091AC01DF
:1010C0001091AD012091AE013091AF01602B712BD9
:1010D000822B932B0E94CB071F910F9108950F93A2
:1010E0001F930091AC011091AD012091AE013091A0
:1010F000AF0160237123822393230E94CB071F91AA
:101100000F9108950F931F930091AC011091AD01C1
:101110002091AE013091AF0160277127822793277C
:101120000E94CB071F910F9108950895262F2770D5
:1011300091E001C0990F2A95EAF723E0769567952B
:101140002A95E1F725E0269FF001279FF00D112455
:10115000E40FF51F50E040E0682F70E08191DF015F
:1011600011979B01042E02C0369527950A94E2F749
:10117000217021952827292328272C934F5F5F4F23
:101180004530510559F70895A82FA77023E096958B
:1011900087952A95E1F725E0289FF001299FF00D1A
:1011A0001124E60FF71F50E040E080E0219130E08D
:1011B0000A2E02C0369527950A94E2F7217033274C
:1011C000042E01C0220F0A94EAF7822B4F5F5F4F73
:1011D0004530510559F70895262F943070F48C301E
:1011E00060F4682F70E08CE0989F600D711D1124F1
:1011F0004EE851E0822F0E9496080895292F9430DE
:1012000068F48C3058F490E06EE871E03CE0239F85
:10121000800D911D11240E94C408089580E0089556
:10122000B0E0A0E0E6E1F9E00C9422208C01C0904F
:10123000AC01D090AD01E090AE01F090AF01809193
:10124000B0019091B101A091B201B091B301C82A4F
:10125000D92AEA2AFB2ACFE1D0E0BC2ED701C60169
:101260000C2E04C0B695A795979587950A94D2F74A
:1012700080FD09C0219788F7B12C8B2DCDB7DEB743
:10128000E9E00C943E20B8018C2F0E94B10F019729
:1012900089F3F3CFCF93DF93EC010E941009BE01D5
:1012A0000E94B10FDF91CF9108951F93CF93DF93E9
:1012B000EB0190918D01992339F0CB010E944A09ED
:1012C000DF91CF911F910895882369F0CB010E948F
:1012D0001009182F682FCE010E94EC08BE01812F43
:1012E0000E94B10FEDCFCB010E94FE08182FF6CF60
:1012F0001F93CF93DF93C091B40116E08091B501A5
:101300008C1304C0DF91CF911F910895D0E01C9FF2
:10131000F0011D9FF00D1124EA54FE4F40815181D0
:1013200062817381848195810E9470072196C770C4
:10133000E5CF4091E6015091E7016091E80170919D
:10134000E9018091EA019091EB010E9470070895F4
:101350001F93CF93DF938091EB01807F09F049C009
:101360008091E801882309F444C08091B401C091C0
:10137000B5016091E6017091E701A091E901B0919A
:10138000EA01D62FD72316E0C81799F190E01097FD
:1013900011F0DF3F19F401968770F6CF189F900186
:1013A000199F300D1124F901EA54FE4F4181471372
:1013B000F2CF40814613EFCF42814111ECCF438100
:1013C00054814A1B5B0B4D37510528F78091EB0187
:1013D0008F7080618093EB01F901E554FE4F8081AD
:1013E0008F708061808386EE91E00E94FE060E94ED
:1013F0007809DF91CF911F910895A1E1B0E0E3E07A
:10140000FAE00C9421208C0185E0F801DE011D96A4
:1014100001900D928A95E1F7F801E28086EEC82EE0
:1014200081E0D82E6091E9017091EA0161157105A2
:1014300009F44EC19091E6012091E701892F8223A2
:101440008F3F09F445C140815181A380B480F09061
:10145000E801F501E61BF70BFF2009F4EAC08091D3
:10146000EB01382F307FED37F10508F0A3C03111C3
:101470006DC0FE2C251316C0941314C0E11012C0C9
:101480008F7080618093EB010E949909C6010E94D0
:10149000FE068091EB01F80185838F2D6196EAE0CD
:1014A0000C943D20A114B10429F0842F85238F3F93
:1014B00009F027C180E0F82FF170DF2E80FF3CC0DB
:1014C0008091B4012091B50136E0821315C04D879B
:1014D0005E878D859E850E944A09292F22952F704F
:1014E0002230F0F0243018F59F70F1F0F80195816A
:1014F000907FD1F4D12C1EC090E0389FF001399F2D
:10150000F00D1124EA54FE4F6181651306C060811D
:10151000641303C06281E6120FC001968770D5CFB5
:101520009F7011F0882331F3805E883018F3C80172
:101530000E94FE06FD2CB1CFEE2009F4AECF8091C3
:10154000EB0181608093EB01F12CA7CF251306C03E
:10155000941304C0F801EE2009F487C0C8010E946A
:101560005E07882319F1EE2009F18091EB018032AA
:1015700070F02091E6013091E70138872F831986BA
:10158000BB86AA868C87CE0107960E94FE0686E05F
:10159000F801A6EEB1E001900D928A95E1F70E9464
:1015A000A8090E949909FF24F39477CFC8010E94EB
:1015B000FE06F9CF311113C07A2DB98AA88A6E2D93
:1015C00089890E94660786EE91E00E94FE0686E009
:1015D000F60111928A95E9F70E949909B5CF251372
:1015E0000FC094130DC0E1100BC0F8018583C80132
:1015F0000E94FE0686E0F60111928A95E9F74DCF2A
:10160000C8010E945E07882389F2EE2079F280915A
:10161000EB01803208F4BBCF2091E6013091E70165
:101620003A8329831B82BD82AC828E83CE010196D0
:10163000ACCFED37F10508F03EC0FE2CEE2009F4EA
:10164000B5CF25132AC0941328C08091EB0180FDEB
:101650001BC0982F907FC1F0F8018583903F31F037
:10166000982F907F905F8F70892B8583C8010E948F
:10167000FE0686E0F801A6EEB1E001900D928A9593
:10168000E1F70E94990909CF86E0F801A6EEB1E0E2
:1016900001900D928A95E1F700CFC8010E945E0784
:1016A000811175CF8091EB0181608093EB01C801BE
:1016B0000E94FE06F2CE7A2DB98AA88A6E2D8989FB
:1016C0000E94660786E0F60111928A95E9F7D9CF64
:1016D000EE2009F46BCFC8010E945E07F82E882324
:1016E00009F464CF86E0F801A6EEB1E001900D9216
:1016F0008A95E1F786EE91E00E9420040E94A809F5
:10170000C0CF81E08E25D7CEACE0B0E0EAE8FBE0C8
:101710000C9428204F83588769877A878B879C870A
:10172000CE0107960E94FD09882369F08A859B8572
:10173000892B39F04F815885842F85238F3F09F0FD
:101740006BC016E05FC086E0FE013796DE011196A1
:1017500001900D928A95E1F78A859B85892B89F303
:1017600088859F8189238F3F61F32091B50130E007
:10177000C9010196877099274091B401481719064D
:1017800071F40E943E071092B5011092B40186E0F8
:10179000E6EEF1E0DF011D928A95E9F7D2CF96E0FF
:1017A000929FD001939FB00D1124AA54BE4FFE0109
:1017B000319601900D929A95E1F78093B5010E94C0
:1017C0007809BFCF819FC00111248A549E4F0E9487
:1017D000FD098823E9F0E091B4011E9FF001112476
:1017E000EA54FE4F408151816281738184819581E9
:1017F0000E9470078091B40190E00196877099274C
:101800008093B4018091B4019091B5018913DACF2E
:101810002C96E3E00C94442069857A858B859C8521
:101820000E9470078ECF682F809100019091010176
:101830000E94D7170895682F8091000190910101AF
:101840000E94E517089580910001909101010E9486
:10185000F317089580910C028595859585950895D7
:1018600080910C028770089590910C02977081E02E
:1018700009F480E0089580912F02089590912F023D
:10188000892B80932F020895809590912F029823A1
:1018900090932F02089510922F02089590912E0296
:1018A000892B80932E020895809590912E02982383
:1018B00090932E02089510922E02089580910D02A9
:1018C000089508950E94610C08959091830292FFFB
:1018D00008C090910D02981721F080930D020E948C
:1018E000620C089580910D02882329F010920D0258
:1018F00080E00E94620C0895CF93DF93E091000195
:10190000F091010180912F028083E0910001F0911C
:101910000101808190912E02892B808390910D028C
:10192000992381F0E0910001F09101018081892BE0
:10193000808380910001909101010E9443178111E1
:101940000E94720CC0910001D091010140E250E070
:101950006CEE71E0CE010E946420892B59F080E288
:10196000FE01ACEEB1E001900D928A95E1F7CE0157
:101970000E94EF16DF91CF91089508950E94BD0C4B
:1019800008959091830292FF11C098E0899F900181
:101990001124622B60930C020E94F40780910C02C8
:1019A0008595859585950E94BE0C08950E94F40743
:1019B000089510920C0280E00E94BE0C0895909150
:1019C0000C028095892380930C02282F277091F4B4
:1019D000282F082E000C330B9217130659F0909104
:1019E000830292FF07C08595859585950E9416080C
:1019F0000E94D90C08959091830292FB222720F92E
:101A0000281769F080FB92F99093830280918202FB
:101A1000909183020E944C0D82E00E94DF0C089599
:101A20008091830282FB882780F991E089270E94B8
:101A3000FB0C089581E00E94FB0C089580E00E9459
:101A4000FB0C08956FEF7FEF90E080E00E949D20F7
:101A5000089590E080E00E94792021E0883E9E4F2A
:101A600009F020E0822F089582E090E00E9471202A
:101A7000089583E090E00E9471200895CF9384E060
:101A800090E00E947120C82F82E290E00E947120B5
:101A9000982F8C2FCF910895CF93C92F682F84E072
:101AA00090E00E947F206C2F82E290E00E947F20D5
:101AB000CF910895AB01BC018FE090E00E9491208E
:101AC0000895AB01BC0183E190E00E94912008954C
:101AD00060E070E0CB010E94610D089560E070E06D
:101AE000CB010E945A0D0E94680D089568EE7EEFAA
:101AF00090E080E00E949D2060E082E090E00E9403
:101B00007F2060E083E090E00E947F201092B0018F
:101B10001092B1011092B2011092B30160E084E022
:101B200090E00E947F2064E082E290E00E947F20AB
:101B300060E085E090E00E947F2060E086E090E039
:101B40000E947F206FEF87E090E00E947F2040E0BE
:101B500050E0BA0188E090E00E94912060E08DE0C2
:101B600090E00E947F2040E050E0BA0188E190E0E0
:101B70000E94912060E087E190E00E947F2040E099
:101B800050E0BA018CE190E00E94912070E060E0AA
:101B900080E290E00E949D2040E050E0BA0188E1A0
:101BA00090E00E9491200E946E0D08950E94760D93
:101BB0000895682F8EE090E00E947F2008950E9493
:101BC000C11860933C0270933D0280933E02909353
:101BD0003F02609338027093390280933A029093E7
:101BE0003B020895089508950E94F30D0895089505
:101BF0000E94F70D089580E990E10E94D8160E9496
:101C0000F20D0E94F40D089581E008950E94040EE3
:101C10000895089508950E94090E0E940A0E0895DD
:101C20000E94AF100E94CD0308950E94AC180E943C
:101C300091110E94100E0E94F80D0895AAE0B0E0E4
:101C4000E4E2FEE00C941C200E94A711A82E811152
:101C50000E94DF0D30E3832E32E0932E10E000E08F
:101C6000502E802F0E94DC106C01F4016190719065
:101C70004F016816790609F443C08091400281FD46
:101C80000E94E510B12CEE24E394F12C6C247D2409
:101C9000C3018E219F21892B69F10E94060E8823A2
:101CA000B1F0BE825F82CE20DF2081E0C114D1047A
:101CB00009F480E088870E94B5188160782F9A87A0
:101CC00089874E815F8168858A850E94EB03000FBA
:101CD000111FF801E05DFD4F80819181E826F92612
:101CE000F182E08281E0A11001C080E02A96EFE05D
:101CF0000C943820B394EE0CFF1CFCE0BF12C8CF4C
:101D00000F5F1F4F0430110509F0AACF8FEF8983B1
:101D10008A831B820E94B5188160782F9D838C83F3
:101D200049815A816B818D810E94EB03DBCF0E9438
:101D30001E0E0E94BF130E94E0030895CF93DF930D
:101D40000E94B60FEC01811521E5920708F042C010
:101D5000811530E5930708F09DC0883E910530F568
:101D6000803E910508F092C0883A910588F4853A42
:101D7000910508F084C08130910509F487C000976F
:101D800009F484C0049708F081C0D0E0C0E07EC0B0
:101D90008F3B9105D0F7C85AD0E0CC0FDD1FC85B50
:101DA000DE4F0990D881C02DD46470C08115904257
:101DB00050F4C11581E0D80708F068C0CD3ED105C8
:101DC00020F3D06563C0C11590E4D907F0F2DF704D
:101DD000D06A5CC0811525E5920700F5811534E5D0
:101DE000930708F08BC0811543E5940708F073C092
:101DF000C11582E5D80708F469C0CE018370992720
:101E000021E030E002C0220F331F8A95E2F7C69529
:101E1000C69580E2C89FE001112454C0C11599E520
:101E2000D907A8F4C11528E5D20708F06CC0C11580
:101E300036E5D30708F0A9CF8C2F0E944D10C82F8C
:101E4000D0E0DC2FCC27CC27DF71D0621FC0C115BA
:101E50004AE5D40708F45CC0CE0190568115904243
:101E600008F093CF8D2F8F710E944D1090E0982F26
:101E7000882788279F719C012C2BE901E6CFC55A42
:101E8000D0E0CA58DE4FC881D0E0D064CE01DF91E7
:101E9000CF910895E4E096958795EA95E1F78370F0
:101EA0002C2F26952695237040E2249F9001112423
:101EB000382B8C2F8370C1E0D0E002C0CC0FDD1F27
:101EC0008A95E2F7C22BD32BDC68E0CFDC2FCC273E
:101ED000C16FD06ADBCF8370992721E030E002C068
:101EE000220F331F8A95E2F7C695C69590E2C99FE7
:101EF000E0011124C22BD32BDA68C8CFD82FCC270E
:101F0000C46FD06AC3CFDC2FCC27C06FD06ABECFDE
:101F10008C2F8F700E944D1034E0D695C7953A955E
:101F2000E1F7CF709C2FEC01D069B0CF972F7430C0
:101F3000A8F46C3098F470E02CE0929F600D711D55
:101F40001124FB0190E3899FE00DF11D1124EE0F98
:101F5000FF1FE455FF4F85919491089580E090E034
:101F600008950E94960F0E949E0E08958238910552
:101F7000B1F1B0F48133910509F475C048F48932A8
:101F8000910509F469C08A32910509F473C0089576
:101F90008533910509F459C08933910501F10895FC
:101FA000833E9105A9F138F4803E9105F9F0823E17
:101FB000910549F10895863E9105A9F1873E910565
:101FC000C9F1843E910519F52091830221FF1FC0BC
:101FD0008091820284FD14C087EE90E008952091E4
:101FE00082022370A1F080EE90E008952091820299
:101FF00020FD47C03091830230FF09C024FF44C058
:1020000090E080E004C02091820222FDF7CF089585
:102010002091820222FD3BC03091830230FDE3CF4C
:1020200024FFF5CFEDCF2091820223FFF0CF24FDD6
:10203000E7CFD2CF2091820223FD2CC030918302C2
:1020400031FFEECF84EE90E008952091820225FFCB
:10205000DECF89E290E008952091820225FFD7CF5C
:1020600085E390E008952091820226FFD0CF8AE296
:1020700090E008952091820226FFC9CF81E390E08D
:10208000089589E390E0089583EE90E0089582EE4C
:1020900090E0089586EE90E008959091820292FF7C
:1020A00006C0282F28712830F9F4877F846093FFB9
:1020B00006C0282F28712831F1F4877E8461209191
:1020C000830220FF06C0382F38713830D9F4877F5B
:1020D000816021FF06C0282F28712831D1F4877E26
:1020E000816194FD877E0895282F24712430F9F6AC
:1020F0008B7F8860DCCF282F2471243101F78B7E01
:102100008861DDCF382F3171313019F78E7F8860CB
:10211000E0CF282F2171213121F78E7E8861E1CF18
:1021200080E008950E94220D08950E94A7112FEFCC
:1021300086E791E0215080409040E1F700C0000028
:102140000E94A71180E00E94DC1080FF04C00E9462
:1021500092100E94001908950E94951008950E94FF
:10216000290D811102C00E94D60D0E94340D80936A
:1021700040020E943E0D90938302809382020E944F
:10218000AC100E94390D682F70E090E080E00E9452
:102190008C076091AC017091AD018091AE0190917E
:1021A000AF010E94C807089508950E94D4100895B1
:1021B00008950E94D8100895E82FF0E0EE0FFF1F59
:1021C000E457FD4F808191810895089580EA8A95B2
:1021D000F1F7089500C008950E94E6100895F8945C
:1021E000E82FE295EF70F0E031A1282F2F7081E009
:1021F00090E001C0880F2A95EAF7982F90959323D5
:1022000091A392A1892B82A378940895CF93DF9311
:1022100080E30E94EF1081E30E94EF1082E30E94AE
:10222000EF1083E30E94EF10C9E7D1E089918F3F5F
:1022300011F00E94EF1081E0C538D807B9F7DF919F
:10224000CF910895AF92BF92DF92EF92FF920F93DA
:102250001F93CF93DF938C01D62EC62FD0E0CE01F3
:102260008B579E4F7C01FC0120812F3F09F44CC00D
:10227000F894E22FE295EF70F0E031A12F7081E049
:1022800090E001C0880F2A95EAF7932F982B91A32D
:1022900092A18095892382A378940E94EA10E9E7AD
:1022A000F1E041E050E0B12CA12C21912F3FB1F1A0
:1022B000A22FA295AF70B0E090968C9190E02F7015
:1022C00002C0959587952A95E2F780FD27C0CA013F
:1022D000A82AB92A440F551F81E0E538F80729F7E5
:1022E000F70180818F3F11F00E94EF1061E0A1148F
:1022F000B10409F460E08D2D0E94EC10CC0FDD1FBD
:10230000C00FD11FB982A882DF91CF911F910F9189
:10231000FF90EF90DF90BF90AF90089590E080E045
:10232000D7CF0E94061188E0ECE8F2E0DF01982F99
:102330001D929A95E9F7E4E8F2E0DF011D928A9593
:10234000E9F784E00E94E3110E9447030895A8E0A2
:10235000B0E0EDEAF1E10C9426208E010F5F1F4FF3
:1023600088E0F80111928A95E9F7F12C6F2DC801E8
:102370000E942211F394F4E0FF12F8CF48E050E0FD
:10238000B80184E892E00E946420FF24F39400974F
:1023900009F4F12C892B41F088E0F801A4E8B2E0BF
:1023A00001900D928A95E1F72F2D44E06CE872E0E0
:1023B00084E892E00E94E4110E944A038F2D28963F
:1023C000E5E00C9442200895FF920F931F93CF9362
:1023D000DF93F82E092F162FD72FC42F222349F071
:1023E00081E0809343020E94B5189093420280934B
:1023F0004102809143028823A1F080914102909193
:1024000042020E94CD18059760F0EF2DF02FA12F0A
:10241000BD2F90E080E0D0E08C179D073CF010923B
:102420004302CDB7DEB7E5E00C9442202191319113
:102430002D933D930196F0CF0E94DA1A0E94150E5B
:102440000E94E71A08950E94EC1A0E94970E0E94BB
:10245000061B08950E944E180E94C01A0E94FB0D90
:102460000E941C120E9423120E940B0EFBCF80912F
:102470004A0280FF0DC06091070170E0660F771F70
:102480006038710570F56115710569F1862F089541
:1024900081FF07C06091070184E0689FB0011124AB
:1024A000EFCF6091070182FD0AC080914902882325
:1024B000A9F02091060160910701821710F088E0D1
:1024C000ECCF869FC001112433E0880F991F3A9505
:1024D000E1F7622F70E00E94FF1FD2CF68E070E04A
:1024E000D5CF8FE7089581E0089580914A0280FF5B
:1024F0000CC06091030170E07595679575956795BF
:102500006115710549F1862F089581FF06C060911C
:10251000030170E075956795F3CF6091030182FD2B
:102520000BC0909148029923A1F060910201809123
:102530000301961738F0682F70E06038710500F3DA
:102540008FE70895899FC001112470E00E94FF1F4A
:10255000F4CF61E070E0D7CF81E008958D3E31F493
:102560000E943712819580934E0208958E3E19F491
:102570000E943712F8CF8F3E31F40E9437128195B6
:1025800080934D020895803F19F40E943712F8CFCE
:10259000893F29F40E94751280934F0208958A3F63
:1025A00021F40E9475128195F7CF8B3F31F40E9480
:1025B000751281958093500208958C3F19F40E9402
:1025C0007512F8CF9FE0980F983070F4815F990BE7
:1025D00021E030E001C0220F8A95EAF780914C0299
:1025E000822B80934C0208958D3F31F480914A02F2
:1025F000816080934A0208958E3F21F480914A02BF
:102600008260F7CF8F3FB9F780914A028460F1CFA3
:1026100040914D028D3E59F480914E0287FF0DC0CE
:1026200010924E0241110BC01092490208C08E3E1A
:1026300081F480914E0218169CF3442381F080911E
:102640004F0290915002892B09F05AC01092480213
:1026500008958F3E49F447FFF0CF10924D028091CC
:102660004E028111ECCFE0CF803F19F41416ACF389
:10267000E4CF90914F02893F29F41916F4F6109295
:102680004F02DBCF8A3F19F497FFD7CFF8CF909155
:1026900050028B3F29F497FFD0CF10925002CDCF3C
:1026A0008C3F19F41916CCF3C8CF9FE0980F9830DF
:1026B00090F4815F990B21E030E0B90102C0660F10
:1026C000771F8A95E2F7CB01809590914C02892380
:1026D00080934C02B2CF8D3F31F480914A028E7FBD
:1026E00080934A02AACF8E3F21F480914A028D7FC7
:1026F000F7CF8F3F09F0A1CF80914A028B7FF0CFB7
:1027000008950E94B5189C0190914D0280914E024F
:10271000982B21F0309347022093460290914F026C
:1027200080915002982B21F030934502209344026F
:102730008BE492E00E940917089586E0EBE4F2E052
:10274000DF011D928A95E9F7109249021092480222
:1027500010924A020895FC01828181110EC083818A
:1027600081110BC08481811108C091E085818111A4
:1027700001C090E0892F8170089581E0FCCFA6E030
:10278000B0E0E5ECF3E10C94282086E0EBE4F2E025
:10279000DE01119601900D928A95E1F710924D029B
:1027A00010924E0210924F02109250028B819C8127
:1027B000892B89F080914602909147020E94CD18A2
:1027C000AC01909149029923C9F1809108018417C5
:1027D000150608F440C08D819E81892B91F080916F
:1027E0004402909145020E94CD18AC01909148029C
:1027F000992309F471C0809104018417150608F427
:1028000079C0BE016F5F7F4F8BE492E00E94051894
:10281000811105C08BE492E00E94AB1381110E94EC
:10282000811386E0FE013196ABE4B2E001900D9297
:102830008A95E1F72696E3E00C9444202091090163
:102840008AE0289F900111242417350720F69F5F06
:102850009093490202C09F3FD1F71B81112359F089
:102860000E9437129FEF11160CF491E0899F802D82
:10287000112480934D021C81112359F00E943712BC
:102880009FEF11160CF491E0899F802D1124809305
:102890004E0230914D02332309F49DCF20914E0218
:1028A000222309F498CF45EB3403C0011124992366
:1028B00059F090934D0245EB2403900111243323EA
:1028C00039F030934E0287CF81E080934D02F3CFF1
:1028D00081E080934E027FCF209105018AE0289FFE
:1028E000900111242417350708F08BCF9F5F909338
:1028F000480202C09F3FD1F71D81112359F00E9469
:1029000075129FEF11160CF491E0899F802D112410
:1029100080934F021E81112359F00E9475129FEF80
:1029200011160CF491E0899F802D112480935002A0
:1029300030914F02332309F464CF209150022223B7
:1029400009F45FCF45EB3403C0011124992359F0FA
:1029500090934F0245EB240390011124332339F067
:10296000309350024ECF81E080934F02F3CF81E04D
:102970008093500246CFCF93DF93EC01FB0182811D
:10298000882309F433C1C430FDE5DF07C0F5CB3F30
:102990009CE5D90730F49E0122503C452431310595
:1029A000B0F50E943E0D9093830280938202C13164
:1029B0008CE5D80709F4EEC008F069C0C930ECE531
:1029C000DE0709F4D5C0C8F5C5308CE5D80709F491
:1029D000C7C000F5C330ECE5DE0709F4B9C008F064
:1029E000BBC0C230DC4509F4ADC080918202909139
:1029F00083020E944C0D0E943E0780E008C0C23650
:102A0000EDE5DE0771F2C63AFDE5DF0751F2DF9131
:102A1000CF910895809182028062C7309CE5D907EA
:102A200009F493C0809182028061C830DC4508F4CB
:102A30008CC080918202806488C0809182028B7FEA
:102A4000CD30FCE5DF0709F480C098F48091820264
:102A50008E7FCB309CE5D90709F477C08091820244
:102A60008C60CC30DC4508F470C0809182028D7F90
:102A70006CC0809182028F7ECF30FCE5DF0709F4C5
:102A800064C008F47BC0809182028F7D5EC0CE3F1F
:102A90009CE5D90709F47AC050F5C531FCE5DF079C
:102AA00009F486C098F480918202837FC3319CE54B
:102AB000D90709F44AC008F471C00E943E079091FA
:102AC0008202892F97FB87F980583FC0CC3FFCE5F5
:102AD000DF0709F449C008F055C080918302816086
:102AE000CB3FDC4509F081CF809383027ECFC2309B
:102AF000EDE5DE0709F468C0A8F4C1158DE5D80737
:102B000009F452C0809183028360C130DD4560F3D7
:102B100080918302982F909591708E7F892B90FBE6
:102B200081F9E2CFC236EDE5DE0709F451C0C63ABD
:102B3000FDE5DF0709F453C0C330DD4509F055CF8B
:102B400080E043C0809182028160809382024DCFF9
:102B5000809182028260F9CF809182028460F5CFF9
:102B6000809182028860F1CF809183028260BCCF25
:102B70000E943E07809182028068E7CF80918202A6
:102B8000877FE3CF809183028E7FAECF80918302D7
:102B90008D7FAACF809182028F7BD7CF0E943E0784
:102BA000809182028F77D1CF809183028C7F9CCFDE
:102BB0008091820282FB992790F921E0922790FB75
:102BC00082F990FB83F9C1CF81E00E94D90D0DCF2E
:102BD00090918202892F8F7E94FF8061B6CF909171
:102BE0008202892F8E7F90FF8160AFCF81E00FCF6F
:102BF000CF93DF93EB0186319C4511F50E943B0C8E
:102C00009A81992399F08A7A91E009F490E090935F
:102C10005102811109C089E20E94130C0E947C0CB0
:102C200080E0DF91CF91089585E3F6CF8091510246
:102C3000811104C089E20E941B0CF0CF85E3FBCF19
:102C400081E0EFCF0F931F93CF93DF93C42FD22F49
:102C5000FC0182818823C9F0409354020E94B51878
:102C6000909353028093520280E28C0F883040F49C
:102C7000C77081E001C0880FCA95EAF70E94C504B9
:102C8000DF91CF911F910F91089510915402141369
:102C900032C080915202909153020E94CD188D371C
:102CA000910548F5C0E2CD0F1D17B9F080E2810F04
:102CB000883040F4177081E001C0880F1A95EAF758
:102CC0000E94CC04C83048F481E09D2F977001C069
:102CD000880F9A95EAF70E94C504802F0E94BC04D1
:102CE000C83070F6D77081E001C0880FDA95EAF736
:102CF0000E94CC04C5CF80E28C0F883008F6C770E4
:102D000081E001C0880FCA95EAF7F2CF0F939C01CA
:102D1000CB01243F4CE5340759F1A8F4293DFCE5EB
:102D20003F0701F12A3D4CE53407D1F1283D3C45F0
:102D300091F406E221EE41EE68ED7CE50E94221658
:102D400080E00F910895263FFCE53F07E9F0B0F0E1
:102D5000273F3C45F9F0FC018281882339F110922C
:102D60005402EFCF07E225EE45EE69ED7CE5E6CFB4
:102D700006E221EE40EE64EF7CE5E0CF07E225EECF
:102D800044EE65EF7CE5DACF06E221EE42EE66EF37
:102D90007CE5D4CF07E225EE46EE67EF7CE5CECFAB
:102DA00008E221E045EE6AED7CE5C8CF81E0C9CFBD
:102DB00090938B0180938A01089590935A02809397
:102DC00059020895E0915902F0915A02309729F082
:102DD0000190F081E02D0995089580E00895E0913B
:102DE0005902F0915A02309799F02091160122234E
:102DF00059F02091820227FF07C0DC012C91119627
:102E00002C93119726E02C930280F381E02D0995F5
:102E10000895E0915902F0915A02309739F022E07A
:102E2000DC012C930480F581E02D09950895209113
:102E30005702309158022817390771F090935802C1
:102E400080935702E0915902F0915A02309721F095
:102E50000680F781E02D0995089520915502309163
:102E600056022817390771F0909356028093550245
:102E7000E0915902F0915A02309721F00084F185D7
:102E8000E02D09950895FC01329680911601882362
:102E900021F0809182029EE187FF96E080E09150D0
:102EA00008F4089521912223D1F38F5FF8CF662390
:102EB00001F1209116012223F1F02091820227FFD7
:102EC0001AC0462F4695469546954E3190F4677048
:102ED00021E030E002C0220F331F6A95E2F7840F31
:102EE000911DFC01828190E02823392381E0232B6E
:102EF00069F480E00895FC01329608962191261726
:102F000021F0E817F907D1F7F4CF81E008959C018B
:102F1000FC0132969FEF80E04191461751F09F3FB0
:102F200019F4411101C0982F8F5F8630A9F79F3F98
:102F300009F40895290F311D97FD3A95F90162832F
:102F40000895FC01329608962191261303C0DF01F3
:102F500011971C92E817F907B9F70895E62FE6953F
:102F6000E695E695EE3168F4E80FF92FF11D6770EC
:102F700021E030E001C0220F6A95EAF78281822BBE
:102F800082830895E62FE695E695E695EE3170F496
:102F9000E80FF92FF11D677021E030E001C0220F2A
:102FA0006A95EAF72095828128232283089520914B
:102FB0001601222339F02091820227FF03C00E94CC
:102FC000AE1708950E9487170895209116012223B5
:102FD00039F02091820227FF03C00E94C217089592
:102FE0000E94A1170895FC01329680911601882352
:102FF00051F08091820287FF06C08EE1DF011D92B1
:103000008A95E9F7089586E0F9CF46E050E00E94FE
:10301000642021E0892B09F420E0822F089508958F
:103020000E940F180895811106C081E080935B0211
:103030000E941018089582E0F9CF83E080935B022C
:103040000E94101808950E941318089581E080933B
:103050005B020E94101808950E9426180895089592
:1030600008950E9430180895089508950E942F1819
:103070000895CF930E9434180E94A7110E9435181A
:10308000C0E08C2F0E94DC10892B31F4CF5FC4305C
:10309000C1F780E0CF91089581E0FCCF85B78068CB
:1030A00085BF85B7806885BF08951F921FB61F92A0
:1030B00011248F939F93AF93BF9380915C028111F2
:1030C00013C08091940290919502A0919602B091C4
:1030D00097024196A11DB11D809394029093950291
:1030E000A0939602B0939702BF91AF919F918F9159
:1030F0001F901FBE1F90189580919C02843031F163
:103100000E94BA0310925C0288E190E020E40FB6BE
:10311000F894A895809360000FBE2093600083B759
:10312000817F846083BF83B7816083BF78948895F3
:1031300083B78E7F83BF0FB6F894A8958091600007
:10314000886180936000109260000FBE08950E9415
:103150003E070E94BF03089582E084BD93E095BDC1
:103160009AEF97BD80936E0008952FB7F8948091E1
:10317000940290919502A0919602B09197022FBF70
:1031800008952FB7F8946091940270919502809100
:103190009602909197022FBF08959C014FB7F89423
:1031A0008091940290919502A0919602B09197021D
:1031B0004FBF821B930B089578941F921FB61F92E6
:1031C00011248F939F93AF93BF938091940290911A
:1031D0009502A0919602B09197020196A11DB11D92
:1031E0008093940290939502A0939602B0939702D5
:1031F000BF91AF919F918F911F901FBE1F90189507
:1032000081E08093E00080E28093D8001092C900B2
:103210008FE19EE40197F1F700C0000087E090EB9A
:10322000DC018093A5029093A602A093A702B0931D
:10323000A80288E19CE00FB6F894A89580936000FE
:103240000FBE90936000FFCF88E19CE00FB6F8942A
:10325000A895809360000FBE90936000FFCF80918F
:103260008002089508959C0182E08093E9009FEF19
:103270008091E800915085FD06C085ED8A95F1F7B3
:1032800000009111F5CF8091E80085FF0CC050E05F
:1032900040E066E070E0C9010E94781B8091E80080
:1032A0008E778093E8000895CF93DF93EC018091AF
:1032B00016018823B1F18091820287FF32C060E25B
:1032C00082E08093E9008FEF9091E800815095FDB6
:1032D00006C095ED9A95F1F700008111F5CF809128
:1032E000E80085FF1BC08091160170E050E040E0CF
:1032F000811104C050E040E068E070E0CE010E941F
:10330000781B8091E8008E778093E80080E2FE01D0
:10331000A0E6B2E001900D928A95E1F7DF91CF919E
:10332000089568E081E0CDCF80935D0270935F02E5
:1033300060935E0280919C02843001F582E080936C
:10334000E9008FEF9091E800815095FD06C095ED62
:103350009A95F1F700008111F5CF8091E80085FF83
:103360000DC050E040E063E070E08DE592E00E9427
:10337000781B8091E8008E778093E8000895BC0167
:1033800084E00E9494190895BC0183E00E9494197E
:10339000089580919B02811109C00E94081D0E941E
:1033A000651D8091E20084608093E2000895109290
:1033B0009B0208950E94261808956091980281E06A
:1033C000611101C080E00E941D18089590919C0237
:1033D00081E0943009F080E0609198020E94231807
:1033E000089542E061EC81E00E94841C42E261ECBD
:1033F00082E00E94841C90919C0281E0943009F04C
:1034000080E0609198020E941318089580919E02B6
:10341000833009F461C030F48130D1F1823009F495
:103420009EC008958A3009F48AC08B3009F46FC0B9
:10343000893009F050C080919D02813209F04BC063
:103440008091A1029091A202029708F044C080915D
:10345000E800877F8093E8008091E80082FF37C012
:103460009091F3008091F200029731F48091F10085
:10347000813011F0863021F48091F1008093800238
:103480008091E8008B778093E8000E94B81C23C0ED
:1034900080919D02813AF9F48091E800877F8093C2
:1034A000E8008091A1029091A202892B61F460E270
:1034B00080E692E070E00E94C71B8091E8008B7765
:1034C0008093E800089560E090E080E0F3CF809181
:1034D0009C028111C1CF089580919D02813AD9F754
:1034E0008091A1029091A202892BA9F78091E80016
:1034F000877F8093E8008091E80080FFFCCF809177
:1035000016018093F1008091E8008E77BCCF809106
:103510009D02813201F78091A1029091A202892B34
:10352000D1F68091E800877F8093E8000E94B81C64
:1035300080919F02809316010E943E07089580911A
:103540009D02813241F68091E800877F8093E800F8
:103550000E94B81C8091A0028093810208958091FE
:103560009D02813A09F0B7CF8091E800877F809370
:10357000E8008091E80080FFFCCF80918102C1CFFC
:1035800084B7877F84BF0FB6F894A89580916000B8
:10359000886180936000109260000FBE80E890E028
:1035A0000FB6F89480936100909361000FBE0E9463
:1035B0002C1808950E94081D0E94651DE2EEF0E09F
:1035C00080818460808378940E94E41F08958AE05B
:1035D00091E00E94DD16089580919C02853031F4BF
:1035E00080919C02853019F00E94A71808950E94CE
:1035F0007C1880919A02882399F30E9439188823B5
:1036000079F30E94621B0E943E07EACF08950E9450
:103610000A1B0895292F33272330310519F168F447
:103620002130310509F444C02230310509F445C088
:1036300090E080E030E020E025C02132310549F102
:1036400022323105A9F780E490E023E834E06115E7
:103650007105C1F086EB90E02DEC33E0613071052F
:1036600089F0E6CF99278130910581F0009729F004
:103670000297F1F6ECE4F3E002C0ECE7F3E08491AA
:1036800090E09F01FA01318320830895E2E6F3E0A0
:10369000F6CF89E090E022E933E06115710591F3FE
:1036A00089E090E02BEA33E06130710559F3C0CF37
:1036B00082E190E02BEB33E0E5CF8BE390E020E874
:1036C00033E0E0CF80E189BD82E189BD09B400FE2D
:1036D000FDCF8091D8008F7D8093D8008091E0004D
:1036E00082608093E0008091E00081FDFCCF08952E
:1036F000AF92BF92CF92DF92FF920F931F93CF931F
:10370000DF936C01EB018A010E94D71CF82E811116
:1037100023C00115110539F0F80180819181C81B82
:10372000D90BC80ED91EB12CA12C2097A9F08091DD
:10373000E80085FD22C08091E8008E778093E80044
:1037400001151105A1F0F80180819181A80EB91E23
:10375000B182A08285E0F82E8F2DDF91CF911F914D
:103760000F91FF90DF90CF90BF90AF9008950E948F
:10377000D71C8823D1F2F82EEFCFF60181916F018B
:103780008093F1002197FFEFAF1ABF0ACECFFC0163
:103790008091A3029091A40286179707A0F061156B
:1037A000710529F49091E8009E779093E80090E0ED
:1037B0006115710551F4911108C08091E80082FFF4
:1037C00034C080E00895BC01F2CF80919C02882330
:1037D000C1F18530C1F18091E80083FD30C0809156
:1037E000E80082FDEACF8091E80080FFE1CF809180
:1037F000F3002091F200382F6115710519F028307F
:10380000310558F091E02830310509F090E0209121
:10381000E8002E772093E800CBCF81918093F100D0
:10382000615071092F5F3F4FE7CF80919C02882341
:1038300041F0853041F08091E80083FFBECF81E008
:10384000089582E0089583E00895FC018091A30229
:103850009091A40286179707A0F06115710529F4CD
:103860008091E8008E778093E80090E06115710503
:1038700051F4911108C08091E80082FF35C080E0CA
:103880000895BC01F2CF80919C028823C9F1853054
:10389000C9F18091E80083FD31C08091E80082FD8C
:1038A000EACF8091E80080FFE1CF8091F300209182
:1038B000F200382F6115710519F02830310558F0E4
:1038C00091E02830310509F090E08091E8008E7792
:1038D0008093E800CBCF84918093F10031966150C2
:1038E00071092F5F3F4FE6CF80919C02882341F002
:1038F000853041F08091E80083FFBDCF81E00895DD
:1039000082E0089583E00895982F973028F08F7013
:103910008093E90081E008959093E900242F762FA9
:1039200050E0981731F07091EC002091ED0050912B
:10393000F00021FD02C09F5FE8CF3091EB003E7F99
:103940003093EB003091ED003D7F3093ED003091EE
:10395000EB0031603093EB007093EC002093ED00AE
:103960005093F0002091EE0027FDE5CF80E0089510
:1039700080919D0287FF13C08091E80082FF06C0FE
:103980008091E8008B778093E80004C080919C02CE
:103990008111F2CF089580919C028823D9F3809100
:1039A000E80080FFF8CF8091E8008E77ECCF20917F
:1039B000E4003091E50095E6A9012091EC00822F0A
:1039C000817020FF06C08091E80080FF06C080E083
:1039D00008952091E80022FD1AC080919C0288235E
:1039E00089F0853089F08091EB0085FD0FC0209132
:1039F000E4003091E50042175307F9F29150E1F6E7
:103A000084E0089582E0089583E0089581E00895B8
:103A10000E94771D0E947F1DE0EEF0E080818160B2
:103A20008083E8EDF0E080818F77808319BCA7ED7B
:103A3000B0E08C918E7F8C9380818F7E80831092FA
:103A40009B0208950F931F93CF93DF930E94771DDE
:103A50000E947F1DC8EDD0E088818F7788838881A0
:103A60008068888388818F7D888319BC10929C022E
:103A70001092980210929A021092990200EE10E0B1
:103A8000F80180818B7F808388818160888342E018
:103A900060E080E00E94841CE1EEF0E080818E7F97
:103AA0008083E2EEF0E080818160808380818860A5
:103AB0008083F80180818E7F808388818061888304
:103AC000DF91CF911F910F910895E8EDF0E0808193
:103AD0008F7E8083E7EDF0E080818160808384E0E9
:103AE00082BF81E080939B020E94221D0895E8ED31
:103AF000F0E080818E7F80831092E2000895109222
:103B0000DA001092E10008951F920F920FB60F9203
:103B100011242F933F934F935F936F937F938F93D2
:103B20009F93AF93BF93EF93FF938091E10082FF48
:103B30000BC08091E20082FF07C08091E1008B7F83
:103B40008093E1000E94E31F8091DA0080FF19C09A
:103B50008091D80080FF15C08091DA008E7F80931D
:103B6000DA008091D90080FF96C080E189BD82E1B2
:103B700089BD09B400FEFDCF81E080939C020E94C4
:103B8000C9198091E10080FF19C08091E20080FF97
:103B900015C08091E2008E7F8093E2008091E20068
:103BA00080618093E2008091D80080628093D80089
:103BB00019BC85E080939C020E94DD198091E10090
:103BC00084FF2BC08091E20084FF27C080E189BD83
:103BD00082E189BD89B5982F917080FFFBCF8091DC
:103BE000D8008F7D8093D8008091E1008F7E8093F4
:103BF000E1008091E2008F7E8093E2008091E200FC
:103C000081608093E20080919802882309F449C082
:103C100084E080939C020E94E6198091E10083FF7A
:103C200029C08091E20083FF25C08091E100877F59
:103C30008093E10082E080939C0210929802809130
:103C4000E1008E7F8093E1008091E2008E7F80937F
:103C5000E2008091E20080618093E20042E060E057
:103C600080E00E94841C8091F00088608093F000C6
:103C70000E94DA19FF91EF91BF91AF919F918F91BF
:103C80007F916F915F914F913F912F910F900FBE58
:103C90000F901F90189519BC10929C020E94D71982
:103CA00070CF8091E30087FD93E090939C02B3CFA7
:103CB0001F920F920FB60F9211242F933F934F93A1
:103CC0005F936F937F938F939F93AF93BF93CF93A4
:103CD000DF93EF93FF93D091E900DF708091EC00C8
:103CE000C82FC17080FDC0E81092E9008091F000FB
:103CF000877F8093F00078940E949C1E1092E900C8
:103D00008091F00088608093F000CD2BCF70C0933D
:103D1000E900FF91EF91DF91CF91BF91AF919F911A
:103D20008F917F916F915F914F913F912F910F9064
:103D30000FBE0F901F901895AAE2B0E0E2EAFEE1F4
:103D40000C9428208DE992E02091F100FC01219350
:103D5000CF01F2E0853A9F07B9F70E94061A8091D9
:103D6000E80083FF1EC180919D0290919E029A30CF
:103D700008F017C1E92FF0E0EF53FF4D0C9413202A
:103D8000803899F0823809F00CC18091A1028F70BF
:103D9000873008F006C18093E9008091EB0085FB35
:103DA000882780F91092E90006C0809199029091CD
:103DB0009A02911182609091E800977F9093E800B9
:103DC0008093F1001092F1008091E8008E77E5C0B9
:103DD000882309F4D3C0823009F0E3C080919F02A8
:103DE0008111D6C08091A1028F702FEF280F26304D
:103DF00008F0D7C08093E9002091EB0020FFC8C0F5
:103E0000933031F48091EB0080628093EB00C0C06E
:103E10009091EB0090619093EB0021E030E001C0C5
:103E2000220F8A95EAF72093EA001092EA00809127
:103E3000EB008860EACF8111B4C010919F021F7718
:103E40008091E3008078812B8093E3008091E800EB
:103E5000877F8093E8000E94B81C8091E80080FF73
:103E6000FCCF8091E30080688093E30082E0111131
:103E700083E080939C0295C08058823008F091C006
:103E800080919F029091A0028C3D23E09207A1F5C2
:103E900083E08A838AE289834FB7F894DE01139620
:103EA00020E03EE051E2E32FF0E050935700E49130
:103EB00020FF03C0E295EF703F5FEF708E2F90E020
:103EC000EA30C0F0C7968D939D932F5F243159F748
:103ED0004FBF8091E800877F8093E8006AE270E03E
:103EE000CE0101960E94C71B8091E8008B778093DA
:103EF000E80057C0C096E7CF6091A1027091A2027E
:103F0000AE014F5F5F4F0E94071BBC01892B09F474
:103F100048C09091E800977F9093E80089819A814A
:103F20000E94251CE1CF8038E1F58091E800877F71
:103F30008093E800809198028093F10045CF811131
:103F400030C090919F02923060F58091E800877FA9
:103F50008093E800909398020E94B81C8091980288
:103F6000882311F084E005C08091E30087FDFACF3B
:103F700081E080939C020E94F11913C080919F02FE
:103F8000813079F481E0933009F080E080939A02E7
:103F90001092E9008091E800877F8093E8000E94FA
:103FA000B81C8091E80083FF0AC08091E800877FF9
:103FB0008093E8008091EB0080628093EB00AA96EA
:103FC000E3E00C9444200895CF9380919C028823D1
:103FD000A1F0C091E900CF709091EC00892F817021
:103FE00090FD80E8C82B1092E9008091E80083FDE5
:103FF0000E949C1ECF70C093E900CF91089597FB5B
:10400000072E16F4009407D077FD09D00E945020A7
:1040100007FC05D03EF4909581959F4F08957095CB
:1040200061957F4F0895EE0FFF1F0590F491E02DED
:1040300009942F923F924F925F926F927F928F924C
:104040009F92AF92BF92CF92DF92EF92FF920F9327
:104050001F93CF93DF93CDB7DEB7CA1BDB0B0FB631
:10406000F894DEBF0FBECDBF09942A8839884888EE
:104070005F846E847D848C849B84AA84B984C88484
:10408000DF80EE80FD800C811B81AA81B981CE0F7B
:10409000D11D0FB6F894DEBF0FBECDBFED01089560
:1040A000AA1BBB1B51E107C0AA1FBB1FA617B7075E
:1040B00010F0A61BB70B881F991F5A95A9F780957A
:1040C0009095BC01CD010895FB01DC0104C08D91E8
:1040D0000190801921F441505040C8F7881B990B7A
:1040E0000895F999FECF92BD81BDF89A992780B5C0
:1040F0000895A8E1B0E042E050E00C94A520262FFE
:10410000F999FECF92BD81BDF89A019700B40216CD
:1041100039F01FBA20BD0FB6F894FA9AF99A0FBE7B
:1041200008950396272F0E9480200E947F20252F2C
:104130000E948020242F0C9480200196272F0E941B
:1041400080200C947F20DC01CB01FC01F999FECF8B
:1041500006C0F2BDE1BDF89A319600B40D9241500F
:104160005040B8F70895F894FFCF0E050E053F05AF
:104170003F05CC05E8056E056E05F3057F068E0646
:104180008E06C01EE81ED11FE81ED11F1B1F3C1F3C
:06419000D11F931F9F1FC9
:104196000E02280850011E0A14012F19541933194A
:1041A600C419BF19321901E200E900EA00B500B6E8
:1041B60000B700CD008301CC008A01920194012151
:1041C60002230224022502260227022A02B300B491
:1041D600006F007000818283E200E900EA00B5000A
:1041E600B600B700CD008301CC008A01920194018C
:1041F6002102230224022502260227022A02B300F4
:10420600B4006F007000818283353637F567909170
:0A42160092939495963031323300F4
:00000001FF
