:100000000C9404020C943C020C943C020C943C02B0
:100010000C943C020C943C020C943C020C943C0268
:100020000C943C020C943C020C944C2A0C94202B13
:100030000C942D250C943C020C943C020C943C0234
:100040000C943C020C943C020C943C020C943C0238
:100050000C943C020C94CF250C943C020C943C0272
:100060000C943C020C943C020C943C020C943C0218
:100070000C943C020C943C020C943C020C943C0208
:100080000C943C020C943C020C943C020C943C02F8
:100090000C943C020C943C020C943C020C943C02E8
:1000A0000C943C020C943C020C943C022B00140077
:1000B0001A000800150017001C0018000C001200A0
:1000C00013002A00290004001600070009000A0096
:1000D0000B000D000E000F0033003400E1001D0086
:1000E0001B00060019000500110010003600370043
:1000F00038002800C35CE000E200E30002512C005D
:100100002C0001515000510052004F0035021E02D8
:100110001F022002210222022302240225022602BB
:1001200027022A004C003A003B003C003D003E0004
:100130003F002D022E022F0230023102010040004A
:1001400041004200430044004500320264024A007C
:100150004D000100005C01000100010001000100F0
:1001600001000100AB00AA00A900AE0035001E008E
:100170001F0020002100220023002400250026006B
:1001800027002A004C003A003B003C003D003E00A6
:100190003F002D002E002F003000310001004000F4
:1001A00041004200430044004500320064004B001F
:1001B0004E000100C45C01000100010001000100CB
:1001C00001000100AB00AA00A900AE00000101017E
:1001D0000101010101010202020202020202020304
:1001E00003030303030303040404040404040505D4
:1001F0000505050606060606070707070708080897
:1002000008090909090A0A0A0B0B0B0C0C0C0D0D45
:100210000D0E0E0E0F0F0F101011111112121313DD
:100220001414151516161717181819191A1A1B1B56
:100230001C1D1D1E1E1F20202122222324242526B2
:1002400026272829292A2B2C2D2D2E2F30313232EA
:10025000333435363738393A3B3C3D3E3F404142F6
:10026000434445464748494A4C4D4E4F50515354DC
:10027000555658595A5B5D5E5F6162646566686990
:100280006B6C6D6F7072737577787A7B7D7E808210
:10029000838587888A8C8E8F91939596989A9C9E59
:1002A000A0A2A3A5A7A9ABADAFB1B3B5B7BABCBE69
:1002B000C0C2C4C6C9CBCDCFD1D4D6D8DBDDDFE236
:1002C000E4E7E9EBEEF0F3F5F8FAFDFF1403540070
:1002D0006500630068006E0069006B002D004F0030
:1002E0000000180342006F00610072006400730098
:1002F0006F007500720063006500000004030904CC
:1003000009023B00020100A0FA09040000010301F8
:1003100001000921110100012240000705810308A5
:10032000000109040100010300000009211101007E
:1003300001227B0007058203200001120100020058
:100340000000087342790001000102000105010963
:1003500002A10185020901A1000509190129081559
:100360000025019508750181020501093009311543
:1003700081257F95027508810609381581257F95AD
:100380000175088106050C0A38021581257F950143
:1003900075088106C0C005010980A1018503190106
:1003A0002AB700150126B700950175108100C00518
:1003B0000C0901A101850419012AA002150126A03A
:1003C00002950175108100C005010906A10105070C
:1003D00019E029E7150025019508750181029501AD
:1003E000750881010507190029FF150026FF0095F2
:1003F0000675088100050819012905950575019103
:1004000002950175039101C011241FBECFEFDAE000
:10041000DEBFCDBF04B603FE18C0809102059091E7
:100420000305A0910405B09105058730904BA740C6
:10043000B04B59F410920205109203051092040576
:1004400010920505E0E0F8E3099512E0A0E0B1E0C4
:10045000EAEAFCE502C005900D92A838B107D9F789
:1004600025E0A8E8B2E001C01D92A230B207E1F792
:100470000E94AA110C941E2E0C94000081E0089595
:1004800081E008950C94400208950C9444021F9357
:10049000CF93DF9300D000D00F92CDB7DEB7498362
:1004A0005A836B8330918B0289819A8131111DC0EF
:1004B0006623B9F02223A9F00E943F08182F682F65
:1004C00089819A810E94EB0769817A81812F0F903F
:1004D0000F900F900F900F90DF91CF911F910C9480
:1004E0001A0F0E941708182FEFCF0E943F0869814A
:1004F0007A81EDCFFC01262F408151816281738189
:1005000084810C94470281E00895CF93DF93EC013E
:1005100060E00E947A02BE01DF91CF910C94450207
:100520000C944B100C944E1008950E9498060E9453
:1005300094022FEF84E39CE0215080409040E1F74B
:1005400000C000000C94F3250F931F93CF93DF930B
:100550008C0161E00E947A02EC01B8010E94420223
:100560008823D9F1B801CE010E94F5238823A9F18F
:10057000B801CE010E942222882379F1B801CE0170
:100580000E945F23882349F1B801CE010E945E21B9
:10059000882319F1F8018281882361F0CB35FDE5CC
:1005A000DF0721F170F4C115ECE5DE07A1F0CF3DC6
:1005B000DC45C9F0C801DF91CF911F910F910C94D8
:1005C0003E02CC358DE5D807A1F0CD35DD4591F75C
:1005D0000E94740CEFCF0E94950280E0DF91CF91D2
:1005E0001F910F9108950E942E0DF7CF0E947D0C50
:1005F000E1CF0E94800CDECF0E9411250E94F11CE9
:100600000E941C0381E00C9456200E941F0380E08E
:100610000E9456200C94152508950C940C0381E03B
:1006200008950C940F030895CF93C82F0E940D03D3
:100630008C2FCF910C94110380E00C9414030E9432
:1006400051240C9414030E94512490918A0298170B
:1006500021F080938A020C9414030895CF93DF93C2
:10066000CDB7DEB72B970FB6F894DEBF0FBECDBF68
:100670004F83588769877A878B8761110E94C20BE5
:100680001E821D8285E0FE013796DE0111960190E3
:100690000D928A95E1F78C819D81892B89F449819E
:1006A0005A816B817C818D819E810E94E30A2B9609
:1006B0000FB6F894DEBF0FBECDBFDF91CF91089586
:1006C00089819A8189238F3F51F3CE0101960E943F
:1006D00083028111E4CFEBCFFC01808191810C94E6
:1006E0008108CF93C82F882309F447C08CEF8C0F63
:1006F000813AA0F46C2F8091E4019091E5010E9471
:10070000B424882329F08C2F0E94840B0E94E20BD2
:100710008C2F0E947D0BCF910C94E20B80E28C0F0A
:10072000883048F4C77081E001C0880FCA95EAF7A5
:100730000E94A50BF0CFEBE5EC0FE33040F4F0E0C6
:10074000EC5CFD4F808190E0CF910C947624E8E53D
:10075000EC0FE73150F4F0E0EE0FFF1FEA5FFD4FC2
:1007600080819181CF910C948C24CD3E30F08C2FE0
:100770000E942E12CF910C940113CF9108958823DB
:1007800061F19CEF980F913A20F40E94840B0C9435
:10079000E20B90E2980F983050F4877091E001C01E
:1007A000990F8A95EAF7892F0E94AB0BF0CF9BE552
:1007B000980F933020F490E080E00C94762498E534
:1007C000980F973120F490E080E00C948C248D3EBB
:1007D00020F00E9488120C94011308951F93CF9368
:1007E000DF93182FEB010E947103209731F4812FC2
:1007F000DF91CF911F910C94BF038FE99FE0019788
:10080000F1F700C000002197F0CF70E060E089337D
:1008100011F460E570E00C94EE03882321F00E944F
:10082000A50B0C94E20B0895882321F00E94AB0BDA
:100830000C94E20B0895BF92CF92DF92EF92FF9259
:100840000F931F93CF93DF936C01D62FC72FFC011B
:100850001281F580F2949FE0F9220E949B0BE82E12
:100860008823B9F0E12E1123A1F08C2F807F8034F2
:1008700021F080E28D0F8830D0F08091280482FD35
:1008800016C082E00E94430C0E949B0B91E0E82E70
:10089000E926BC2EB2948FE0B822FBE0FB1508F4E9
:1008A00068C0EB2DF0E0E05EF14D0C941C2DE12CC6
:1008B000F0CF0C2F0F70C07F11F00295007F112335
:1008C00099F0002359F080E28D0F883010F0D1119B
:1008D00007C0802F0E94A50B0E94E20B8D2F41C004
:1008E000802F0E94B50BF8CF8D2F0E94BF030023ED
:1008F00009F43FC080E28D0F883010F0D11104C0A0
:10090000802F0E94AB0B03C0802F0E94BB0B0E9464
:10091000E20B2FC00C2F0F70C07FC03211F0029578
:10092000007FDD2381F0D13009F469C0112309F47F
:1009300073C0FF2009F469C0F601858180FFCECF26
:100940008F70858362C08091280482FF38C0112394
:1009500059F0002329F0802F0E94A50B0E94E20B82
:1009600080E00E94710305C080E00E94BF03011176
:10097000C7CFEB2DE850FF0B349720F40E94512491
:100980000E941403EE2009F472C10E94970B80FDAF
:100990006EC1F60112820E94910B0E944F07C601A0
:1009A0000E9458060E94910BDF91CF911F910F91E9
:1009B000FF90EF90DF90CF90BF900C9470071123C1
:1009C00089F0F11006C00E94C50B802B0E940D0417
:1009D000D0CF21E0F212F7CF0E94C50B802B0E94EE
:1009E000CB0BC7CFF11006C00E94D80B802F0E94FE
:1009F0001404BFCF31E0F31609F4BBCFF5CF1123B8
:100A000031F085E08F1508F4B4CF802FDFCF94E06C
:100A10009F1508F4AECFEACFFF2041F3D93349F454
:100A2000FFEF27EE33E0F15020403040E1F700C007
:100A300000008D2F0E94BF039CCF8C2F869586953A
:100A4000837069F0813009F094CF8D2F9C2F9370C3
:100A5000111102C090E080E00E948C248ACF8D2F7B
:100A60009C2F9370111102C090E080E00E947624C8
:100A700080CF8D2F112329F00E942E120E94011386
:100A800078CF0E948812FACF8C2F837009F041C072
:100A900011116FCF4D2F429546954770440F440F6B
:100AA0000D2F0F7010E030E020E0042E04C0000F86
:100AB000111F221F331F0A94D2F760E070E0CB01B0
:100AC000D4FF0FC06FE070E080E090E004C0660FDC
:100AD000771F881F991F4A95D2F76095709580956A
:100AE0009095C695C695C370602B712B822B932B66
:100AF000C23049F058F4C13019F00E94010739CFD3
:100B00000E94EF0636CF0E94130733CF0E94ED06F6
:100B100030CF8695112311F08C2F8170882309F432
:100B200028CF4D2F429546954770440F440F0D2F07
:100B30000F7010E030E020E0042E04C0000F111F01
:100B4000221F331F0A94D2F760E070E0CB01D4FF7C
:100B50000FC06FE070E080E090E004C0660F771F88
:100B6000881F991F4A95D2F760957095809590954A
:100B7000C695C695C370602B712B822B932BC23008
:100B800049F058F4C13019F00E94C607F2CE0E9415
:100B9000B407EFCE0E94D807ECCE0E942907E9CE19
:100BA000CF70112329F08C2F0E944F078D2F0ECF6D
:100BB0008D2F0E9414048C2F0E947007DACED23F32
:100BC00051F160F4D03FB9F0D13F81F0112309F425
:100BD00049C0F11083CE8C2F8F7121C0D33F11F10A
:100BE000D43FA1F78091280482FF26C08C2F8F71FB
:100BF000112311F314C0112349F084E08F1508F478
:100C0000B8CE8C2F8F710E949307B3CE95E09F15BD
:100C100008F4AFCEF6CF8C2F8F711111CDCF0E947B
:100C20004F07A7CE112329F08C2F8F710E943A070E
:100C3000A0CE0E9435079DCE112349F0CF718C2F95
:100C40000E944F0763E08C2F0E94280C92CE81E017
:100C50000E94430CE1E0EF1508F08BCE82E00E9489
:100C6000430C87CEF110DACE8C2F8F71A5CFDF9198
:100C7000CF911F910F91FF90EF90DF90CF90BF9099
:100C800008950F931F93CF93DF93EC0168817981CF
:100C90008A810E948B088C010E94EA070E94EC0660
:100CA000B801CE01DF91CF911F910F910C941B04DD
:100CB000CF93DF93EC018B819C81892B29F0888174
:100CC000998189238F3F59F4DF91CF910895CE0107
:100CD0000E944106CE01DF91CF910C948502CE0196
:100CE0000E94A4028111F3CF0E949B0B882361F321
:100CF0008A81882349F38091280482FDE5CF82E030
:100D0000DF91CF910C94430C90E080E00E94762418
:100D100090E080E00E948C240E94C20B0E94E20BB3
:100D20000E9428140C9401130E948B0B0C948406CF
:100D30000E94B20B0C94940692959F70963091F09D
:100D400058F4925F9F70923058F4803F19F030F45D
:100D5000883E30F481E008959A5FF4CF843FD1F368
:100D600080E00895883EB0F3813FD1F7F3CFFC01D6
:100D7000808191810E9481080C949C06CF93DF931F
:100D800000D000D00F92CDB7DEB70F900F900F902C
:100D90000F900F90DF91CF910895CF93DF9300D004
:100DA00000D000D0CDB7DEB726960FB6F894DEBFE0
:100DB0000FBECDBFDF91CF91089508950C94DD064D
:100DC0000E94DE066093AE027093AF028093B00281
:100DD0009093B1020C94840608950C94E0060F934E
:100DE0001F930091AE021091AF022091B00230919A
:100DF000B102602B712B822B932B1F910F910C94BE
:100E0000E0060F931F930091AE021091AF02209164
:100E1000B0023091B10260237123822393231F918A
:100E20000F910C94E0060F931F930091AE02109166
:100E3000AF022091B0023091B10260277127822762
:100E400093271F910F910C94E0060C94DD060C94EF
:100E500025070E9427076093AA027093AB02809334
:100E6000AC029093AD020C94840660E070E0CB017C
:100E70000C9429070F931F9341E050E060E070E06D
:100E80008A019B0104C0000F111F221F331F8A9586
:100E9000D2F7C901B8011F910F910C9429070F9344
:100EA0001F9341E050E060E070E004C0440F551F24
:100EB000661F771F8A95D2F78091AA029091AB02A4
:100EC000A091AC02B091AD028A019B01082B192BB5
:100ED0002A2B3B2BC901B8011F910F910C942907B4
:100EE0000F931F9341E050E060E070E004C0440FB6
:100EF000551F661F771F8A95D2F7CB01BA016095FF
:100F00007095809590950091AA021091AB02209166
:100F1000AC023091AD0260237123822393231F9191
:100F20000F910C9429070F931F9341E050E060E06C
:100F300070E004C0440F551F661F771F8A95D2F7D3
:100F40008091AA029091AB02A091AC02B091AD0247
:100F50008A019B01082719272A273B27C901B801C5
:100F60001F910F910C9429070F931F930091AA02D0
:100F70001091AB022091AC023091AD02602B712B2D
:100F8000822B932B1F910F910C9429070F931F9382
:100F90000091AA021091AB022091AC023091AD02F7
:100FA00060237123822393231F910F910C942907AF
:100FB0000F931F930091AA021091AB022091AC02F3
:100FC0003091AD0260277127822793271F910F91DF
:100FD0000C94290708952CE0929F800D1124982FDE
:100FE000977041E001C0440F9A95EAF7869586957F
:100FF000869595E0899FF0011124E457FD4F90E01C
:1010000080E070E05191DF0111979B01082E02C032
:10101000369527950A94E2F72170219525272423F8
:1010200025272C9301968530910561F708952CE0D2
:10103000929F800D1124982F97708695869586959E
:1010400025E0829FF0011124E457FD4F50E040E07D
:1010500080E0219130E0092E02C0369527950A9450
:10106000E2F721703327042E01C0220F0A94EAF719
:10107000822B4F5F5F4F4530510559F70895BF925E
:10108000CF92DF92EF92FF920F931F93CF93DF9354
:101090008C01C090AA02D090AB02E090AC02F0901C
:1010A000AD028091AE029091AF02A091B002B091DA
:1010B000B102C82AD92AEA2AFB2ACFE1D0E0BC2E05
:1010C000D701C6010C2E04C0B695A79597958795B4
:1010D0000A94D2F780FD0EC0219788F7B12C8B2D92
:1010E000DF91CF911F910F91FF90EF90DF90CF9004
:1010F000BF900895B8018C2F0E942E0F019761F3C5
:10110000EECFCF93DF93EC010E943F08BE01DF9149
:10111000CF910C942E0F1F93CF93DF93EB019091FF
:101120008B02992331F0CB01DF91CF911F910C9469
:101130008108882379F0CB010E943F08182F682F7F
:10114000CE010E94EB07BE01812FDF91CF911F914D
:101150000C942E0FCB010E941708182FF4CF1F9369
:10116000CF93DF93C091B20216E08091B3028C134B
:1011700004C0DF91CF911F910895D0E01C9FF00132
:101180001D9FF00D1124EC54FD4F4081518162816F
:101190007381848195810E94CD062196C770E5CF29
:1011A0004091E4025091E5026091E6027091E702FD
:1011B0008091E8029091E9020C94CD06FF920F9382
:1011C0001F93CF93DF938091E902807FD1F48091C8
:1011D000E6028823B1F08091B2021091B3026091CF
:1011E000E4027091E502A091E702B091E802062FB7
:1011F0000723C091E201D091E30196E0F92E181384
:1012000006C0DF91CF911F910F91FF90089590E05C
:10121000109711F00F3F19F401968770F0CFF89EE8
:101220009001F99E300D1124F901EC54FD4F4181DC
:101230004713F2CF40814613EFCF42814111ECCFEB
:10124000438154814A1B5B0B4C175D0728F7809143
:10125000E9028F7080618093E902F901E754FD4F44
:1012600080818F708061808384EE92E00E945806B6
:10127000DF91CF911F910F91FF900C94AF08AF9227
:10128000BF92CF92DF92EF92FF920F931F93CF9373
:10129000DF93CDB7DEB761970FB6F894DEBF0FBE10
:1012A000CDBF8C0185E0F801DE011D9601900D9205
:1012B0008A95E1F7F801E28084EEC82E82E0D82E0C
:1012C0006091E7027091E8026115710509F45FC150
:1012D0009091E4022091E502892F82238F3F09F447
:1012E00056C140815181A380B480F090E602F5019F
:1012F000E61BF70BBF01E091E201F091E301FF2053
:1013000009F4F6C08091E902382F307F6E177F070D
:1013100008F0AFC0311179C0FE2C251323C09413FF
:1013200021C0E1101FC08F7080618093E9020E948C
:10133000D008C6010E9458068091E902F801858311
:101340008F2D61960FB6F894DEBF0FBECDBFDF9133
:10135000CF911F910F91FF90EF90DF90CF90BF90B2
:10136000AF900895AB2829F0842F85238F3F09F093
:1013700027C180E0F82FF170DF2E80FF3CC0809104
:10138000B2022091B30236E0821315C04D875E870A
:101390008D859E850E948108292F22952F702230ED
:1013A000F0F0243018F59F70F1F0F8019581907FEE
:1013B000D1F4D12C1EC090E0389FF001399FF00D80
:1013C0001124EC54FD4F6181651306C060816413E4
:1013D00003C062816E110FC001968770D5CF9F70D8
:1013E00011F0882331F3805E883018F3C8010E9421
:1013F0005806FD2CA5CFEE2009F4A2CF8091E9027A
:1014000081608093E902F12C9BCF251306C09413D1
:1014100004C0F801EE2009F487C0C8010E94B70695
:10142000882319F1EE2009F18091E902803270F0F1
:101430002091E4023091E50238872F831986BB861C
:10144000AA868C87CE0107960E94580686E0F8018E
:10145000A4EEB2E001900D928A95E1F70E94DE08B9
:101460000E94D008FF24F3946BCFC8010E94580655
:10147000F9CF311113C07A2DB98AA88A6E2D8989C6
:101480000E94BE0684EE92E00E94580686E0F601B5
:1014900011928A95E9F70E94D008B5CF25130FC0A5
:1014A00094130DC0E1100BC0F8018583C8010E94A0
:1014B000580686E0F60111928A95E9F741CFC801F6
:1014C0000E94B706882389F2EE2079F28091E90222
:1014D000803208F4BBCF2091E4023091E5023A83D8
:1014E00029831B82BD82AC828E83CE010196ACCF54
:1014F0006E177F0708F03EC0FE2CEE2009F4B5CF32
:1015000025132AC0941328C08091E90280FD1BC0D6
:10151000982F907FC1F0F8018583903F31F0982F8C
:10152000907F905F8F70892B8583C8010E94580639
:1015300086E0F801A4EEB2E001900D928A95E1F701
:101540000E94D008FDCE86E0F801A4EEB2E0019042
:101550000D928A95E1F7F4CEC8010E94B706811179
:1015600075CF8091E90281608093E902C8010E94F1
:101570005806E6CE7A2DB98AA88A6E2D89890E94EE
:10158000BE0686E0F60111928A95E9F7D9CFEE20E2
:1015900009F46BCFC8010E94B706F82E882309F41E
:1015A00064CF86E0F801A4EEB2E001900D928A9536
:1015B000E1F784EE92E00E946C030E94DE08C0CF47
:1015C00081E08E25D7CE1F93CF93DF93CDB7DEB7C3
:1015D0002C970FB6F894DEBF0FBECDBF4F83588750
:1015E00069877A878B879C87CE0107960E943F097F
:1015F000882369F08A859B85892B39F04F8158852E
:10160000842F85238F3F09F071C016E05FC086E00C
:10161000FE013796DE01119601900D928A95E1F751
:101620008A859B85892B89F388859F8189238F3FB4
:1016300061F32091B30230E0C901019687709927C8
:101640004091B2024817190671F40E949806109250
:10165000B3021092B20286E0E4EEF2E0DF011D92E6
:101660008A95E9F7D2CF96E0929FD001939FB00D73
:101670001124AC54BD4FFE01319601900D929A9504
:10168000E1F78093B3020E94AF08BFCF819FC001F2
:1016900011248C549D4F0E943F098823E9F0E0916A
:1016A000B2021E9FF0011124EC54FD4F4081518184
:1016B00062817381848195810E94CD068091B202FE
:1016C00090E00196877099278093B2028091B202D0
:1016D0009091B3028913DACF2C960FB6F894DEBF3F
:1016E0000FBECDBFDF91CF911F91089569857A8597
:1016F0008B859C850E94CD0688CF682F8091E40160
:101700009091E5010C94EA24682F8091E401909176
:10171000E5010C94EC248091E4019091E5010C9496
:10172000EE248091F20285958595859508958091A6
:10173000F202877008959091F202977081E009F4A7
:1017400080E008958091FD0208959091FD02892B1B
:101750008093FD02089580959091FD0298239093C7
:10176000FD0208951092FD0208959091FC02892BCC
:101770008093FC02089580959091FC0298239093A9
:10178000FC0208951092FC0208958091F3020895DE
:1017900008950C94C80B9091280492FD08C0909174
:1017A000F302981721F08093F3020C94C90B08956B
:1017B0008091F302882329F01092F30280E00C94C8
:1017C000C90B0895CF93DF93E091E401F091E50117
:1017D0008091FD028083E091E401F091E501808138
:1017E0009091FC02892B80839091F302992381F0E0
:1017F000E091E401F091E5018081892B8083809163
:10180000E4019091E5010E94A22481110E94D80B6D
:10181000C091E401D091E50148E050E06AEE72E049
:10182000CE010E947E2D892B69F088E0FE01AAEE90
:10183000B2E001900D928A95E1F7CE01DF91CF9150
:101840000C945D24DF91CF91089508950C94250C9C
:101850009091280492FD10C098E0899F9001112476
:10186000622B6093F2020E944F078091F2028595ED
:10187000859585950C94260C0C944F071092F202D6
:1018800080E00C94260C9091F2028095892380933D
:10189000F202282F277091F4282F082E000C330B0A
:1018A0009217130659F09091280492FD07C0859570
:1018B000859585950E9470070C943E0C0895909133
:1018C000280492FB222720F9281769F080FB92F95F
:1018D0009093280480912704909128040E94AA0CD8
:1018E00082E00C94430C08958091280482FB8827A1
:1018F00080F991E089270C945F0C81E00C945F0CD7
:1019000080E00C945F0C6FEF7FEF90E080E00C9430
:10191000D72D90E080E00E94A32D21E0893E9E4FCC
:1019200009F020E0822F089582E090E00C949B2D36
:1019300083E090E00C949B2DCF9384E090E00E9494
:101940009B2DC82F82E290E00E949B2D982F8C2F18
:10195000CF910895CF93C92F682F84E090E00E9423
:10196000B92D6C2F82E290E0CF910C94B92DAB0190
:10197000BC018FE090E00C94CB2DAB01BC0183E166
:1019800090E00C94CB2D60E070E0CB010C94BD0C8A
:1019900060E070E0CB010E94B70C0C94C30C69EEC0
:1019A0007EEF90E080E00E94D72D60E082E090E042
:1019B0000E94B92D60E083E090E00E94B92D109262
:1019C000AE021092AF021092B0021092B10260E02B
:1019D00084E090E00E94B92D60E082E290E00E94F5
:1019E000B92D60E085E090E00E94B92D60E086E0CE
:1019F00090E00E94B92D6FEF87E090E00E94B92D32
:101A000040E050E0BA0188E090E00E94CB2D60E019
:101A10008DE090E00E94B92D40E050E0BA0188E1ED
:101A200090E00E94CB2D60E087E190E00E94B92D0C
:101A300040E050E0BA018CE190E00E94CB2D70E0D4
:101A400060E080E290E00E94D72D40E050E0BA01D3
:101A500088E190E00E94CB2D0C94C80C0C94CF0C24
:101A6000682F8EE090E00C94B92D0E949825609329
:101A70000A0370930B0380930C0390930D03609300
:101A80000603709307038093080390930903089556
:101A900085B7806885BF85B7806885BF089508953C
:101AA00008950C94500D08950C94530D0E94480D08
:101AB0008CE090E10E9447240E944F0D0C94510D40
:101AC00081E008950C94600D089508950E94640DBE
:101AD0000C94650D0E9426100E9413030C9438206C
:101AE0000E9483250E9404110E946A0D0C94540DDB
:101AF0005F926F927F928F929F92AF92BF92CF929E
:101B0000DF92EF92FF920F931F93CF93DF93CDB7A6
:101B1000DEB72A970FB6F894DEBF0FBECDBF0E9486
:101B20001911E82E81110E94350D3EEF832E32E00F
:101B3000932E10E000E0502E802F0E9450105C0188
:101B4000F401619071904F0168167906B1F40F5F4E
:101B50001F4F0430110579F78FEF89838A831B8229
:101B60000E948C258160782F9D838C8349815A81C6
:101B70006B818D810E942E033CC080910E0381FDFC
:101B80000E945910F12CCC24C394D12C6A247B24BC
:101B9000C3018C219D21892B09F445C00E94620D4F
:101BA00095012C213D21BB24B394232B09F4B12CA6
:101BB000882379F0FE825F82B8860E948C2581603E
:101BC000782F9A8789874E815F8168858A850E94F0
:101BD0002E03000F111FF801E250FD4F808191810B
:101BE000C826D926D182C0824B2D6F2D852D0E940B
:101BF000D01C81E0E11001C080E02A960FB6F89475
:101C0000DEBF0FBECDBFDF91CF911F910F91FF902F
:101C1000EF90DF90CF90BF90AF909F908F907F908C
:101C20006F905F900895F394CC0CDD1CFCE0FF12E4
:101C3000AFCF8DCF0E94780D0E94F11C0E941C1323
:101C40000C942303CF93DF930E94320FEC01811594
:101C500021E5920708F042C0811530E5930708F0AE
:101C60009DC0883E910530F5803E910508F092C0F8
:101C7000883A910588F4853A910508F084C081304E
:101C8000910509F487C0009709F484C0049708F00F
:101C900081C0D0E0C0E07EC08F3B9105D0F7C85A2C
:101CA000D0E0CC0FDD1FC95CDD4F0990D881C02D7D
:101CB000D46470C08115904250F4C11581E0D807FA
:101CC00008F068C0CD3ED10520F3D06563C0C115D2
:101CD00090E4D907F0F2DF70D06A5CC0811525E589
:101CE000920700F5811534E5930708F08BC0811544
:101CF00043E5940708F073C0C11582E5D80708F4DE
:101D000069C0CE018370992721E030E002C0220F24
:101D1000331F8A95E2F7C695C69580E2C89FE00119
:101D2000112454C0C11599E5D907A8F4C11528E5B7
:101D3000D20708F06CC0C11536E5D30708F0A9CF6B
:101D40008C2F0E94C90FC82FD0E0DC2FCC27CC27C6
:101D5000DF71D0621FC0C1154AE5D40708F45CC02A
:101D6000CE0190568115904208F093CF8D2F8F7140
:101D70000E94C90F90E0982F882788279F719C01A7
:101D80002C2BE901E6CFC55AD0E0CB59DD4FC881F5
:101D9000D0E0D064CE01DF91CF910895E4E0969534
:101DA0008795EA95E1F783702C2F26952695237069
:101DB00040E2249F90011124382B8C2F8370C1E0C6
:101DC000D0E002C0CC0FDD1F8A95E2F7C22BD32BE7
:101DD000DC68E0CFDC2FCC27C16FD06ADBCF83700B
:101DE000992721E030E002C0220F331F8A95E2F7E5
:101DF000C695C69590E2C99FE0011124C22BD32B52
:101E0000DA68C8CFD82FCC27C46FD06AC3CFDC2FF5
:101E1000CC27C06FD06ABECF8C2F8F700E94C90FA5
:101E200034E0D695C7953A95E1F7CF709C2FEC0139
:101E3000D069B0CF972F70E02CE0929F600D711D9C
:101E40001124FB0190E3899FE00DF11D1124EE0F99
:101E5000FF1FE455FF4F8591949108950E941A0F3A
:101E60000C94220E82389105B1F1B0F481339105C2
:101E700009F475C048F48932910509F469C08A32C1
:101E8000910509F473C008958533910509F459C08B
:101E90008933910501F10895833E9105A9F138F444
:101EA000803E9105F9F0823E910549F10895863E04
:101EB0009105A9F1873E9105C9F1843E910519F577
:101EC0002091280421FF1FC08091270484FD14C0A5
:101ED00087EE90E00895209127042370A1F080EE12
:101EE00090E008952091270420FD47C030912804F8
:101EF00030FF09C024FF44C090E080E004C020917E
:101F0000270422FDF7CF08952091270422FD3BC02E
:101F10003091280430FDE3CF24FFF5CFEDCF2091A1
:101F2000270423FFF0CF24FDE7CFD2CF2091270451
:101F300023FD2CC03091280431FFEECF84EE90E0D9
:101F400008952091270425FFDECF89E290E00895CF
:101F50002091270425FFD7CF85E390E008952091B5
:101F6000270426FFD0CF8AE290E00895209127042D
:101F700026FFC9CF81E390E0089589E390E00895BA
:101F800083EE90E0089582EE90E0089586EE90E072
:101F900008959091270492FF06C0282F28712830B9
:101FA000F9F4877F846093FF06C0282F28712831B9
:101FB000F1F4877E84612091280420FF06C0382F29
:101FC00038713830D9F4877F816021FF06C0282F0F
:101FD00028712831D1F4877E816194FD877E089530
:101FE000282F24712430F9F68B7F8860DCCF282FCE
:101FF0002471243101F78B7E8861DDCF382F317158
:10200000313019F78E7F8860E0CF282F2171213180
:1020100021F78E7E8861E1CF80E008950C94830CD7
:102020000E9419118FE39CE90197F1F700C00000AD
:102030000E94191180E00E94501080FF04C00E948D
:102040000E100C94F32508950C9410100E94890C26
:10205000811102C00E942E0D0E94940C80930E03E9
:102060000E949C0C90932804809327040E942410C3
:102070000E94980C682F70E090E080E00E94ED06CE
:102080006091AA027091AB028091AC029091AD0276
:102090000C94270708950C944A1008950C944D1041
:1020A000E82FF0E0EE0FFF1FEF5CFB4F8081918186
:1020B0000895089580EA8A95F1F7089500C008957B
:1020C0000C945A10F894E82FE295EF70F0E031A1EB
:1020D000282F2F7081E090E001C0880F2A95EAF741
:1020E000982F9095932391A392A1892B82A3789402
:1020F0000895CF93DF9380E30E94621081E30E94F2
:10210000621082E30E94621083E30E946210C8E6BC
:10211000D2E089918F3F11F00E94621082E0C437B3
:10212000D807B9F7DF91CF910895AF92BF92DF92B0
:10213000EF92FF920F931F93CF93DF938C01D62ED4
:10214000C62FD0E0CE018C589D4F7C01FC01208130
:102150002F3F09F44CC0F894E22FE295EF70F0E0C5
:1021600031A12F7081E090E001C0880F2A95EAF735
:10217000932F982B91A392A18095892382A3789481
:102180000E945E10E8E6F2E041E050E0B12CA12CA4
:1021900021912F3FB1F1A22FA295AF70B0E09096A0
:1021A0008C9190E02F7002C0959587952A95E2F763
:1021B00080FD27C0CA01A82AB92A440F551F82E012
:1021C000E437F80729F7F70180818F3F11F00E946B
:1021D000621061E0A114B10409F460E08D2D0E9449
:1021E0006010CC0FDD1FC00FD11FB982A882DF9114
:1021F000CF911F910F91FF90EF90DF90BF90AF9024
:10220000089590E080E0D7CF0E94791088E0E1E364
:10221000F4E0DF01982F1D929A95E9F7E9E2F4E0E6
:10222000DF011D928A95E9F784E00E9464110C9405
:102230009002FF920F931F93CF93DF93CDB7DEB73A
:1022400028970FB6F894DEBF0FBECDBF8E010F5F8B
:102250001F4F88E0F80111928A95E9F7F12C6F2D54
:10226000C8010E949510F394F4E0FF12F8CF48E003
:1022700050E0B80189E294E00E947E2DFF24F3949F
:10228000009709F4F12C892B41F088E0F801A9E2CC
:10229000B4E001900D928A95E1F72F2D44E061E3BF
:1022A00074E089E294E00E9465110E9492028F2DF1
:1022B00028960FB6F894DEBF0FBECDBFDF91CF9149
:1022C0001F910F91FF9008950895FF920F931F9310
:1022D000CF93DF93F82E092F162FD72FC42F222349
:1022E00049F081E0809311030E948C2590931003A4
:1022F00080930F03809111038823A1F080910F0335
:10230000909110030E94A425059760F0EF2DF02F07
:10231000A12FBD2F90E080E0D0E08C179D0744F006
:1023200010921103DF91CF911F910F91FF900895AB
:10233000219131912D933D930196EFCF0E94A627D5
:102340000E94700D0C94B2270E94B6270E941A0EAC
:102350000C94D0270E942C250E948D270E94560D98
:102360000E949E110E94A4110E94660DFBCF8091D5
:10237000180380FF0DC06091EB0170E0660F771FBE
:102380006038710570F56115710569F1862F089542
:1023900081FF07C06091EB0184E0689FB0011124C8
:1023A000EFCF6091EB0182FD0AC080911703882373
:1023B000A9F02091EA016091EB01821710F088E00A
:1023C000ECCF869FC001112433E0880F991F3A9506
:1023D000E1F7622F70E00E94E62CD2CF68E070E057
:1023E000D5CF8FE7089581E008958091180380FF8D
:1023F0000CC06091E70170E07595679575956795DC
:102400006115710549F1862F089581FF06C060911D
:10241000E70170E075956795F3CF6091E70182FD64
:102420000BC0909116039923A1F06091E601809171
:10243000E701961738F0682F70E06038710500F3F7
:102440008FE70895899FC001112470E00E94E62C57
:10245000F4CF61E070E0D7CF81E008958D3E31F494
:102460000E94B711819580931C0308958E3E19F444
:102470000E94B711F8CF8F3E31F40E94B7118195B9
:1024800080931B030895803F19F40E94B711F8CF81
:10249000893F29F40E94F51180931D0308958A3F16
:1024A00021F40E94F5118195F7CF8B3F31F40E9402
:1024B000F511819580931E0308958C3F19F40E94B5
:1024C000F511F8CF9FE0980F983070F4815F990B69
:1024D00021E030E001C0220F8A95EAF780911A03CB
:1024E000822B80931A0308958D3F31F48091180355
:1024F00081608093180308958E3F21F48091180322
:102500008260F7CF8F3FB9F7809118038460F1CFD5
:1025100040911B038D3E59F480911C0387FF0DC031
:1025200010921C0341110BC01092170308C08E3E7D
:1025300081F480911C0318169CF3442381F0809150
:102540001D0390911E03892B09F05AC010921603A7
:1025500008958F3E49F447FFF0CF10921B038091FE
:102560001C038111ECCFE0CF803F19F41416ACF3BB
:10257000E4CF90911D03893F29F41916F4F61092C7
:102580001D03DBCF8A3F19F497FFD7CFF8CF909187
:102590001E038B3F29F497FFD0CF10921E03CDCF9F
:1025A0008C3F19F41916CCF3C8CF9FE0980F9830E0
:1025B00090F4815F990B21E030E0B90102C0660F11
:1025C000771F8A95E2F7CB01809590911A038923B2
:1025D00080931A03B2CF8D3F31F4809118038E7F20
:1025E00080931803AACF8E3F21F4809118038D7F2A
:1025F000F7CF8F3F09F0A1CF809118038B7FF0CFE9
:1026000008950E948C259C0190911B0380911C03CE
:10261000982B21F0309315032093140390911D0300
:1026200080911E03982B21F0309313032093120303
:1026300089E193E00C946824EF92FF920F931F932B
:10264000CF93DF9300D000D000D0CDB7DEB786E0C7
:10265000E9E1F3E0DE01119601900D928A95E1F730
:10266000E0901B03F0901C0300911D0310911E03CA
:1026700010921B0310921C0310921D0310921E0354
:102680008E2D8F2991F080911403909115030E9453
:10269000A425AC0190911703992309F43FC08091C0
:1026A000EC018417150608F447C0802F812B91F0A8
:1026B00080911203909113030E94A425AC01909184
:1026C0001603992309F477C08091E8018417150651
:1026D00008F47FC080911B0390911C03892B90917B
:1026E0001D03892B90911E03892B11F00E94011369
:1026F00086E0FE013196A9E1B3E001900D928A9542
:10270000E1F726960FB6F894DEBF0FBECDBFDF917E
:10271000CF911F910F91FF90EF9008952091ED01BF
:102720008AE0289F900111242417350708F0BDCFB7
:102730009F5F9093170302C09F3FD1F7EE2059F09F
:102740000E94B7119FEF1E140CF491E0899F802D19
:10275000112480931B03FF2059F00E94B7119FEFB3
:102760001F140CF491E0899F802D112480931C0389
:1027700030911B03332309F498CF20911C032223AB
:1027800009F493CF45EB3403C0011124992359F088
:1027900090931B0345EB240390011124332339F05C
:1027A00030931C0382CF81E080931B03F3CF81E041
:1027B00080931C037ACF2091E9018AE0289F900141
:1027C00011242417350708F085CF9F5F90931603D7
:1027D00002C09F3FD1F7002359F00E94F5119FEFEF
:1027E00010160CF491E0899F802D112480931D0315
:1027F000112359F00E94F5119FEF11160CF491E08E
:10280000899F802D112480931E0330911D03332353
:1028100009F460CF20911E03222309F45BCF45EB1E
:102820003403C0011124992359F090931D0345EB03
:10283000240390011124332339F030931E034ACF2F
:1028400081E080931D03F3CF81E080931E0342CF8C
:1028500086E0E9E1F3E0DF011D928A95E9F7109245
:10286000170310921603109218030895EF92FF9227
:102870000F931F93CF93DF93EB01E82FD11110C07B
:10288000442321F0F0E0E453FE4FE4916E2F7E2FBD
:102890008E2FDF91CF911F910F91FF90EF900895B0
:1028A0000D2F10E0282F30E0442329F024533E4F11
:1028B000F901249130E0F6E0CF9FC0011124EFEF41
:1028C000F0E0BF010E94D22CAB018C2F90E0880F6A
:1028D000991FA5E5A49FB001A59F700D1124861B2B
:1028E000970B982F990F980FBF01601B710B629F78
:1028F000D001639FB00D729FB00D11248B2F9D9F4F
:10290000B0011124672F7727EF01C61BD70BBE013B
:10291000629FE001639FD00D729FD00D11247F0153
:10292000E91AF108E09EB001E19E700DF09E700D75
:102930001124672F7727E61BF70BE29F8001E39FA7
:10294000100DF29F100D1124E12F722F423051050E
:1029500099F048F44115510569F04130510581F075
:10296000EB2F8D2F07C04430510569F080F04630C1
:102970005105B1F76E2F8DCFE22F7B2F812FFACF2C
:10298000E22F7D2FF7CFEB2F822F712FF3CF7B2FED
:10299000822FED2FEFCF41E00C94361430E020E091
:1029A000869F212D969F200D311D1124C901089568
:1029B000AC018230910508F408959FEF413E8EE10D
:1029C000580740F49A0195E0369527959A95E1F7D6
:1029D00098E0920F61E0E62FE90FFF27FF1F9F01AC
:1029E00035952795822F229FF001239FF00DF00D42
:1029F00011244E175F0738F49FEF920F961758F780
:102A00008FEF860F08952F3FE9F361E0620FF6CF55
:102A10004091F4015091F50125E038E0429FC0015A
:102A2000439F900D529F900D1124875E994C909377
:102A3000F5018093F401890F0895E82F86FDE09554
:102A40002E2F2F7086FD2F5FE695E695E695E670B2
:102A5000F0E0E858FD4F9181929F902D212D112497
:102A600092959F702295207F922B2081920F87FD57
:102A7000919580E8890F0895E42FF0E0EE0FFF1F95
:102A8000EC5CFE4F408134EE439F412D1124E72F33
:102A9000F0E050E0445E5F4FDA01A21BB1099D01F6
:102AA000B7FF03C031952195310993E0220F331F01
:102AB0009A95E1F7AF01421B530B9A0157FD20E0B5
:102AC000279F212D1124722F0895E42FF0E0EE0F9F
:102AD000FF1FEC5CFE4F408134EE439F412D1124DB
:102AE000E82FF0E050E0445E5F4FDA01A21BB1092D
:102AF0009D01B7FF03C031952195310993E0220F65
:102B0000331F9A95E1F7AF01421B530B9A0157FD12
:102B100020E0582F259F212D1124822F0895622F08
:102B20000895E42FF0E0EE0FFF1FEC5CFE4F608194
:102B3000621B0895E42FF0E0EE0FFF1FEC5FFE4FE5
:102B400061A9621B0895322F50E0FA01EE0FFF1FBA
:102B5000EC5FFE4F91A9905297FD9195440F551F40
:102B6000FA01EC5CFE4F2081231B330B290F311D32
:102B700097FD3A95620F0895EF920F93972F23E0F8
:102B8000029FB0011124759567956E0D792F0F91F5
:102B9000EF9008950F93CF93DF93D72FC82F47FD62
:102BA000419588E390E0841B910947FD9395889FA8
:102BB000B001899F700D700D1124229FC001239FC9
:102BC000900D900D1124860F971F0E94D814982FF6
:102BD000990F890F682F600F7D2F8C2FDF91CF9178
:102BE0000F9108950F931F93522F10E0F801EE0FED
:102BF000FF1FEC5FFE4FA1A9A052BB0B9D0152032A
:102C0000F001539FF00D1124000F111FD801AC5C8F
:102C1000BE4F0C910057110B40039001419F300DA6
:102C200011242E0F3F1F37FF02C021583F4F220FA4
:102C3000232F221F330B620F1F910F9108950F93C3
:102C40001F93522F10E0F801EE0FFF1FEC5FFE4FB5
:102C5000A1A9A052BB0B9D015203F001539FF00D9F
:102C60001124000F111FD801AC5CBE4F0C9100570E
:102C7000110B40039001419F300D11242E0F3F1F77
:102C800037FF02C0215C3F4F96E0359527959A9516
:102C9000E1F7620F1F910F9108950F931F9310E0BA
:102CA000F801EE0FFF1FEC5CFE4F9081905797FDEF
:102CB0009195000F111FF801EC5FFE4F01A9005222
:102CC000110B2003F001219FF00D112408E310E007
:102CD000091B110997FD139540039001419F300D89
:102CE0001124E20FF31F9F01220F331F2E0F3F1FEE
:102CF00037FF02C021583F4F220F232F221F330BD3
:102D0000620F1F910F9108950F931F93CF93DF933D
:102D10008B01D82FC42F822F0E941D15EC2FF0E0BD
:102D2000EE0FFF1FEC5CFE4F90819058890F87FDDE
:102D30008195880F682F2CE0629F612D1124600F10
:102D4000712F8D2FDF91CF911F910F910895E42F57
:102D5000F0E0EE0FFF1FEC5CFE4F9081921B97FDA1
:102D60009195292F38E1239F212D1124620F089579
:102D700020913D0430E1230F08F42FEF60E1822F12
:102D800090E00E94CE14BC0188EB9BE00E94D22C04
:102D900090E080E00895FC019B01009729F480E019
:102DA00077FF2BC080E80895AC0197FF04C044274B
:102DB0005527481B590BB901640F751F37FD10C00B
:102DC000241B350BC901A5E0880F991FAA95E1F7CF
:102DD0000E94E62C80E2861BF7FF0FC081950895C4
:102DE000CB0165E0880F991F6A95E1F7BA01621B74
:102DF000730B0E94E62C80E6EECF08950F931F938D
:102E0000CF93DF93D62F172FC82FC901272F201B51
:102E1000022FBA010E94CB16982F990F990F782F85
:102E2000791B700F719F712D11246D2F8C2FDF91E5
:102E3000CF911F910F9108950F931F93CF93DF931D
:102E4000D62FC72F182FC901212F201B022FBA01FF
:102E50000E94CB16982F990F990F891B800F282F4E
:102E6000219F212D1124822F6D2F7C2FDF91CF9157
:102E70001F910F910895EF920F931F93CF93DF93BC
:102E8000D62F172FC82FC9010E19070FBA010E949C
:102E9000CB16702F781B719F712D11246D2F8C2FE5
:102EA000DF91CF911F910F91EF900895EF920F93C3
:102EB0001F93CF93DF93D62FC72F182FC9010E1959
:102EC000010FBA010E94CB16081B202F219F212D34
:102ED0001124822F6D2F7C2FDF91CF911F910F91A5
:102EE000EF9008950F93CF93DF93D72FC82FC90189
:102EF000BA010E94CB16682F600F7D2F8C2FDF91B7
:102F0000CF910F910895EF920F93CF93DF93D72F27
:102F1000C82FC9010E19BA010E94CB16602F681B79
:102F20007D2F8C2FDF91CF910F91EF90089546E088
:102F300050E06CE170E089E394E00E94A92D1092CA
:102F4000090408950C94CB14E9E3F4E085E380834D
:102F50008091030290910402A091050281839283E3
:102F6000A3838FE784838FEF85830C949717E09179
:102F70008602F09187020994E0918202F091830227
:102F800009943F924F925F926F927F928F929F929D
:102F9000AF92BF92CF92DF92EF92FF920F931F9367
:102FA000CF93DF933C012B01FC01C0818CE0C89FD3
:102FB000C02D11241CE01C0FF12E1B3310F03AE33E
:102FC000F32E60913D04669580913F0490914004FA
:102FD0000E94CE14382ED0E0CE01880F991F9C019C
:102FE0002C5F3E4F6901CF15B0F081E01A3308F035
:102FF00080E0DF91CF911F910F91FF90EF90DF90D4
:10300000CF90BF90AF909F908F907F906F905F9088
:103010004F903F900895FE01E855FE4F8081F301E7
:103020009181892379F1F60180A9282F2057330B4C
:10303000590181A9E82FE052FF0B4F01AA9C900192
:10304000AB9C300D300D1124EE9FC001EF9F900D11
:10305000900D1124820F931F0E94D814082F6091A5
:103060003A0470913B0480913C04E32C9401A50147
:10307000F20109950E94A217462F282F672FCE0133
:103080000E94BC17F2E0CF0ED11C2196ACCF6BE3AF
:1030900077E10C94C11766E577E10C94C1176CEBEE
:1030A00075E10C94C11763E877E10C94C1178F9216
:1030B0009F92AF92BF92CF92DF92EF92FF920F93C7
:1030C0001F93CF93DF935C016B01FC01C0818CE007
:1030D000C89FC02D11241CE01C0F912E1B3310F033
:1030E0003AE3932E60913D04669580913F04909160
:1030F00040040E94CE14882ED0E0CE01880F991F84
:103100009C012C5F3E4F7901C91588F081E01A338C
:1031100008F080E0DF91CF911F910F91FF90EF9029
:10312000DF90CF90BF90AF909F908F900895FE0159
:10313000E855FE4F8081F50191818923C1F0F701A7
:1031400021A92052330B40A94057550B60913A04F6
:1031500070913B0480913C04082DF60109950E9472
:10316000A217462F282F672FCE010E94BC17F2E02E
:10317000EF0EF11C2196C8CF6EEF76E10C94571834
:103180006CE177E10C9457186AEC75E10C945718D0
:1031900062E777E10C945718BF92CF92DF92EF92DB
:1031A000FF920F931F93CF93DF937C018B01FC0160
:1031B000C0818CE0C89FC02D11249CE0D92EDC0E6C
:1031C000CD2CFAE3FD1510F48AE3C82E60913D047E
:1031D0006695669521E0620F08F46FEF80913F04D9
:1031E000909140040E94CE14B82ED0E0CC1578F017
:1031F00081E099E39D1508F480E0DF91CF911F9164
:103200000F91FF90EF90DF90CF90BF900895FE0157
:10321000E855FE4F8081F7019181892391F06091FB
:103220003A0470913B0480913C042B2D4C2FF80103
:1032300009950E94A217462F282F672FCE010E94C2
:10324000BC172196D3CF6CE375E10C94CC1865E6DE
:1032500075E10C94CC186FE875E10C94CC1861E919
:1032600075E10C94CC186AE975E10C94CC1863EA0A
:1032700075E10C94CC1864E876E10C94CC1867EAFC
:1032800076E10C94CC187F928F929F92AF92BF926E
:10329000CF92DF92EF92FF920F931F93CF93DF9322
:1032A0005C016B01FC01C0818CE0C89FC02D112422
:1032B0001CE01C0F912E1B3310F03AE3932E60910B
:1032C0003D046695669580913F04909140040E946C
:1032D000CE14F82E80E48F0D0E941D1590E8892EE3
:1032E000880E8F2D0E941D1520E8722E780ED0E0DA
:1032F000C91590F081E01A3308F080E0DF91CF919A
:103300001F910F91FF90EF90DF90CF90BF90AF9003
:103310009F908F907F900895FE01E855FE4F808129
:10332000F50191818923A1F060913A0470913B04E9
:1033300080913C04EF2C0C2F272D482DF601099588
:103340000E94A217462F282F672FCE010E94BC177C
:103350002196CECF62EF75E10C9443196FE176E1CF
:103360000C9443196DE476E10C944319BF92CF920B
:10337000DF92EF92FF920F931F93CF93DF937C0125
:10338000FC01C0818CE0C89FC02D11241CE01C0FE3
:10339000012F1B3308F00AE360913A0470913B045B
:1033A00080913C040E94A217D62EC72EB82ED0E0E2
:1033B000C01770F081E01A3308F080E0DF91CF9100
:1033C0001F910F91FF90EF90DF90CF90BF900895E5
:1033D000FE01E855FE4F8081F7019181892331F08C
:1033E0002B2D4D2D6C2DCE010E94BC172196E0CFC8
:1033F0008F929F92AF92BF92CF92DF92EF92FF9205
:103400000F931F93CF93DF937C01FC01C0818CE06D
:10341000C89FC02D11241CE01C0F012F1B3308F086
:103420000AE3C0903B04D0903C04D0913A046D2F45
:103430007C2D8D2D0E94A217B62EA72E982E60915E
:103440003D046D0F7C2D8D2D0E94A217D62EC72E08
:10345000882ED0E0C01788F081E01A3308F080E0B1
:10346000DF91CF911F910F91FF90EF90DF90CF9060
:10347000BF90AF909F908F900895FE01E855FE4F4A
:103480009081F7018181892359F0282D4D2D6C2DD4
:1034900090FD03C0292D4B2D6A2DCE010E94BC1733
:1034A0002196D8CFBF92CF92DF92EF92FF920F93E7
:1034B0001F93CF93DF937C01FC01C0818CE0C89FF8
:1034C000C02D11241CE01C0FD12E1B3310F09AE3E9
:1034D000D92EC0903B04B0903C0420913D0400E400
:1034E000029F012D1124D0E0CD1570F081E01A3338
:1034F00008F080E0DF91CF911F910F91FF90EF9046
:10350000DF90CF90BF900895FE01E855FE4F808177
:10351000F70191818923B9F0FE01EE0FFF1FEC5FE7
:10352000FE4F81A982958F7060913A04809F600D53
:1035300011247C2D8B2D0E94A217462F282F672F38
:10354000CE010E94BC172196CFCFBF92CF92DF92BF
:10355000EF92FF920F931F93CF93DF938C01FC01A7
:10356000C0818CE0C89FC02D11245CE0F52EFC0EBC
:10357000DF2CFAE3FF1510F44AE3D42EC0903B048D
:10358000B0903C0420913D0430E4E32E3E2D329F68
:10359000312D1124E32ED0E0CD1578F081E039E310
:1035A0003F1508F480E0DF91CF911F910F91FF90BC
:1035B000EF90DF90CF90BF900895FE01E855FE4F49
:1035C0008081F80191818923D9F0FE01EE0FFF1F60
:1035D000EC5FFE4F60A9E69EB001112495E0759561
:1035E00067959A95E1F780913A04680F7C2D8B2DB1
:1035F0000E94A217462F282F672FCE010E94BC17CA
:103600002196CACFBF92CF92DF92EF92FF920F9393
:103610001F93CF93DF938C01FC01C0818CE0C89F86
:10362000C02D11249CE0F92EFC0EEF2CFAE3FF15BF
:1036300010F48AE3E82ED0903A04D0913B04C09075
:103640003C0460913D0466956695669580913F04C3
:10365000909140040E94CE140E941D15805887FD51
:103660008195880F282F3C2D239F212D1124822FF7
:103670006D2D7D2F0E94A217D62EC72EB82ED0E01A
:10368000CE1578F081E029E32F1508F480E0DF9172
:10369000CF911F910F91FF90EF90DF90CF90BF904F
:1036A0000895FE01E855FE4F8081F801918189233C
:1036B00031F02B2D4D2D6C2DCE010E94BC17219683
:1036C000DFCFDF92EF92FF920F931F93CF93DF93A1
:1036D0008C01FC01E855FE4F8081682381F1D09078
:1036E0003B04D0913C04C0913A04EC2EF12C0E9492
:1036F0006E2D282FC7018C549F4F68E671E00E9401
:10370000E62C8E199F0997FD0396959587959595BB
:10371000879523706C2F289F600D11247D2D8D2F90
:103720000E94A217462F282F672FC801DF91CF9143
:103730001F910F91FF90EF90DF900C94BC17DF91D9
:10374000CF911F910F91FF90EF90DF900895DF923E
:10375000EF92FF920F931F93CF93DF938C01FC01A5
:10376000C281C11125C060913D0420E1620F08F4BF
:103770006FEF80913F04909140040E94CE146AE064
:1037800070E00E94D22C892B51F40E946E2D6AE3C6
:1037900070E00E94E62CF80161810E94611B8C2F71
:1037A000DF91CF911F910F91FF90EF90DF900895DF
:1037B000C0818CE0C89FC02D11248CE0D82EDC0E77
:1037C0008D2DFAE3FD1508F48AE3D0E0E82EF12C04
:1037D000CE15DF0534F0C1E0F9E3FD1500F7C0E0D8
:1037E000DECFF8016181CE010E94611B2196F0CFEE
:1037F0001F93CF93DF93EC01FC01E855FE4F8081CE
:103800006823C9F00E946E2D182F0E946E2D8F77AD
:10381000782F20E8720F08F47FEF612F80913C042D
:103820000E94A217462F282F672FCE01DF91CF913C
:103830001F910C94BC17DF91CF911F910895DF92D7
:10384000EF92FF920F931F93CF93DF938C01FC01B4
:10385000C281C11125C060913D0420E1620F08F4CE
:103860006FEF80913F04909140040E94CE1465E078
:1038700070E00E94D22C892B51F40E946E2D6AE3D5
:1038800070E00E94E62CF80161810E94F81B8C2FE9
:10389000DF91CF911F910F91FF90EF90DF900895EE
:1038A000C0818CE0C89FC02D11248CE0D82EDC0E86
:1038B0008D2DFAE3FD1508F48AE3D0E0E82EF12C13
:1038C000CE15DF0534F0C1E0F9E3FD1500F7C0E0E7
:1038D000DECFF8016181CE010E94F81B2196F0CF66
:1038E000BF92CF92DF92EF92FF920F931F93CF93ED
:1038F000DF937C01FC01C0818CE0C89FC02D1124A6
:103900001CE01C0F012F1B3308F00AE3C0903B049E
:10391000D0903C04D0913A0460913D046695669540
:10392000669580913F04909140040E94CE140E94BD
:103930001D15805887FD8195880F682F2CE0629FA8
:10394000612D11246D0F7C2D8D2D0E94CB14D62E50
:10395000C72EB82ED0E0C01770F081E01A3308F0FF
:1039600080E0DF91CF911F910F91FF90EF90DF905A
:10397000CF90BF900895FE01E855FE4F8081F7017A
:103980009181892331F02B2D4D2D6C2DCE010E947C
:10399000BC172196E0CFE0918402F0918502099452
:1039A0000C94600D089508950E94D21C0C94D31CB1
:1039B00008950895CF93DF93FC01C0818CE0C89FE8
:1039C000C02D1124D4EFDC0FCB3308F0CAE36C2FE9
:1039D0008D2F0E94D81C6C2F8D2FDF91CF910C94CE
:1039E000D91C5F926F927F928F929F92AF92BF92FB
:1039F000CF92DF92EF92FF920F931F93CF93DF93BB
:103A00000E94982560930A0470930B0480930C0421
:103A100090930D0430913904132F137019F0132F64
:103A2000169516952091EE01213031F12223B1F047
:103A3000223009F4FBC2233009F402C3DF91CF9195
:103A40001F910F91FF90EF90DF90CF90BF90AF90BC
:103A50009F908F907F906F905F9008951092EF01EC
:103A600060933F0470934004809341049093420418
:103A700081E08093EE01E2CF9091F20181E0191391
:103A80000BC0832F83702091F30130E091E0821707
:103A9000130609F490E0892F81708093F1018091E1
:103AA0003E049091F001981739F08093F00140E0C6
:103AB00060E080E00E94CB1C1F3178F4E12FF0E041
:103AC000E45DF14D0C941C2D8091F101882359F097
:103AD00040E060E080E00E94CB1C80E004C08FEEFC
:103AE00091E00E94B6199091EF019F5F9093EF01D2
:103AF000811198C282E08093EE018091F1018111E1
:103B000091C2112309F49AC20E94D41C8FEE91E055
:103B1000DF91CF911F910F91FF90EF90DF90CF90A9
:103B2000BF90AF909F908F907F906F905F900C941C
:103B3000DA1C8FEE91E00E94F819D5CF8FEE91E05C
:103B40000E94521AD0CF8FEE91E00E94A51ACBCFDF
:103B50008FEE91E00E94021BC6CF8FEE91E00E9493
:103B60002319C1CF8FEE91E00E942719BCCF8FEEB1
:103B700091E00E94BC18B7CF8FEE91E00E94C01870
:103B8000B2CF8FEE91E00E944718ADCF8FEE91E05B
:103B90000E944B18A8CF8FEE91E00E942B19A3CF63
:103BA0008FEE91E00E942F199ECF8FEE91E00E9440
:103BB000331999CF8FEE91E00E94371994CF8FEE91
:103BC00091E00E944F188FCF8FEE91E00E94C418B1
:103BD0008ACF8FEE91E00E94C81885CF8FEE91E0DA
:103BE0000E94531880CF8FEE91E00E94AA197BCFDC
:103BF0008FEE91E00E94AE1976CF8FEE91E00E9499
:103C0000B21971CF8FEE91E00E94A71B6CCF8FEE9F
:103C100091E00E941F1C67CF8FEE91E00E94701C04
:103C200062CF8FEE91E00E943B195DCF8FEE91E065
:103C30000E943F1958CF40910504509106046091AD
:103C400007047091080480913F0490914004A09172
:103C50004104B091420484179507A607B70708F4FA
:103C60003CCF0E940815082F0E9408159AE3891B73
:103C7000F0F7890FC82FD0E0FE01E855FE4F809184
:103C8000F0019081892309F479C020E040E060E0F0
:103C900001FD13C00E940815082F0E940815869583
:103CA000782F2FE7720F08F47FEF602F80913C048C
:103CB0000E94A217462F282F672FCE010E94BC1703
:103CC00020913D0430E1230F08F42FEF60E1822FB3
:103CD00090E00E94CE14BC0184EF91E00E94D22CAF
:103CE00080913F0490914004A0914104B09142041E
:103CF000860F971FA11DB11D8093050490930604A4
:103D0000A0930704B0930804E8CE409101045091B9
:103D10000204609103047091040480913F04909127
:103D20004004A0914104B091420484179507A6076E
:103D3000B70708F4D2CE8091F101811121C0C09162
:103D4000EF018CE0C89FC02D11240CE00C0FD02E89
:103D50000B3310F06AE3D62EEC2EF12C23E0C29F39
:103D6000E0011124CD5ADC4FED1408F442C0E3E524
:103D7000F3E08EEF93E00A3308F054C081E0B3CE55
:103D800040E060E080E00E94CB1C53E5E52E53E06C
:103D9000F52ED0E0C0E00FE70E94081581FF0CC0AF
:103DA000F7011082118212822196F3E0EF0EF11CCE
:103DB000CA33D10589F7C3CF0E940815B82E0E94D7
:103DC00008158695782F700F08F47FEFCE01880FC5
:103DD000991F8C0F9D1F9C012D5A3C4F69016B2D23
:103DE00080913C040E94CB14F6016083718382832E
:103DF000DBCFF701E855FE4F80819091F0018923D8
:103E000031F02A8148816981C7010E94BC1723963D
:103E10002FEFE21AF20AA8CF238134814581219342
:103E2000319341938E179F07B9F70E94081581FFC0
:103E30001FC01092FE031092FF03109200040E9414
:103E4000B816C0903F04D0904004E0904104F09038
:103E50004204DC01CB018C0D9D1DAE1DBF1D809366
:103E6000010490930204A0930304B093040435CE9C
:103E70000E940815C82F0E9408158695782F2FE7F5
:103E8000720F08F47FEF6C2F80913C040E94CB14DA
:103E90006093FE037093FF0380930004D0CF4091A2
:103EA0004F035091500360915103709152038091E0
:103EB0003F0490914004A0914104B09142048417C2
:103EC0009507A607B70708F408CE8091F10188236B
:103ED00029F040E060E080E00E94CB1C60913A0451
:103EE00070913B0480913C040E94A217062F772E0C
:103EF000682ECFE1D3E024E0E22E21E0F22E3BE079
:103F0000A32EB12C47016E0185E0582EF6012191B8
:103F10006F01F40181914F0190E0222309F472C0F6
:103F2000262D402F672D0E94BC17F6018081319706
:103F300080835A945110EACF650195E0592E96017D
:103F4000215E3C4F4901F601EC5FFE4F808190E01D
:103F5000F9012081222309F459C0262D402F672D15
:103F60000E94BC17F40131978081F40180835A9438
:103F7000F1E0CF1AD1085110E2CFF701868190E02D
:103F80002E81222309F446C0262D402F672D0E9442
:103F9000BC17F701858190E02D81222309F43EC0F2
:103FA000262D402F672D0E94BC170E940815837094
:103FB00091E009F090E09D839E832C96FCE0EF0E4B
:103FC000F11C2CE0A20EB11C3BE3A316B10409F0D6
:103FD00099CF0E94B816C0903F04D0904004E09062
:103FE0004104F0904204DC01CB018C0D9D1DAE1DFF
:103FF000BF1D80934F0390935003A0935103B09340
:1040000052036BCD20E040E060E08DCF20E040E047
:1040100060E0A6CF20E040E060E0B9CF20E040E0E3
:1040200060E0C1CF112309F409CD6ECD1093F201E8
:10403000832F83708093F3010E94B71783E019CD1B
:104040008091090481110E94971760913F0470913B
:10405000400480914104909142040E94B325603154
:1040600071058105910508F4E9CC1092EE01E6CCCA
:10407000E0918002F091810209950E94890C8111E2
:1040800004C00E942E0D0E94A41746E050E06CE18F
:1040900070E089E394E00E948B2D109209048091D6
:1040A00039048C7F11F40C94A41708950895E9E362
:1040B000F4E0908121E0922790831092EE0190919C
:1040C0000904892B80930904089581E00C945720FA
:1040D00090913904937061F081110BC094609093BA
:1040E00039041092EE0180910904862B8093090413
:1040F00008958F3110F09867F2CF880F880F982BB2
:10410000EECF61E00C946820682F90913904969569
:10411000969581E0890F8F3108F081E00C9468203A
:1041200081E00C948420682F90913904969596959F
:104130008FEF890F09F48EE10C94682081E00C94D4
:10414000932090913904937071F080933A046093B6
:104150003B04493708F048E740933C048091090448
:10416000822B809309040895A9E3B4E01196EC91A1
:104170001197F0E0282F13964C91139712966C919B
:10418000CF0108960C94A12081E00C94B420E9E3BF
:10419000F4E09181282F43816281E92FE850FF0BE1
:1041A000CF010C94A12081E00C94C720E9E3F4E056
:1041B000628120E1620F08F46FEF9181282F438123
:1041C000892F90E00C94A12081E00C94D620E9E3A3
:1041D000F4E0628120E1621B08F460E09181282F05
:1041E0004381892F90E00C94A12081E00C94E7207A
:1041F000E9E3F4E0438120E1420F08F44FEF9181BD
:10420000282F6281892F90E00C94A12081E00C94EA
:10421000F820E9E3F4E0438120E1421B08F440E0A8
:104220009181282F6281892F90E00C94A12081E058
:104230000C94092180933D0480910904862B80937E
:104240000904089520913D0430E1230F08F42FEF75
:10425000682F822F0C941A2181E00C942221209146
:104260003D0430E1231B08F420E0682F822F0C94DA
:104270001A2181E00C942F210895FC01EE0FFF1FFD
:10428000E80FF91FED5BFB4F6183408322830895A4
:10429000E3E4F4E0818360834283339694E0E13F7A
:1042A000F907C1F708956AE370E083E494E00C94A1
:1042B000F621FA01811101C0FB0109941F93CF93EC
:1042C000DF93EC01FB011281111151C00E94A20B7E
:1042D0008272CB3CFCE5DF0709F473C048F5C63CAD
:1042E000ECE5DE0709F459C068F4C43C9CE5D90745
:1042F00009F449C008F04CC0C33CDC4509F440C097
:1043000011E035C0C83C9CE5D90709F450C008F459
:1043100049C0C93CFCE5DF0709F44EC047E151E262
:1043200066E071E2CA3CDC4559F70E9459211FC082
:10433000C03DECE5DE0709F457C088F4CD3C9CE5B0
:10434000D90709F448C008F441C0CE3CFCE5DF07BA
:1043500009F446C0CF3CDC4599F685E042C0C73D34
:104360009CE5D90748F482E1C23DDC45D0F1812FBC
:10437000DF91CF911F910895CE35DD45C1F3C0CFB8
:104380000E946520F4CF4EE950E260E970E2CDCFA3
:1043900040E950E26EE970E2C8CF43ED50E264ECD0
:1043A00070E2C3CF44EC50E263ED70E2BECF45EF64
:1043B00050E264EE70E2B9CF44EE50E265EF70E295
:1043C000B4CF46E051E267E171E2AFCF49E351E299
:1043D0006CE271E2AACF4CE251E269E371E2A5CF4F
:1043E00081E00E948120C3CF8DE0FBCF3E9A48B18F
:1043F0004F7B58B15064EFB7F8949B01220F331FE5
:10440000260F371F280F391F2817390741F4EFBF30
:104410008FE594E00197F1F700C000000895DC01FA
:104420006D91CD0178E058B9000000C067FF48B930
:10443000660F000000C000C000C048B900C07A95F7
:1044400091F7E2CFCF93DF93EC01FB0182818823C8
:1044500009F433C1C430FDE5DF07C0F5CB3F9CE56F
:10446000D90730F49E0122503C4524313105B0F586
:104470000E949C0C9093280480932704C1318CE502
:10448000D80709F4EEC008F069C0C930ECE5DE07D2
:1044900009F4D5C0C8F5C5308CE5D80709F4C7C004
:1044A00000F5C330ECE5DE0709F4B9C008F0BBC085
:1044B000C230DC4509F4ADC08091270490912804F6
:1044C0000E94AA0C0E94980680E008C0C236EDE562
:1044D000DE0771F2C63AFDE5DF0751F2DF91CF91B9
:1044E0000895809127048062C7309CE5D90709F4BC
:1044F00093C0809127048061C830DC4508F48CC0EB
:1045000080912704806488C0809127048B7FCD3000
:10451000FCE5DF0709F480C098F4809127048E7FC2
:10452000CB309CE5D90709F477C0809127048C60D3
:10453000CC30DC4508F470C0809127048D7F6CC0BE
:10454000809127048F7ECF30FCE5DF0709F464C03B
:1045500008F47BC0809127048F7D5EC0CE3F9CE530
:10456000D90709F47AC050F5C531FCE5DF0709F435
:1045700086C098F480912704837FC3319CE5D907D6
:1045800009F44AC008F471C00E949806909127046B
:10459000892F97FB87F980583FC0CC3FFCE5DF07A8
:1045A00009F449C008F055C0809128048160CB3FD0
:1045B000DC4509F081CF809328047ECFC230EDE541
:1045C000DE0709F468C0A8F4C1158DE5D80709F421
:1045D00052C0809128048360C130DD4560F3809132
:1045E0002804982F909591708E7F892B90FB81F9EC
:1045F000E2CFC236EDE5DE0709F451C0C63AFDE56B
:10460000DF0709F453C0C330DD4509F055CF80E022
:1046100043C0809127048160809327044DCF80910F
:1046200027048260F9CF809127048460F5CF8091C0
:1046300027048860F1CF809128048260BCCF0E945B
:104640009806809127048068E7CF80912704877FB0
:10465000E3CF809128048E7FAECF809128048D7F98
:10466000AACF809127048F7BD7CF0E949806809194
:1046700027048F77D1CF809128048C7F9CCF8091A5
:10468000270482FB992790F921E0922790FB82F979
:1046900090FB83F9C1CF81E00E94300D0DCF909146
:1046A0002704892F8F7E94FF8061B6CF90912704D5
:1046B000892F8E7F90FF8160AFCF81E00FCFCF93A6
:1046C000DF93EB0186319C4511F50E94A20B9A8184
:1046D000992399F08A7A91E009F490E090930E047E
:1046E000811109C089E20E947D0B0E94E20B80E0EB
:1046F000DF91CF91089585E3F6CF80910E0481116B
:1047000004C089E20E94840BF0CF85E3FBCF81E0F7
:10471000EFCF0F931F93CF93DF93C42FD22FFC01C2
:1047200082818823C9F0409311040E948C259093C4
:10473000100480930F0480E28C0F883008F050C082
:10474000C77081E001C0880FCA95EAF7DF91CF9169
:104750001F910F910C940D0410911104141335C086
:1047600080910F04909110040E94A425883C91052B
:1047700060F5C0E2CD0F1D17B9F080E2810F8830DF
:1047800040F4177081E001C0880F1A95EAF70E9483
:104790001404C83048F481E09D2F977001C0880F41
:1047A0009A95EAF70E940D04802F0E940504C830F4
:1047B000B8F4D77081E001C0880FDA95EAF7DF918D
:1047C000CF911F910F910C94140480E28C0F8830CC
:1047D00038F4C77081E001C0880FCA95EAF7EFCFBF
:1047E000DF91CF911F910F9108950F939C01CB0101
:1047F000243F4CE5340759F1A8F4293DFCE53F0777
:1048000001F12A3D4CE53407D1F1283D3C4591F4B6
:1048100006E221EE41EE68ED7CE50E94892380E00E
:104820000F910895263FFCE53F07E9F0B0F0273FE0
:104830003C45F9F0FC018281882339F11092110482
:10484000EFCF07E225EE45EE69ED7CE5E6CF06E227
:1048500021EE40EE64EF7CE5E0CF07E225EE44EE8A
:1048600065EF7CE5DACF06E221EE42EE66EF7CE50D
:10487000D4CF07E225EE46EE67EF7CE5CECF08E227
:1048800021E045EE6AED7CE5C8CF81E0C9CF909389
:1048900089028093880208959093170480931604E8
:1048A0000895E0911604F0911704309721F00190DB
:1048B000F081E02D099480E00895E0911604F091D4
:1048C0001704309721F00280F381E02D09940895B8
:1048D000E0911604F0911704309739F022E0DC01E2
:1048E0002C930480F581E02D0994089520911404FF
:1048F000309115042817390771F0909315048093AF
:104900001404E0911604F0911704309721F006800A
:10491000F781E02D09940895209112043091130439
:104920002817390771F09093130480931204E091D3
:104930001604F0911704309721F00084F185E02DE2
:10494000099408959C012E5F3F4FAC01485F5F4F73
:1049500080E02417350709F40895F90191919F012A
:104960009923B9F38F5FF5CF662349F0FC013296A6
:1049700008962191261729F0E817F907D1F780E06A
:10498000089581E008959C01FC0132969FEF80E03C
:104990004191461751F09F3F19F4411101C0982FE2
:1049A0008F5F8630A9F79F3F09F40895290F311DC5
:1049B00097FD3A95F90162830895FC0132960896B5
:1049C0002191261303C0DF0111971C92E817F90704
:1049D000B9F708950C94C3240C94DD24029626E0C4
:1049E000FC0111922A95E9F7089508950C94F52495
:1049F000811105C081E0809318040C94F62482E0B4
:104A0000FACF83E0809318040C94F6240C94F824D5
:104A100081E0809318040C94F6240C9408250895E2
:104A200008950C941025089508950C940F25CF93A4
:104A30000E9413250E9419110E941425C0E08C2F9A
:104A40000E945010892B31F4CF5FC430C1F780E051
:104A5000CF91089581E0FCCF08951F921FB61F9259
:104A600011248F939F93AF93BF9380911904811169
:104A700013C08091F1049091F204A091F304B091DD
:104A8000F4044196A11DB11D8093F1049093F204AA
:104A9000A093F304B093F404BF91AF919F918F91D1
:104AA0001F901FBE1F9018958091F904843031F13A
:104AB0000E94FC021092190488E190E020E40FB6F5
:104AC000F894A895809360000FBE2093600083B790
:104AD000817F846083BF83B7816083BF789488952A
:104AE00083B78E7F83BF0FB6F894A895809160003E
:104AF000886180936000109260000FBE08950E944C
:104B000098060C94050382E084BD93E095BD9AEF6E
:104B100097BD80936E0008952FB7F8948091F104AB
:104B20009091F204A091F304B091F4042FBF089582
:104B30002FB7F8946091F1047091F2048091F3041E
:104B40009091F4042FBF08959C014FB7F894809181
:104B5000F1049091F204A091F304B091F4044FBFDA
:104B6000821B930B0895CF92DF92EF92FF922FB7A3
:104B7000F894C090F104D090F204E090F304F09027
:104B8000F4042FBFA7019601261B370B480B590BC6
:104B9000CA01B901FF90EF90DF90CF90089578940B
:104BA0001F921FB61F9211248F939F93AF93BF93B1
:104BB0008091F1049091F204A091F304B091F40477
:104BC0000196A11DB11D8093F1049093F204A0936E
:104BD000F304B093F404BF91AF919F918F911F9014
:104BE0001FBE1F90189581E08093E00080E28093C3
:104BF000D8001092C9008FE19EE40197F1F700C040
:104C0000000087E090EBDC018093020590930305A0
:104C1000A0930405B093050588E19CE00FB6F894D5
:104C2000A895809360000FBE90936000FFCF8091A5
:104C30002504089508959C0182E08093E9009FEF88
:104C40008091E800915085FD06C085ED8A95F1F7C9
:104C500000009111F5CF8091E80085FF0CC050E075
:104C600040E066E070E0C9010E9441288091E800C0
:104C70008E778093E8000895CF93DF93EC0181E075
:104C80008093E9008FEF9091E800815095FD06C078
:104C900095ED9A95F1F700008111F5CF8091E8002C
:104CA00085FF14C050E040E068E070E0CE010E9453
:104CB00041288091E8008E778093E80088E0FE012B
:104CC000ADE1B4E001900D928A95E1F7DF91CF91CB
:104CD000089580931A0470931C0460931B048091C0
:104CE000F904843001F582E08093E9008FEF909120
:104CF000E800815095FD06C095ED9A95F1F700000A
:104D00008111F5CF8091E80085FF0DC050E040E0B3
:104D100063E070E08AE194E00E9441288091E8001D
:104D20008E778093E8000895BC0184E00C94692696
:104D3000BC0183E00C9469268091F804811109C0BC
:104D40000E94D1290E942E2A8091E20084608093E3
:104D5000E20008951092F80408950C9408256091DB
:104D6000F50481E0611101C080E00C94012590916F
:104D7000F90481E0943009F080E06091F5040C942E
:104D8000062542E061EC81E00E944D2942E261EC9F
:104D900082E00E944D299091F90481E0943009F05D
:104DA00080E06091F5040C94F8248091FB0483303A
:104DB00009F460C030F48130C9F1823009F49CC03C
:104DC00008958A3009F488C08B3009F46EC08930A8
:104DD00009F04FC08091FA04813209F04AC08091F5
:104DE000FE049091FF04029708F043C08091E80010
:104DF000877F8093E8008091E80082FF36C0909121
:104E0000F3008091F200029731F48091F10081303B
:104E100011F0863021F48091F10080932504809177
:104E2000E8008B778093E8000C9481298091FA0444
:104E3000813AF9F48091E800877F8093E8008091BF
:104E4000FE049091FF04892B61F468E08DE194E009
:104E500070E00E9490288091E8008B778093E800B2
:104E6000089560E090E080E0F3CF8091F904811133
:104E7000C2CF08958091FA04813AD9F78091FE0457
:104E80009091FF04892BA9F78091E800877F809398
:104E9000E8008091E80080FFFCCF809102028093BF
:104EA000F1008091E8008E77BDCF8091FA048132C5
:104EB00001F78091FE049091FF04892BD1F6809137
:104EC000E800877F8093E8000E9481298091FC049C
:104ED000809302020C9498068091FA04813249F67C
:104EE0008091E800877F8093E8000E94812980916B
:104EF000FD048093260408958091FA04813A09F014
:104F0000B8CF8091E800877F8093E8008091E80027
:104F100080FFFCCF80912604C2CF84B7877F84BFF7
:104F20000FB6F894A8958091600088618093600026
:104F3000109260000FBE80E890E00FB6F894809366
:104F40006100909361000FBE0C940D250E94D12941
:104F50000E942E2AE2EEF0E08081846080837894C3
:104F60000C94B72C86EF91E00C944C248091F904BA
:104F70008530A9F48091F904853011F00C947F25D7
:104F80000E9454258091F7048823A1F30E941725DD
:104F9000882381F30E942B280E949806EBCF089566
:104FA00008950C94D327292F33272330310519F185
:104FB00068F42130310509F444C02230310509F488
:104FC00045C090E080E030E020E025C0213231058E
:104FD00049F122323105A9F780E490E028EC33E072
:104FE00061157105C1F08BE790E02DE433E061308D
:104FF000710589F0E6CF99278130910581F00097FE
:1050000029F00297F1F6ECECF2E002C0ECEFF2E0EE
:10501000849190E09F01FA01318320830895E2EEAC
:10502000F2E0F6CF89E090E022E133E0611571050E
:1050300091F389E090E02BE233E06130710559F3A0
:10504000C0CF82E190E02BE333E0E5CF8BE390E04B
:1050500020E033E0E0CF80E189BD82E189BD09B481
:1050600000FEFDCF8091D8008F7D8093D800809185
:10507000E00082608093E0008091E00081FDFCCF41
:105080000895AF92BF92CF92DF92FF920F931F933A
:10509000CF93DF936C01EB018A010E94A029F82EC7
:1050A000811123C00115110539F0F801808191812A
:1050B000C81BD90BC80ED91EB12CA12C2097A9F062
:1050C0008091E80085FD22C08091E8008E77809372
:1050D000E80001151105A1F0F80180819181A80E69
:1050E000B91EB182A08285E0F82E8F2DDF91CF917D
:1050F0001F910F91FF90DF90CF90BF90AF900895D8
:105100000E94A0298823D1F2F82EEFCFF6018191D9
:105110006F018093F1002197FFEFAF1ABF0ACECF46
:10512000FC01809100059091010586179707A0F07A
:105130006115710529F49091E8009E779093E8003D
:1051400090E06115710551F4911108C08091E8005B
:1051500082FF34C080E00895BC01F2CF8091F90451
:105160008823C1F18530C1F18091E80083FD30C012
:105170008091E80082FDEACF8091E80080FFE1CFD6
:105180008091F3002091F200382F6115710519F01C
:105190002830310558F091E02830310509F090E0D1
:1051A0002091E8002E772093E800CBCF8191809367
:1051B000F100615071092F5F3F4FE7CF8091F904F3
:1051C000882341F0853041F08091E80083FFBECF15
:1051D00081E0089582E0089583E00895FC018091C4
:1051E00000059091010586179707A0F061157105DC
:1051F00029F48091E8008E778093E80090E06115B3
:10520000710551F4911108C08091E80082FF35C00A
:1052100080E00895BC01F2CF8091F9048823C9F1A0
:105220008530C9F18091E80083FD31C08091E800AC
:1052300082FDEACF8091E80080FFE1CF8091F3000A
:105240002091F200382F6115710519F028303105D1
:1052500058F091E02830310509F090E08091E800A5
:105260008E778093E800CBCF84918093F1003196C4
:10527000615071092F5F3F4FE6CF8091F904882379
:1052800041F0853041F08091E80083FFBDCF81E09F
:10529000089582E0089583E00895982F973028F0CC
:1052A0008F708093E90081E008959093E900242FA6
:1052B000762F50E0981731F07091EC002091ED00BE
:1052C0005091F00021FD02C09F5FE8CF3091EB00CC
:1052D0003E7F3093EB003091ED003D7F3093ED0049
:1052E0003091EB0031603093EB007093EC00209331
:1052F000ED005093F0002091EE0027FDE5CF80E017
:1053000008958091FA0487FF13C08091E80082FF1E
:1053100006C08091E8008B778093E80004C08091FC
:10532000F9048111F2CF08958091F9048823D9F30B
:105330008091E80080FFF8CF8091E8008E77ECCF75
:105340002091E4003091E50095E6A9012091EC0060
:10535000822F817020FF06C08091E80080FF06C088
:1053600080E008952091E80022FD1AC08091F904A0
:10537000882389F0853089F08091EB0085FD0FC08E
:105380002091E4003091E50042175307F9F2915063
:10539000E1F684E0089582E0089583E0089581E0D5
:1053A00008950E943F2A0E94472AE0EEF0E08081A3
:1053B00081608083E8EDF0E080818F77808319BC85
:1053C000A7EDB0E08C918E7F8C9380818F7E80835F
:1053D0001092F80408950F931F93CF93DF930E94C8
:1053E0003F2A0E94472AC8EDD0E088818F778883C2
:1053F00088818068888388818F7D888319BC10921A
:10540000F9041092F5041092F7041092F60400EEDD
:1054100010E0F80180818B7F8083888181608883A0
:1054200042E060E080E00E944D29E1EEF0E0808102
:105430008E7F8083E2EEF0E08081816080838081D6
:1054400088608083F80180818E7F8083888180617D
:105450008883DF91CF911F910F910895E8EDF0E0DF
:1054600080818F7E8083E7EDF0E0808181608083A2
:1054700084E082BF81E08093F8040C94EB29E8ED8E
:10548000F0E080818E7F80831092E2000895109278
:10549000DA001092E10008951F920F920FB60F925A
:1054A00011242F933F934F935F936F937F938F9329
:1054B0009F93AF93BF93EF93FF938091E10082FF9F
:1054C0000BC08091E20082FF07C08091E1008B7FDA
:1054D0008093E1000E94B62C8091DA0080FF19C011
:1054E0008091D80080FF15C08091DA008E7F809374
:1054F000DA008091D90080FF96C080E189BD82E109
:1055000089BD09B400FEFDCF81E08093F9040E94BB
:105510009C268091E10080FF19C08091E20080FF0D
:1055200015C08091E2008E7F8093E2008091E200BE
:1055300080618093E2008091D80080628093D800DF
:1055400019BC85E08093F9040E94AF268091E100A8
:1055500084FF2BC08091E20084FF27C080E189BDD9
:1055600082E189BD89B5982F917080FFFBCF809132
:10557000D8008F7D8093D8008091E1008F7E80934A
:10558000E1008091E2008F7E8093E2008091E20052
:1055900081608093E2008091F504882309F449C07A
:1055A00084E08093F9040E94B7268091E10083FF94
:1055B00029C08091E20083FF25C08091E100877FB0
:1055C0008093E10082E08093F9041092F5048091C9
:1055D000E1008E7F8093E1008091E2008E7F8093D6
:1055E000E2008091E20080618093E20042E060E0AE
:1055F00080E00E944D298091F00088608093F00047
:105600000E94AD26FF91EF91BF91AF919F918F9135
:105610007F916F915F914F913F912F910F900FBEAE
:105620000F901F90189519BC1092F9040E94AA2699
:1056300070CF8091E30087FD93E09093F904B3CF9E
:105640001F920F920FB60F9211242F933F934F93F7
:105650005F936F937F938F939F93AF93BF93CF93FA
:10566000DF93EF93FF93D091E900DF708091EC001E
:10567000C82FC17080FDC0E81092E9008091F00051
:10568000877F8093F00078940E94642B1092E90049
:105690008091F00088608093F000CD2BCF70C09394
:1056A000E900FF91EF91DF91CF91BF91AF919F9171
:1056B0008F917F916F915F914F913F912F910F90BB
:1056C0000FBE0F901F9018951F93CF93DF93CDB708
:1056D000DEB7AA970FB6F894DEBF0FBECDBF8AEF34
:1056E00094E02091F100FC012193CF01F5E082309C
:1056F0009F07B9F70E94D5268091E80083FF1EC15D
:105700008091FA049091FB049A3008F017C1E92FB8
:10571000F0E0E55BF14D0C941C2D803899F0823857
:1057200009F00CC18091FE048F70873008F006C12B
:105730008093E9008091EB0085FB882780F9109227
:10574000E90006C08091F6049091F70491118260FF
:105750009091E800977F9093E8008093F100109279
:10576000F1008091E8008E77E5C0882309F4D3C06A
:10577000823009F0E3C08091FC048111D6C0809191
:10578000FE048F702FEF280F263008F0D7C08093CB
:10579000E9002091EB0020FFC8C0933031F48091E4
:1057A000EB0080628093EB00C0C09091EB009061B1
:1057B0009093EB0021E030E001C0220F8A95EAF7D8
:1057C0002093EA001092EA008091EB008860EACF13
:1057D0008111B4C01091FC041F778091E3008078A0
:1057E000812B8093E3008091E800877F8093E8001D
:1057F0000E9481298091E80080FFFCCF8091E30026
:1058000080688093E30082E0111183E08093F904C3
:1058100095C08058823008F091C08091FC0490912E
:10582000FD048C3D23E09207A1F583E08A838AE2A0
:1058300089834FB7F894DE01139620E03EE051E2F1
:10584000E32FF0E050935700E49120FF03C0E2956E
:10585000EF703F5FEF708E2F90E0EA30C0F0C79698
:105860008D939D932F5F243159F74FBF8091E800AE
:10587000877F8093E8006AE270E0CE0101960E9483
:1058800090288091E8008B778093E80057C0C096FD
:10589000E7CF6091FE047091FF04AE014F5F5F4F50
:1058A0000E94D127BC01892B09F448C09091E800DF
:1058B000977F9093E80089819A810E94EE28E1CF3A
:1058C0008038E1F58091E800877F8093E80080913F
:1058D000F5048093F10045CF811130C09091FC0414
:1058E000923060F58091E800877F8093E800909384
:1058F000F5040E9481298091F504882311F084E049
:1059000005C08091E30087FDFACF81E08093F90420
:105910000E94C12613C08091FC04813079F481E09B
:10592000933009F080E08093F7041092E9008091B1
:10593000E800877F8093E8000E9481298091E80039
:1059400083FF0AC08091E800877F8093E800809100
:10595000EB0080628093EB00AA960FB6F894DEBF4E
:105960000FBECDBFDF91CF911F9108950895CF93C2
:105970008091F9048823A1F0C091E900CF70909143
:10598000EC00892F817090FD80E8C82B1092E9000F
:105990008091E80083FD0E94642BCF70C093E900E2
:1059A000CF910895AA1BBB1B51E107C0AA1FBB1FC3
:1059B000A617B70710F0A61BB70B881F991F5A959B
:1059C000A9F780959095BC01CD01089597FB072E0E
:1059D00016F4009407D077FD09D00E94D22C07FC62
:1059E00005D03EF4909581959F4F089570956195EF
:1059F0007F4F0895A1E21A2EAA1BBB1BFD010DC00B
:105A0000AA1FBB1FEE1FFF1FA217B307E407F5076E
:105A100020F0A21BB30BE40BF50B661F771F881F4A
:105A2000991F1A9469F760957095809590959B01E0
:105A3000AC01BD01CF010895EE0FFF1F0590F49159
:105A4000E02D09948F929F92AF92BF92CF92DF92F6
:105A5000EF92FF92CF93DF93EC01688179818A8185
:105A60009B81611571058105910521F464E279ED51
:105A70008BE597E02DE133EF41E050E00E94DD2D12
:105A800049015A019B01AC01A7EAB1E40E94FC2D37
:105A90006B017C01ACEEB4EFA50194010E940A2ECB
:105AA000DC01CB018C0D9D1DAE1DBF1DB7FF03C0DA
:105AB0000197A109B04888839983AA83BB839F7704
:105AC000DF91CF91FF90EF90DF90CF90BF90AF909C
:105AD0009F908F9008950E94222D089580E091E07C
