:100000000C9432020C946A020C946A020C946A02F8
:100010000C946A020C946A020C946A020C946A02B0
:100020000C946A020C946A020C949B1D0C946F1E33
:100030000C9485180C946A020C946A020C946A025F
:100040000C946A020C946A020C946A020C946A0280
:100050000C946A020C940B190C946A020C946A02B8
:100060000C946A020C946A020C946A020C946A0260
:100070000C946A020C946A020C946A020C946A0250
:100080000C946A020C946A020C946A020C946A0240
:100090000C946A020C946A020C946A020C946A0230
:1000A0000C946A020C946A020C946A022B001400ED
:1000B0001A000800150017001C0018000C001200A0
:1000C00013002A00290004001600070009000A0096
:1000D0000B000D000E000F00330034002F621D00D6
:1000E0001B00060019000500110010003600370043
:1000F000380030720551E000E200E30001512C614C
:100100002C6128425000510052004F0001000100B4
:10011000A800AA00A90001000100010001002D02B1
:100120002E02010035021E021F02200221022202BD
:1001300023022402250226022702310201000100C7
:10014000AE00AC00AB0001000100010001000100A5
:1001500001000100220A010001000100010001006C
:10016000010001005000510052004F000100010049
:1001700001000100010001000100010001002D004B
:100180002E00010035001E001F002000210022006B
:100190002300240025002600270031000100010073
:1001A0000100010001000100010001000100010047
:1001B00001000100045301000100010001000100E1
:1001C0000100010001000100010001003A003B00B4
:1001D0003C003D003E003F00400041004200430023
:1001E000440045004C000100010001000100010035
:1001F00001000100010001000100010001000100F7
:1002000001000100010001000100010001000100E6
:1002100001000100010001000100010001000100D6
:1002200001000100010001000100010001000100C6
:1002300001000100010001000100010001000100B6
:10024000010001002900010001000100010001007E
:100250000100010001000100010001000100010096
:100260000100010001000100010001000100010086
:1002700001002800010001000100010001002C0024
:100280002C0001000100010001000100010001003B
:100290000100F900FA0001000100F100ED00F20098
:1002A00001000100010001000100F100F200010065
:1002B0000100EF00EE00F00001000100010001006C
:1002C0000100010001000100010001000100010026
:1002D0000100010001000100010001000100010016
:1002E000010001000100010001000100140354009D
:1002F0006500630068006E0069006B002D004F0010
:100300000000180342006F00610072006400730077
:100310006F007500720063006500000004030904AB
:1003200009023B00020100A0FA09040000010301D8
:100330000100092111010001224000070581030885
:10034000000109040100010300000009211101005E
:100350000122B600070582032000011201000200FD
:100360000000087342790001000102000105010943
:1003700002A10185020901A1000509190129081539
:100380000025019508750181020501093009311523
:1003900081257F95027508810609381581257F958D
:1003A0000175088106050C0A38021581257F950123
:1003B00075088106C0C005010980A10185031901E6
:1003C0002AB700150126B700950175108100C005F8
:1003D0000C0901A101850419012AA002150126A01A
:1003E00002950175108100C005010906A10185066D
:1003F000050719E029E71500250195087501810217
:100400000507190029EF1500250195F075018102F6
:1004100005081901290595057501910295017503D6
:100420009101C005010906A101050719E029E71599
:100430000025019508750181029501750881010566
:1004400007190029FF150026FF0095067508810091
:100450000508190129059505750191029501750396
:100460009101C00011241FBECFEFDAE0DEBFCDBF87
:1004700004B603FE18C08091A9029091AA02A0912F
:10048000AB02B091AC028730904BA740B04B59F40F
:100490001092A9021092AA021092AB021092AC0222
:1004A000E0E0F8E3099511E0A0E0B1E0ECE6F1E46A
:1004B00002C005900D92AC38B107D9F722E0ACE844
:1004C000B1E001C01D92A93AB207E1F70E9476128D
:1004D0000C949E200C9400000F9303E022E041E076
:1004E0000E94CD020F91089521E08C32914609F0CF
:1004F00020E0822F089581E0089581E008950C9412
:100500007D0208950C9481021F93CF93DF9300D056
:1005100000D00F92CDB7DEB749835A836B833091F9
:100520008F0189819A8131111DC06623B9F0222380
:10053000A9F00E941609182F682F89819A810E94BC
:10054000C20869817A81812F0F900F900F900F90D0
:100550000F90DF91CF911F910C94E60F0E94EE084F
:10056000182FEFCF0E94160969817A81EDCFFC0127
:10057000262F408151816281738184810C94840291
:1005800081E00895CF93DF93EC0160E00E94B70211
:10059000BE01DF91CF910C9482028F929F92AF9215
:1005A000BF92CF92DF92EF92FF920F931F936B0156
:1005B0007C0181E090E0A0E0B0E04C015D0104C06E
:1005C000880C991CAA1CBB1C4A95D2F7B501A40142
:1005D0004C015D0104C0880C991CAA1CBB1C2A9507
:1005E000D2F7482959296A297B2904C0880F991F05
:1005F000AA1FBB1F0A95D2F78A019B010C211D215E
:100600002E213F21041715072607370789F48C2967
:100610009D29AE29BF29BC01CD011F910F91FF90EB
:10062000EF90DF90CF90BF90AF909F908F90089504
:1006300080959095A095B0958C219D21AE21BF21EC
:10064000EACF0C9417110C941A1108950E94C50456
:100650000E9425032FEF84E39CE0215080409040CE
:10066000E1F700C000000C942F190F931F93CF9354
:10067000DF938C0161E00E94B702EC01B8010E9497
:100680007F028823A9F1B801CE010E94D5168823E4
:1006900079F1B801CE010E940215882349F1B80111
:1006A000CE010E943F16882319F1F8018281882328
:1006B00061F0CB35FDE5DF0721F170F4C115ECE504
:1006C000DE07A1F0CF3DDC45C9F0C801DF91CF9135
:1006D0001F910F910C947B02CC358DE5D807A1F0CA
:1006E000CD35DD4591F70E944B0DEFCF0E942603DB
:1006F00080E0DF91CF911F910F9108950E94050E28
:10070000F7CF0E94540DE1CF0E94570DDECF0E941B
:1007100069180C949F030E94A2030C946D1808950D
:100720000C948F0381E008950C9492030895CF9365
:10073000C82F0E9490038C2FCF910C94940380E0DB
:100740000C9497030E9431170C9497030E94311761
:1007500090918E01981721F080938E010C9497034D
:100760000895CF93DF93CDB7DEB72B970FB6F894EC
:10077000DEBF0FBECDBF4F83588769877A878B87CF
:100780008A859B85892B21F0CA0189238F3F81F5BA
:10079000898581110E94990C1E821D8285E0FE01CF
:1007A0003796DE01119601900D928A95E1F78C81C2
:1007B0009D81892B89F449815A816B817C818D814E
:1007C0009E810E94BA0B2B960FB6F894DEBF0FBE27
:1007D000CDBFDF91CF91089589819A8189238F3F81
:1007E00051F3CE0101960E94C0028111E4CFEBCFFC
:1007F0008091900190919101019690939101809345
:100800009001C6CFFC01808191810C945809CF934F
:10081000C82F882309F447C08CEF8C0F813AA0F4CD
:100820006C2F80910201909103010E94A5178823EB
:1008300029F08C2F0E945B0C0E94B90C8C2F0E9417
:10084000540CCF910C94B90C80E28C0F883048F492
:10085000C77081E001C0880FCA95EAF70E947C0C3E
:10086000F0CFEBE5EC0FE33040F4F0E0E95BFE4F56
:10087000808190E0CF910C946517E8E5EC0FE731AB
:1008800050F4F0E0EE0FFF1FE75EFE4F8081918194
:10089000CF910C947B17CD3E30F08C2F0E94FA1232
:1008A000CF910C94CD13CF910895882361F19CEFE3
:1008B000980F913A20F40E945B0C0C94B90C90E2D2
:1008C000980F983050F4877091E001C0990F8A9585
:1008D000EAF7892F0E94820CF0CF9BE5980F9330A6
:1008E00020F490E080E00C94651798E5980F97311C
:1008F00020F490E080E00C947B178D3E20F00E9465
:1009000054130C94CD1308951F93CF93DF93182F96
:10091000EB010E940704209731F4812FDF91CF91E2
:100920001F910C9455048FE99FE00197F1F700C0E7
:1009300000002197F0CF70E060E0893311F460E5AA
:1009400070E00C948404882321F00E947C0C0C94A9
:10095000B90C0895882321F00E94820C0C94B90CE4
:10096000089590E080E00E94651790E080E00E948A
:100970007B170E94990C0E94B90C0E94F4140C94ED
:10098000CD130E94620C0C94B1040E94890C0C944B
:10099000C10492959F70963091F058F4925F9F70C9
:1009A000923058F4803F19F030F4883E30F481E002
:1009B00008959A5FF4CF843FD1F380E00895883E94
:1009C000B0F3813FD1F7F3CFFC01808191810E9488
:1009D00058090C94C9044F925F926F927F92BF9214
:1009E000CF92DF92EF92FF920F931F93CF93DF93FB
:1009F0006C01EB01FC011281058102950F700E94D0
:100A0000720CE82E8823B9F0E12E1123A1F08D2F6E
:100A1000807F803421F080E28C0F8830D0F080918C
:100A2000870282FD16C082E00E941A0D0E94720C9D
:100A300091E0E82EE926BD2EB2942FE0B222FBE031
:100A4000FB1508F46EC0EB2DF0E0E056FF4D0C9462
:100A50003520E12CF0CF2D2F2F70F22E8D2F807F9F
:100A600019F0F29490EFF922112399F0FF2059F038
:100A700080E28C0F883010F0C11107C08F2D0E94CA
:100A80007C0C0E94B90C8C2F44C08F2D0E948C0CC2
:100A9000F8CF8C2F0E945504FF2009F442C080E259
:100AA0008C0F883010F0C11104C08F2D0E94820C71
:100AB00003C08F2D0E94920C0E94B90C32C03D2FB2
:100AC0003F70F32E8D2F807F803219F0F29480EFEB
:100AD000F822CC2381F0C13009F474C0112309F449
:100AE0007CC0002309F473C0F601858180FFCBCF61
:100AF0008F7085836CC08091870282FF45C011236F
:100B000059F0FF2029F08F2D0E947C0C0E94B90C17
:100B100080E00E94070405C080E00E945504F110A7
:100B2000C4CFEB2DE850FF0B349720F40E9431170F
:100B30000E949703CE010E94C904811186C11092C0
:100B4000910110929001EE2009F4A0C10E946E0C58
:100B500080FD9CC1F60112820E94680C0E9426084A
:100B6000C6010E946B070E94680CDF91CF911F9114
:100B70000F91FF90EF90DF90CF90BF907F906F909C
:100B80005F904F900C944708112381F0011106C02B
:100B90000E949C0C8F290E94A304C3CF0130C1F78F
:100BA0000E949C0C8F290E94A20CBBCF011106C091
:100BB0000E94AF0C8F2D0E94AA04B3CF013009F41C
:100BC000B0CFF6CF112329F0063008F0AACF8F2D31
:100BD000E2CF053008F0A5CFEDCF002359F3C9339C
:100BE00049F4FFEF27EE33E0F15020403040E1F7C9
:100BF00000C000008C2F0E94550493CF8D2F869546
:100C00008695837061F0813009F08BCFCE019370AF
:100C1000111102C090E080E00E947B1782CFCE01CC
:100C20009370111102C090E080E00E94651779CFA7
:100C30008C2F112329F00E94FA120E94CD1371CF3C
:100C40000E945413FACF8D2F837009F043C0111105
:100C500068CF2C2F229526952770220F220F6C2FFC
:100C60006F70462E512C712C612C022E04C0440C46
:100C7000551C661C771C0A94D2F760E070E0CB012B
:100C8000C4FF0FC06FE070E080E090E004C0660F2A
:100C9000771F881F991F2A95D2F7609570958095C8
:100CA00090952D2F269526952370642975298629E0
:100CB0009729223049F058F4213019F00E94DA07C0
:100CC00030CF0E94C8072DCF0E94EC072ACF0E9488
:100CD000C60727CF8695112311F08D2F81708823A9
:100CE00009F41FCF2C2F229526952770220F220F53
:100CF0006C2F6F70462E512C712C612C022E04C06B
:100D0000440C551C661C771C0A94D2F760E070E016
:100D1000CB01C4FF0FC06FE070E080E090E004C042
:100D2000660F771F881F991F2A95D2F760957095D7
:100D3000809590952D2F26952695237064297529E9
:100D400086299729223049F058F4213019F00E9461
:100D50009D08E7CE0E948B08E4CE0E94AF08E1CE4A
:100D60000E940008DECE8D2F8F70F82E112321F007
:100D70000E9426088C2F0FCF8C2F0E94AA048F2D43
:100D80000E944708CECEC23F41F160F4C03FB9F0A7
:100D9000C13F81F0112309F448C0011174CE8D2F99
:100DA0008F711FC0C33F01F1C43FA1F7809187023B
:100DB00082FF24C08D2F8F71112311F312C01123D4
:100DC00041F0053008F0ADCE8D2F8F710E946A087A
:100DD000A8CE063008F0A5CEF7CF8D2F8F71111158
:100DE000CFCF0E9426089DCE112329F08D2F8F7121
:100DF0000E94110896CE0E940C0893CE112359F040
:100E00009D2F9F71F92E892F0E94260863E08F2D58
:100E10000E94FF0C86CE81E00E941A0D023008F479
:100E200080CE82E00E941A0D7CCE002359F0C93397
:100E300009F0E0CEEFEFF7EE23E0E150F040204084
:100E4000E1F7D6CE8D2F8F719BCF112319F00111B1
:100E500076CE79CE011173CE20E0F601408151812A
:100E60006281738184810E948402B6010E947402AF
:100E7000882309F464CE80919001909191010297AA
:100E800009F05DCE8C2F0E949B0459CEDF91CF914B
:100E90001F910F91FF90EF90DF90CF90BF907F90C8
:100EA0006F905F904F9008950F931F93CF93DF93B0
:100EB000EC01688179818A810E9462098C010E941B
:100EC000C1080E94C507B801CE01DF91CF911F91E3
:100ED0000F910C94EB04CF93DF93EC018B819C81F9
:100EE000892B29F08881998189238F3F59F4DF91DB
:100EF000CF910895CE010E945407CE01DF91CF918A
:100F00000C94C202CE010E9435038111F3CF0E94DE
:100F1000720C882361F38A81882349F380918702C8
:100F200082FDE5CF82E0DF91CF910C941A0DCF9333
:100F3000DF9300D000D00F92CDB7DEB70F900F90A7
:100F40000F900F900F90DF91CF910895CF93DF9383
:100F500000D000D000D0CDB7DEB726960FB6F894FB
:100F6000DEBF0FBECDBFDF91CF91089508950C94E1
:100F7000B6070E94B7076093B4017093B5018093E0
:100F8000B6019093B7010C94B10408950C94B9077D
:100F90000F931F930091B4011091B5012091B601F8
:100FA0003091B701602B712B822B932B1F910F91E6
:100FB0000C94B9070F931F930091B4011091B501E0
:100FC0002091B6013091B7016023712382239323CE
:100FD0001F910F910C94B9070F931F930091B401C7
:100FE0001091B5012091B6013091B70160277127AA
:100FF000822793271F910F910C94B9070C946C02D0
:101000000E94FE076093B0017093B1018093B2011A
:101010009093B3010C94B10460E070E0CB010C94A8
:1010200000080F931F9341E050E060E070E08A01F8
:101030009B0104C0000F111F221F331F8A95D2F796
:10104000C901B8011F910F910C9400080F931F93D1
:1010500041E050E060E070E004C0440F551F661F9F
:10106000771F8A95D2F78091B0019091B101A0913C
:10107000B201B091B3018A019B01082B192B2A2BD5
:101080003B2BC901B8011F910F910C9400080F93DD
:101090001F9341E050E060E070E004C0440F551F32
:1010A000661F771F8A95D2F7CB01BA0160957095BC
:1010B000809590950091B0011091B1012091B201FD
:1010C0003091B30160237123822393231F910F91E9
:1010D0000C9400080F931F9341E050E060E070E033
:1010E00004C0440F551F661F771F8A95D2F7809161
:1010F000B0019091B101A091B201B091B3018A0108
:101100009B01082719272A273B27C901B8011F91EE
:101110000F910C9400080F931F930091B001109150
:10112000B1012091B2013091B301602B712B822B60
:10113000932B1F910F910C9400080F931F93009114
:10114000B0011091B1012091B2013091B30160233F
:101150007123822393231F910F910C9400080F9306
:101160001F930091B0011091B1012091B201309113
:10117000B30160277127822793271F910F910C9449
:10118000000808952CE0929F800D1124982F9770ED
:1011900041E001C0440F9A95EAF7869586958695B9
:1011A00095E0899FF0011124EE56FE4F90E080E01B
:1011B00070E05191DF0111979B01082E02C0369516
:1011C00027950A94E2F721702195252724232527C6
:1011D0002C9301968530910561F708952CE0929F3C
:1011E000800D1124982F977086958695869525E019
:1011F000829FF0011124EE56FE4F50E040E080E067
:10120000219130E0092E02C0369527950A94E2F725
:1012100021703327042E01C0220F0A94EAF7822B93
:101220004F5F5F4F4530510559F70895BF92CF92F8
:10123000DF92EF92FF920F931F93CF93DF938C0176
:10124000C090B001D090B101E090B201F090B30134
:101250008091B4019091B501A091B601B091B70110
:10126000C82AD92AEA2AFB2ACFE1D0E0BC2ED7012E
:10127000C6010C2E04C0B695A795979587950A943C
:10128000D2F780FD0EC0219788F7B12C8B2DDF910E
:10129000CF911F910F91FF90EF90DF90CF90BF9073
:1012A0000895B8018C2F0E94FA0F019761F3EECFD9
:1012B000CF93DF93EC010E941609BE01DF91CF911D
:1012C0000C94FA0F1F93CF93DF93EB0190918F0152
:1012D000992331F0CB01DF91CF911F910C945809E4
:1012E000882379F0CB010E941609182F682FCE01B0
:1012F0000E94C208BE01812FDF91CF911F910C94F3
:10130000FA0FCB010E94EE08182FF4CF1F93CF9352
:10131000DF93C091B80116E08091B9018C1304C02D
:10132000DF91CF911F910895D0E01C9FF0011D9F88
:10133000F00D1124E654FE4F40815181628173818A
:10134000848195810E94A6072196C770E5CF4091C0
:10135000EA015091EB016091EC017091ED018091F7
:10136000EE019091EF010C94A607FF920F931F934B
:10137000CF93DF938091EF01807FD1F48091EC01D6
:101380008823B1F08091B8011091B9016091EA0110
:101390007091EB01A091ED01B091EE01062F0723B2
:1013A000C0910001D091010196E0F92E181306C0FA
:1013B000DF91CF911F910F91FF90089590E01097CA
:1013C00011F00F3F19F401968770F0CFF89E90014D
:1013D000F99E300D1124F901E654FE4F4181471367
:1013E000F2CF40814613EFCF42814111ECCF4381D0
:1013F00054814A1B5B0B4C175D0728F78091EF0166
:101400008F7080618093EF01F901E154FE4F80817C
:101410008F70806180838AEE91E00E946B07DF917C
:10142000CF911F910F91FF900C948609AF92BF92BC
:10143000CF92DF92EF92FF920F931F93CF93DF93A0
:10144000CDB7DEB761970FB6F894DEBF0FBECDBF44
:101450008C0185E0F801DE011D9601900D928A95C0
:10146000E1F7F801E2808AEEC82E81E0D82E609183
:10147000ED017091EE016115710509F45FC1909164
:10148000EA012091EB01892F82238F3F09F456C195
:1014900040815181A380B480F090EC01F501E61BFE
:1014A000F70BBF01E0910001F0910101FF2009F469
:1014B000F6C08091EF01382F307F6E177F0708F05C
:1014C000AFC0311179C0FE2C251323C0941321C065
:1014D000E1101FC08F7080618093EF010E94A70907
:1014E000C6010E946B078091EF01F80185838F2D63
:1014F00061960FB6F894DEBF0FBECDBFDF91CF91DE
:101500001F910F91FF90EF90DF90CF90BF90AF9021
:101510000895AB2829F0842F85238F3F09F027C138
:1015200080E0F82FF170DF2E80FF3CC08091B80181
:101530002091B90136E0821315C04D875E878D85F5
:101540009E850E945809292F22952F702230F0F095
:10155000243018F59F70F1F0F8019581907FD1F457
:10156000D12C1EC090E0389FF001399FF00D11245E
:10157000E654FE4F6181651306C06081641303C0A9
:1015800062816E110FC001968770D5CF9F7011F0E8
:10159000882331F3805E883018F3C8010E946B07FE
:1015A000FD2CA5CFEE2009F4A2CF8091EF01816040
:1015B0008093EF01F12C9BCF251306C0941304C038
:1015C000F801EE2009F487C0C8010E94E4048823D2
:1015D00019F1EE2009F18091EF01803270F0209135
:1015E000EA013091EB0138872F831986BB86AA86E2
:1015F0008C87CE0107960E946B0786E0F801AAEE61
:10160000B1E001900D928A95E1F70E94B5090E9420
:10161000A709FF24F3946BCFC8010E946B07F9CF91
:10162000311113C07A2DB98AA88A6E2D89890E943A
:1016300097078AEE91E00E946B0786E0F60111920F
:101640008A95E9F70E94A709B5CF25130FC0941317
:101650000DC0E1100BC0F8018583C8010E946B0723
:1016600086E0F60111928A95E9F741CFC8010E9400
:10167000E404882389F2EE2079F28091EF01803230
:1016800008F4BBCF2091EA013091EB013A83298322
:101690001B82BD82AC828E83CE010196ACCF6E17C9
:1016A0007F0708F03EC0FE2CEE2009F4B5CF2513CD
:1016B0002AC0941328C08091EF0180FD1BC0982F91
:1016C000907FC1F0F8018583903F31F0982F907F93
:1016D000905F8F70892B8583C8010E946B0786E01D
:1016E000F801AAEEB1E001900D928A95E1F70E940F
:1016F000A709FDCE86E0F801AAEEB1E001900D92B7
:101700008A95E1F7F4CEC8010E94E404811175CFF7
:101710008091EF0181608093EF01C8010E946B0707
:10172000E6CE7A2DB98AA88A6E2D89890E949707FC
:1017300086E0F60111928A95E9F7D9CFEE2009F4F7
:101740006BCFC8010E94E404F82E882309F464CF0B
:1017500086E0F801AAEEB1E001900D928A95E1F7DA
:101760008AEE91E00E9402040E94B509C0CF81E098
:101770008E25D7CE1F93CF93DF93CDB7DEB72C97AF
:101780000FB6F894DEBF0FBECDBF4F835887698771
:101790007A878B879C87CE0107960E94160A88233A
:1017A00069F08A859B85892B39F04F815885842F74
:1017B00085238F3F09F071C016E05FC086E0FE010F
:1017C0003796DE01119601900D928A95E1F78A8590
:1017D0009B85892B89F388859F8189238F3F61F3BE
:1017E0002091B90130E0C901019687709927409195
:1017F000B8014817190671F40E94C5041092B90186
:101800001092B80186E0EAEEF1E0DF011D928A95C0
:10181000E9F7D2CF96E0929FD001939FB00D1124AB
:10182000A654BE4FFE01319601900D929A95E1F7B4
:101830008093B9010E948609BFCF819FC001112406
:1018400086549E4F0E94160A8823E9F0E091B80161
:101850001E9FF0011124E654FE4F408151816281A8
:101860007381848195810E94A6078091B80190E0E0
:101870000196877099278093B8018091B801909163
:10188000B9018913DACF2C960FB6F894DEBF0FBEDC
:10189000CDBFDF91CF911F91089569857A858B85A2
:1018A0009C850E94A60788CF682F809102019091A5
:1018B00003010C942518682F809102019091030177
:1018C0000C94301880910201909103010C943B1804
:1018D00080911002859585958595089580911002D7
:1018E0008770089590911002977081E009F480E06C
:1018F000089580913302089590913302892B80934B
:101900003302089580959091330298239093330287
:10191000089510923302089590913202892B80939A
:10192000320208958095909132029823909332026A
:101930000895109232020895809111020895089539
:101940000C949F0C9091870292FD08C09091110217
:10195000981721F0809311020C94A00C08958091A7
:101960001102882329F01092110280E00C94A00C3F
:101970000895CF93DF93E0910201F09103018091EC
:1019800033028083E0910201F09103018081909104
:101990003202892B808390911102992381F0E0918A
:1019A0000201F09103018081892B808380910201E3
:1019B000909103010E94911781110E94AF0CC09178
:1019C0000201D091030140E250E060EF71E0CE01EE
:1019D0000E944F20892B69F080E2FE01A0EFB1E068
:1019E00001900D928A95E1F7CE01DF91CF910C9491
:1019F0003D17DF91CF91089508950C94FC0C9091C0
:101A0000870292FD10C098E0899F90011124622BFB
:101A1000609310020E94260880911002859585959A
:101A200085950C94FD0C0C9426081092100280E011
:101A30000C94FD0C909110028095892380931002E4
:101A4000282F277091F4282F082E000C330B9217A3
:101A5000130659F09091870292FD07C085958595F0
:101A600085950E9447080C94150D08959091870262
:101A700092FB222720F9281769F080FB92F99093B6
:101A8000870280918602909187020E94810D82E0F8
:101A90000C941A0D08958091870282FB882780F9A3
:101AA00091E089270C94360D81E00C94360D80E08E
:101AB0000C94360D6FEF7FEF90E080E00C9488205F
:101AC00090E080E00E94642021E0893E9E4F09F072
:101AD00020E0822F089582E090E00C945C2083E067
:101AE00090E00C945C20CF9384E090E00E945C2016
:101AF000C82F82E290E00E945C20982F8C2FCF911B
:101B00000895CF93C92F682F84E090E00E946A2047
:101B10006C2F82E290E0CF910C946A20AB01BC0163
:101B20008FE090E00C947C20AB01BC0183E190E05D
:101B30000C947C2060E070E0CB010C94940D60E08C
:101B400070E0CB010E948E0D0C949A0D69EE7EEF31
:101B500090E080E00E94882060E082E090E00E94B7
:101B60006A2060E083E090E00E946A201092B40155
:101B70001092B5011092B6011092B70160E084E0B6
:101B800090E00E946A2060E082E290E00E946A2079
:101B900060E085E090E00E946A2060E086E090E0EE
:101BA0000E946A206FEF87E090E00E946A2040E088
:101BB00050E0BA0188E090E00E947C2060E08DE077
:101BC00090E00E946A2040E050E0BA0188E190E095
:101BD0000E947C2060E087E190E00E946A2040E063
:101BE00050E0BA018CE190E00E947C2070E060E05F
:101BF00080E290E00E94882040E050E0BA0188E155
:101C000090E00E947C200C949F0D0C94A60D682FF0
:101C10008EE090E00C946A200E94F01860934002DD
:101C200070934102809342029093430260933C027E
:101C300070933D0280933E0290933F02089585B7D2
:101C4000806885BF85B7806885BF08950895089529
:101C50000C94270E08950C942A0E0E941F0E88EDF6
:101C600090E10E9427170E94260E0C94280E81E016
:101C700008950C94370E089508950E943B0E0C941D
:101C80003C0E0E94F2100C9496030E94DB180E94F6
:101C9000D0110E94410E0C942B0E5F926F927F9296
:101CA0008F929F92AF92BF92CF92DF92EF92FF926C
:101CB0000F931F93CF93DF93CDB7DEB72A970FB65D
:101CC000F894DEBF0FBECDBF0E94E511A82E811192
:101CD0000E940C0E34E3832E32E0932E10E000E0DD
:101CE000502E802F0E941C116C01F40161907190A4
:101CF0004F016816790609F454C08091440281FDB1
:101D00000E942511B12CEE24E394F12C6C247D2447
:101D1000C3018E219F21892BF1F10E94390E882366
:101D2000A9F0BE825F82CE20DF2081E0CD2809F4B9
:101D300080E088870E94E4188160782F9A878987DD
:101D40004E815F8168858A850E94B103000F111F53
:101D5000F801EC5CFD4F80819181E826F926F18243
:101D6000E08281E0A11001C080E02A960FB6F894CD
:101D7000DEBF0FBECDBFDF91CF911F910F91FF90BE
:101D8000EF90DF90CF90BF90AF909F908F907F901B
:101D90006F905F900895B394EE0CFF1CFCE0BF12AF
:101DA000B7CF0F5F1F4F0430110509F099CF8FEFA8
:101DB00089838A831B820E94E4188160782F9D8327
:101DC0008C8349815A816B818D810E94B103C9CF77
:101DD0000E944D0E0E94E8130C94A603CF93DF934C
:101DE0000E94FE0FEC01811521E5920708F042C028
:101DF000811530E5930708F09DC0883E910530F5C8
:101E0000803E910508F092C0883A910588F4853AA1
:101E1000910508F084C08130910509F487C00097CE
:101E200009F484C0049708F081C0D0E0C0E07EC00F
:101E30008F3B9105D0F7C85AD0E0CC0FDD1FC65BB1
:101E4000DE4F0990D881C02DD46470C081159042B6
:101E500050F4C11581E0D80708F068C0CD3ED10527
:101E600020F3D06563C0C11590E4D907F0F2DF70AC
:101E7000D06A5CC0811525E5920700F5811534E52F
:101E8000930708F08BC0811543E5940708F073C0F1
:101E9000C11582E5D80708F469C0CE01837099277F
:101EA00021E030E002C0220F331F8A95E2F7C69589
:101EB000C69580E2C89FE001112454C0C11599E580
:101EC000D907A8F4C11528E5D20708F06CC0C115E0
:101ED00036E5D30708F0A9CF8C2F0E949510C82FA4
:101EE000D0E0DC2FCC27CC27DF71D0621FC0C1151A
:101EF0004AE5D40708F45CC0CE01905681159042A3
:101F000008F093CF8D2F8F710E94951090E0982F3D
:101F1000882788279F719C012C2BE901E6CFC55AA1
:101F2000D0E0C858DE4FC881D0E0D064CE01DF9148
:101F3000CF910895E4E096958795EA95E1F783704F
:101F40002C2F26952695237040E2249F9001112482
:101F5000382B8C2F8370C1E0D0E002C0CC0FDD1F86
:101F60008A95E2F7C22BD32BDC68E0CFDC2FCC279D
:101F7000C16FD06ADBCF8370992721E030E002C0C7
:101F8000220F331F8A95E2F7C695C69590E2C99F46
:101F9000E0011124C22BD32BDA68C8CFD82FCC276D
:101FA000C46FD06AC3CFDC2FCC27C06FD06ABECF3E
:101FB0008C2F8F700E94951034E0D695C7953A9576
:101FC000E1F7CF709C2FEC01D069B0CF972F70E074
:101FD0002CE0929F600D711D1124FB0190E3899FFD
:101FE000E00DF11D1124EE0FFF1FE455FF4F859109
:101FF000949108950E94E60F0C94EE0E823891059C
:10200000B1F1B0F48133910509F475C048F4893217
:10201000910509F469C08A32910509F473C00895E5
:102020008533910509F459C08933910501F108956B
:10203000833E9105A9F138F4803E9105F9F0823E86
:10204000910549F10895863E9105A9F1873E9105D4
:10205000C9F1843E910519F52091870221FF1FC027
:102060008091860284FD14C087EE90E0089520914F
:1020700086022370A1F080EE90E008952091860200
:1020800020FD47C03091870230FF09C024FF44C0C3
:1020900090E080E004C02091860222FDF7CF0895F1
:1020A0002091860222FD3BC03091870230FDE3CFB4
:1020B00024FFF5CFEDCF2091860223FFF0CF24FD42
:1020C000E7CFD2CF2091860223FD2CC0309187022A
:1020D00031FFEECF84EE90E008952091860225FF37
:1020E000DECF89E290E008952091860225FFD7CFC8
:1020F00085E390E008952091860226FFD0CF8AE202
:1021000090E008952091860226FFC9CF81E390E0F8
:10211000089589E390E0089583EE90E0089582EEBB
:1021200090E0089586EE90E008959091860292FFE7
:1021300006C0282F28712830F9F4877F846093FF28
:1021400006C0282F28712831F1F4877E8461209100
:10215000870220FF06C0382F38713830D9F4877FC6
:10216000816021FF06C0282F28712831D1F4877E95
:10217000816194FD877E0895282F24712430F9F61B
:102180008B7F8860DCCF282F2471243101F78B7E70
:102190008861DDCF382F3171313019F78E7F88603B
:1021A000E0CF282F2171213121F78E7E8861E1CF88
:1021B00080E008950C945A0D0E94E5118FE39CE98C
:1021C0000197F1F700C000000E94E51180E00E9435
:1021D0001C1180FF04C00E94DA100C942F1908957E
:1021E0000C94DC100E94600D811102C00E94050E4B
:1021F0000E946B0D809344020E94730D909387029E
:10220000809386020E94F0100E946F0D682F70E08C
:1022100090E080E00E94C6076091B0017091B1012A
:102220008091B2019091B3010C94FE0708950C9433
:10223000161108950C941911E82FF0E0EE0FFF1F0E
:10224000E057FD4F808191810895089580EA8A9535
:10225000F1F7089500C008950C942611F894E82F22
:10226000E295EF70F0E031A1282F2F7081E090E02F
:1022700001C0880F2A95EAF7982F9095932391A390
:1022800092A1892B82A378940895CF93DF9380E362
:102290000E942E1181E30E942E1182E30E942E11D2
:1022A00083E30E942E11CBE7D1E089918F3F11F09B
:1022B0000E942E1181E0C738D807B9F7DF91CF917E
:1022C0000895AF92BF92DF92EF92FF920F931F9308
:1022D000CF93DF938C01D62EC62FD0E0CE01895745
:1022E0009E4F7C01FC0120812F3F09F44CC0F894E3
:1022F000E22FE295EF70F0E031A12F7081E090E0E5
:1023000001C0880F2A95EAF7932F982B91A392A1E9
:102310008095892382A378940E942A11EBE7F1E04B
:1023200041E050E0B12CA12C21912F3FB1F1A22F1F
:10233000A295AF70B0E090968C9190E02F7002C0A3
:10234000959587952A95E2F780FD27C0CA01A82AAE
:10235000B92A440F551F81E0E738F80729F7F7013C
:1023600080818F3F11F00E942E1161E0A114B10411
:1023700009F460E08D2D0E942C11CC0FDD1FC00FE1
:10238000D11FB982A882DF91CF911F910F91FF9049
:10239000EF90DF90BF90AF90089590E080E0D7CFAE
:1023A0000E94451188E0E0E9F2E0DF01982F1D92DC
:1023B0009A95E9F7E8E8F2E0DF011D928A95E9F7DE
:1023C00084E00E9430120C942103FF920F931F931C
:1023D000CF93DF93CDB7DEB728970FB6F894DEBF63
:1023E0000FBECDBF8E010F5F1F4F88E0F801119225
:1023F0008A95E9F7F12C6F2DC8010E946111F394C1
:10240000F4E0FF12F8CF48E050E0B80188E892E02D
:102410000E944F20FF24F394009709F4F12C892B9C
:1024200041F088E0F801A8E8B2E001900D928A95A9
:10243000E1F72F2D44E060E972E088E892E00E9425
:1024400031120E9423038F2D28960FB6F894DEBF19
:102450000FBECDBFDF91CF911F910F91FF900895D7
:102460000895FF920F931F93CF93DF93F82E092FB8
:10247000162FD72FC42F222349F081E080934702E3
:102480000E94E4189093460280934502809147028F
:102490008823A1F080914502909146020E94FC1889
:1024A000059760F0EF2DF02FA12FBD2F90E080E079
:1024B000D0E08C179D0744F010924702DF91CF9136
:1024C0001F910F91FF900895219131912D933D938C
:1024D0000196EFCF0E94F51A0E94450E0C94011B45
:1024E0000E94051B0E94E80E0C941F1B0E9484187A
:1024F0000E94DC1A0E942D0E0E946A120E94701225
:102500000E943D0EFBCF80914E0280FF0DC0609176
:10251000090170E0660F771F6038710570F561156D
:10252000710569F1862F089581FF07C06091090147
:1025300084E0689FB0011124EFCF6091090182FD12
:102540000AC080914D028823A9F020910801609172
:102550000901821710F088E0ECCF869FC00111249A
:1025600033E0880F991F3A95E1F7622F70E00E94DF
:102570002120D2CF68E070E0D5CF8FE7089581E0C9
:10258000089580914E0280FF0CC06091050170E0BB
:1025900075956795759567956115710549F1862F54
:1025A000089581FF06C06091050170E075956795FB
:1025B000F3CF6091050182FD0BC090914C029923ED
:1025C000A1F06091040180910501961738F0682F01
:1025D00070E06038710500F38FE70895899FC001AE
:1025E000112470E00E942120F4CF61E070E0D7CF89
:1025F00081E008958D3E31F40E948312819580938D
:10260000520208958E3E19F40E948312F8CF8F3E35
:1026100031F40E9483128195809351020895803F86
:1026200019F40E948312F8CF893F29F40E94C11245
:102630008093530208958A3F21F40E94C11281952C
:10264000F7CF8B3F31F40E94C112819580935402E1
:1026500008958C3F19F40E94C112F8CF9FE0980FA3
:10266000983070F4815F990B21E030E001C0220FB7
:102670008A95EAF780915002822B80935002089548
:102680008D3F31F480914E02816080934E02089517
:102690008E3F21F480914E028260F7CF8F3FB9F7D1
:1026A00080914E028460F1CF409151028D3E59F4E9
:1026B0008091520287FF0DC01092520241110BC04F
:1026C00010924D0208C08E3E81F48091520218167D
:1026D0009CF3442381F08091530290915402892B02
:1026E00009F05AC010924C0208958F3E49F447FFFA
:1026F000F0CF10925102809152028111ECCFE0CFC5
:10270000803F19F41416ACF3E4CF90915302893F43
:1027100029F41916F4F610925302DBCF8A3F19F40C
:1027200097FFD7CFF8CF909154028B3F29F497FFB2
:10273000D0CF10925402CDCF8C3F19F41916CCF3A0
:10274000C8CF9FE0980F983090F4815F990B21E0FB
:1027500030E0B90102C0660F771F8A95E2F7CB011E
:10276000809590915002892380935002B2CF8D3F83
:1027700031F480914E028E7F80934E02AACF8E3F1D
:1027800021F480914E028D7FF7CF8F3F09F0A1CFCA
:1027900080914E028B7FF0CF08950E94E4189C0137
:1027A0009091510280915202982B21F030934B026C
:1027B00020934A029091530280915402982B21F069
:1027C00030934902209348028FE492E00C9457170B
:1027D000EF92FF920F931F93CF93DF9300D000D01F
:1027E00000D0CDB7DEB786E0EFE4F2E0DE0111966F
:1027F00001900D928A95E1F7E0905102F09052021B
:102800000091530210915402109251021092520200
:1028100010925302109254028E2D8F2991F08091C4
:102820004A0290914B020E94FC18AC0190914D021B
:10283000992309F43FC080910A018417150608F412
:1028400047C0802F812B91F08091480290914902DE
:102850000E94FC18AC0190914C02992309F477C0B6
:10286000809106018417150608F47FC080915102FB
:1028700090915202892B90915302892B909154028E
:10288000892B11F00E94CD1386E0FE013196AFE452
:10289000B2E001900D928A95E1F726960FB6F89472
:1028A000DEBF0FBECDBFDF91CF911F910F91FF9083
:1028B000EF90089520910B018AE0289F9001112448
:1028C0002417350708F0BDCF9F5F90934D0202C0DB
:1028D0009F3FD1F7EE2059F00E9483129FEF1E1404
:1028E0000CF491E0899F802D112480935102FF20E8
:1028F00059F00E9483129FEF1F140CF491E0899FFE
:10290000802D11248093520230915102332309F417
:1029100098CF20915202222309F493CF45EB340340
:10292000C0011124992359F09093510245EB2403DF
:1029300090011124332339F03093520282CF81E089
:1029400080935102F3CF81E0809352027ACF20919D
:1029500007018AE0289F900111242417350708F009
:1029600085CF9F5F90934C0202C09F3FD1F7002319
:1029700059F00E94C1129FEF10160CF491E0899F4C
:10298000802D112480935302112359F00E94C1120B
:102990009FEF11160CF491E0899F802D11248093F4
:1029A000540230915302332309F460CF2091540232
:1029B000222309F45BCF45EB3403C0011124992392
:1029C00059F09093530245EB2403900111243323D3
:1029D00039F0309354024ACF81E080935302F3CF11
:1029E00081E08093540242CF86E0EFE4F2E0DF0121
:1029F0001D928A95E9F710924D0210924C021092A6
:102A00004E020895CF93DF93EC01FB01828188236E
:102A100009F433C1C430FDE5DF07C0F5CB3F9CE5C9
:102A2000D90730F49E0122503C4524313105B0F5E0
:102A30000E94730D9093870280938602C1318CE5CA
:102A4000D80709F4EEC008F069C0C930ECE5DE072C
:102A500009F4D5C0C8F5C5308CE5D80709F4C7C05E
:102A600000F5C330ECE5DE0709F4B9C008F0BBC0DF
:102A7000C230DC4509F4ADC0809186029091870296
:102A80000E94810D0E94C50480E008C0C236EDE5B9
:102A9000DE0771F2C63AFDE5DF0751F2DF91CF9113
:102AA0000895809186028062C7309CE5D90709F4B9
:102AB00093C0809186028061C830DC4508F48CC0E8
:102AC00080918602806488C0809186028B7FCD30A1
:102AD000FCE5DF0709F480C098F4809186028E7FC0
:102AE000CB309CE5D90709F477C0809186028C60D1
:102AF000CC30DC4508F470C0809186028D7F6CC0BC
:102B0000809186028F7ECF30FCE5DF0709F464C038
:102B100008F47BC0809186028F7D5EC0CE3F9CE52D
:102B2000D90709F47AC050F5C531FCE5DF0709F48F
:102B300086C098F480918602837FC3319CE5D907D3
:102B400009F44AC008F471C00E94C504909186023D
:102B5000892F97FB87F980583FC0CC3FFCE5DF0702
:102B600009F449C008F055C0809187028160CB3FCD
:102B7000DC4509F081CF809387027ECFC230EDE53E
:102B8000DE0709F468C0A8F4C1158DE5D80709F47B
:102B900052C0809187028360C130DD4560F380912F
:102BA0008702982F909591708E7F892B90FB81F9E9
:102BB000E2CFC236EDE5DE0709F451C0C63AFDE5C5
:102BC000DF0709F453C0C330DD4509F055CF80E07D
:102BD00043C0809186028160809386024DCF8091B0
:102BE00086028260F9CF809186028460F5CF809161
:102BF00086028860F1CF809187028260BCCF0E94FC
:102C0000C504809186028068E7CF80918602877F25
:102C1000E3CF809187028E7FAECF809187028D7F38
:102C2000AACF809186028F7BD7CF0E94C504809166
:102C300086028F77D1CF809187028C7F9CCF809145
:102C4000860282FB992790F921E0922790FB82F976
:102C500090FB83F9C1CF81E00E94070E0DCF9091C8
:102C60008602892F8F7E94FF8061B6CF9091860275
:102C7000892F8E7F90FF8160AFCF81E00FCFCF9300
:102C8000DF93EB0186319C4511F50E94790C9A8106
:102C9000992399F08A7A91E009F490E09093550293
:102CA000811109C089E20E94540C0E94B90C80E095
:102CB000DF91CF91089585E3F6CF80915502811180
:102CC00004C089E20E945B0CF0CF85E3FBCF81E07A
:102CD000EFCF0F931F93CF93DF93C42FD22FFC011D
:102CE00082818823C9F0409358020E94E41890938F
:102CF00057028093560280E28C0F883008F050C053
:102D0000C77081E001C0880FCA95EAF7DF91CF91C3
:102D10001F910F910C94A30410915802141335C005
:102D200080915602909157020E94FC188D379105B0
:102D300060F5C0E2CD0F1D17B9F080E2810F883039
:102D400040F4177081E001C0880F1A95EAF70E94DD
:102D5000AA04C83048F481E09D2F977001C0880F05
:102D60009A95EAF70E94A304802F0E949B04C83022
:102D7000B8F4D77081E001C0880FDA95EAF7DF91E7
:102D8000CF911F910F910C94AA0480E28C0F883090
:102D900038F4C77081E001C0880FCA95EAF7EFCF19
:102DA000DF91CF911F910F9108950F939C01CB015B
:102DB000243F4CE5340759F1A8F4293DFCE53F07D1
:102DC00001F12A3D4CE53407D1F1283D3C4591F411
:102DD00006E221EE41EE68ED7CE50E94691680E096
:102DE0000F910895263FFCE53F07E9F0B0F0273F3B
:102DF0003C45F9F0FC018281882339F11092580298
:102E0000EFCF07E225EE45EE69ED7CE5E6CF06E281
:102E100021EE40EE64EF7CE5E0CF07E225EE44EEE4
:102E200065EF7CE5DACF06E221EE42EE66EF7CE567
:102E3000D4CF07E225EE46EE67EF7CE5CECF08E281
:102E400021E045EE6AED7CE5C8CF81E0C9CF9093E3
:102E50008D0180938C01089590935E0280935D02B2
:102E60000895E0915D02F0915E02309721F00190AB
:102E7000F081E02D099480E00895E0915D02F091E9
:102E80005E02309799F020911801222359F0209189
:102E9000860227FF07C0DC012C9111962C93119715
:102EA00026E02C930280F381E02D09940895E091AF
:102EB0005D02F0915E02309739F022E0DC012C9344
:102EC0000480F581E02D0994089520915B023091F2
:102ED0005C022817390771F090935C0280935B02C3
:102EE000E0915D02F0915E02309721F00680F7815B
:102EF000E02D099408952091590230915A02281723
:102F0000390771F090935A0280935902E0915D0263
:102F1000F0915E02309721F00084F185E02D099454
:102F20000895FC01329680911801882321F0809148
:102F300086029EE187FF96E080E0915008F40895B4
:102F400021912223D1F38F5FF8CF662301F12091E5
:102F500018012223F1F02091860227FF1AC0462F84
:102F60004695469546954E3190F4677021E030E0E5
:102F700002C0220F331F6A95E2F7840F911DFC01F6
:102F8000828190E02823392381E0232B69F480E0BB
:102F90000895FC01329608962191261721F0E81732
:102FA000F907D1F7F4CF81E008959C01FC01329636
:102FB0009FEF80E04191461751F09F3F19F4411176
:102FC00001C0982F8F5F8630A9F79F3F09F40895BD
:102FD000290F311D97FD3A95F90162830895FC018F
:102FE000329608962191261303C0DF0111971C9297
:102FF000E817F907B9F70895E62FE695E695E695FF
:10300000EE3168F4E80FF92FF11D677021E030E030
:1030100001C0220F6A95EAF78281822B828308958C
:10302000E62FE695E695E695EE3170F4E80FF92F78
:10303000F11D677021E030E001C0220F6A95EAF7C8
:10304000209582812823228308952091180122232C
:1030500029F02091860227FD0C94FC170C94D517BB
:1030600020911801222329F02091860227FD0C943B
:1030700010180C94EF17FC013296809118018823E8
:1030800051F08091860287FF06C08EE1DF011D921C
:103090008A95E9F7089586E0F9CF08950C944D18C4
:1030A000811105C081E080935F020C944E1882E08C
:1030B000FACF83E080935F020C944E180C94501862
:1030C00081E080935F020C944E180C946018089570
:1030D00008950C946818089508950C946718CF9378
:1030E0000E946B180E94E5110E946C18C0E08C2FA2
:1030F0000E941C11892B31F4CF5FC430C1F780E0EE
:10310000CF91089581E0FCCF08951F921FB61F92C2
:1031100011248F939F93AF93BF938091600281118D
:1031200013C08091980290919902A0919A02B09157
:103130009B024196A11DB11D809398029093990224
:10314000A0939A02B0939B02BF91AF919F918F91F0
:103150001F901FBE1F9018958091A002843031F1FE
:103160000E9487031092600288E190E020E40FB68D
:10317000F894A895809360000FBE2093600083B7F9
:10318000817F846083BF83B7816083BF7894889593
:1031900083B78E7F83BF0FB6F894A89580916000A7
:1031A000886180936000109260000FBE08950E94B5
:1031B000C5040C948B0382E084BD93E095BD9AEF27
:1031C00097BD80936E0008952FB7F8948091980270
:1031D00090919902A0919A02B0919B022FBF0895FD
:1031E0002FB7F894609198027091990280919A0299
:1031F00090919B022FBF08959C014FB7F894809146
:10320000980290919902A0919A02B0919B024FBFAF
:10321000821B930B089578941F921FB61F9211245E
:103220008F939F93AF93BF9380919802909199024F
:10323000A0919A02B0919B020196A11DB11D8093AD
:10324000980290939902A0939A02B0939B02BF9127
:10325000AF919F918F911F901FBE1F90189581E095
:103260008093E00080E28093D8001092C9008FE143
:103270009EE40197F1F700C0000087E090EBDC01CD
:103280008093A9029093AA02A093AB02B093AC02E0
:1032900088E19CE00FB6F894A895809360000FBE7B
:1032A00090936000FFCF80918402089508959C015F
:1032B00082E08093E9009FEF8091E800915085FDC6
:1032C00006C085ED8A95F1F700009111F5CF809148
:1032D000E80085FF0CC050E040E066E070E0C90106
:1032E0000E94901B8091E8008E778093E8000895FB
:1032F000CF93DF93EC01809118018823B1F1809185
:10330000860287FF32C060E282E08093E9008FEF9F
:103310009091E800815095FD06C095ED9A95F1F7E2
:1033200000008111F5CF8091E80085FF1BC08091DE
:10333000180170E050E040E0811104C050E040E02E
:1033400068E070E0CE010E94901B8091E8008E77CB
:103350008093E80080E2FE01A4E6B2E001900D92C5
:103360008A95E1F7DF91CF91089568E081E0CDCFB4
:103370008093610270936302609362028091A00265
:10338000843001F582E08093E9008FEF9091E800AE
:10339000815095FD06C095ED9A95F1F700008111D9
:1033A000F5CF8091E80085FF0DC050E040E063E07C
:1033B00070E081E692E00E94901B8091E8008E7799
:1033C0008093E8000895BC0184E00C94B819BC0116
:1033D00083E00C94B81980919F02811109C00E946A
:1033E000201D0E947D1D8091E20084608093E20098
:1033F000089510929F0208950C94601860919C02A9
:1034000081E0611101C080E00C9459189091A002F4
:1034100081E0943009F080E060919C020C945E1889
:1034200042E061EC81E00E949C1C42E261EC82E09F
:103430000E949C1C9091A00281E0943009F080E0F1
:1034400060919C020C9450188091A202833009F480
:1034500060C030F48130C9F1823009F49CC0089515
:103460008A3009F488C08B3009F46EC0893009F0C5
:103470004FC08091A102813209F04AC08091A5021B
:103480009091A602029708F043C08091E800877FE0
:103490008093E8008091E80082FF36C09091F300AD
:1034A0008091F200029731F48091F100813011F0A7
:1034B000863021F48091F100809384028091E800AD
:1034C0008B778093E8000C94D01C8091A102813A04
:1034D000F9F48091E800877F8093E8008091A5024D
:1034E0009091A602892B61F460E284E692E070E09C
:1034F0000E94DF1B8091E8008B778093E80008959D
:1035000060E090E080E0F3CF8091A0028111C2CF13
:1035100008958091A102813AD9F78091A5029091F6
:10352000A602892BA9F78091E800877F8093E800A5
:103530008091E80080FFFCCF809118018093F1001A
:103540008091E8008E77BDCF8091A102813201F792
:103550008091A5029091A602892BD1F68091E80076
:10356000877F8093E8000E94D01C8091A302809303
:1035700018010C94C5048091A102813249F6809112
:10358000E800877F8093E8000E94D01C8091A4020D
:103590008093850208958091A102813A09F0B8CF05
:1035A0008091E800877F8093E8008091E80080FFA9
:1035B000FCCF80918502C2CF84B7877F84BF0FB6CE
:1035C000F894A895809160008861809360001092C3
:1035D00060000FBE80E890E00FB6F8948093610021
:1035E000909361000FBE0C9465180E94201D0E94EC
:1035F0007D1DE2EEF0E080818460808378940C94FD
:1036000006208CE091E00C942C178091A00285306C
:10361000A9F48091A002853011F00C94D7180E9473
:10362000AC1880919E028823A1F30E946F18882312
:1036300081F30E947A1B0E94C504EBCF0895089580
:103640000C94221B292F33272330310519F168F4FC
:103650002130310509F444C02230310509F445C058
:1036600090E080E030E020E025C02132310549F1D2
:1036700022323105A9F780E490E023E234E06115BD
:103680007105C1F086EB90E02DE633E06130710505
:1036900089F0E6CF99278130910581F0009729F0D4
:1036A0000297F1F6ECEEF2E002C0ECE1F3E0849177
:1036B00090E09F01FA01318320830895E2E0F3E076
:1036C000F6CF89E090E022E333E06115710591F3D4
:1036D00089E090E02BE433E06130710559F3C0CF0D
:1036E00082E190E02BE533E0E5CF8BE390E020E250
:1036F00033E0E0CF80E189BD82E189BD09B400FEFD
:10370000FDCF8091D8008F7D8093D8008091E0001C
:1037100082608093E0008091E00081FDFCCF0895FD
:10372000AF92BF92CF92DF92FF920F931F93CF93EE
:10373000DF936C01EB018A010E94EF1CF82E8111CE
:1037400023C00115110539F0F80180819181C81B52
:10375000D90BC80ED91EB12CA12C2097A9F08091AD
:10376000E80085FD22C08091E8008E778093E80014
:1037700001151105A1F0F80180819181A80EB91EF3
:10378000B182A08285E0F82E8F2DDF91CF911F911D
:103790000F91FF90DF90CF90BF90AF9008950E945F
:1037A000EF1C8823D1F2F82EEFCFF60181916F0143
:1037B0008093F1002197FFEFAF1ABF0ACECFFC0133
:1037C0008091A7029091A80286179707A0F0611533
:1037D000710529F49091E8009E779093E80090E0BD
:1037E0006115710551F4911108C08091E80082FFC4
:1037F00034C080E00895BC01F2CF8091A0028823FC
:10380000C1F18530C1F18091E80083FD30C0809125
:10381000E80082FDEACF8091E80080FFE1CF80914F
:10382000F3002091F200382F6115710519F028304E
:10383000310558F091E02830310509F090E02091F1
:10384000E8002E772093E800CBCF81918093F100A0
:10385000615071092F5F3F4FE7CF8091A00288230D
:1038600041F0853041F08091E80083FFBECF81E0D8
:10387000089582E0089583E00895FC018091A702F5
:103880009091A80286179707A0F06115710529F499
:103890008091E8008E778093E80090E061157105D3
:1038A00051F4911108C08091E80082FF35C080E09A
:1038B0000895BC01F2CF8091A0028823C9F1853020
:1038C000C9F18091E80083FD31C08091E80082FD5C
:1038D000EACF8091E80080FFE1CF8091F300209152
:1038E000F200382F6115710519F02830310558F0B4
:1038F00091E02830310509F090E08091E8008E7762
:103900008093E800CBCF84918093F1003196615091
:1039100071092F5F3F4FE6CF8091A002882341F0CD
:10392000853041F08091E80083FFBDCF81E00895AC
:1039300082E0089583E00895982F973028F08F70E3
:103940008093E90081E008959093E900242F762F79
:1039500050E0981731F07091EC002091ED005091FB
:10396000F00021FD02C09F5FE8CF3091EB003E7F69
:103970003093EB003091ED003D7F3093ED003091BE
:10398000EB0031603093EB007093EC002093ED007E
:103990005093F0002091EE0027FDE5CF80E00895E0
:1039A0008091A10287FF13C08091E80082FF06C0CA
:1039B0008091E8008B778093E80004C08091A0029A
:1039C0008111F2CF08958091A0028823D9F38091CC
:1039D000E80080FFF8CF8091E8008E77ECCF20914F
:1039E000E4003091E50095E6A9012091EC00822FDA
:1039F000817020FF06C08091E80080FF06C080E053
:103A000008952091E80022FD1AC08091A002882329
:103A100089F0853089F08091EB0085FD0FC0209101
:103A2000E4003091E50042175307F9F29150E1F6B6
:103A300084E0089582E0089583E0089581E0089588
:103A40000E948E1D0E94961DE0EEF0E08081816054
:103A50008083E8EDF0E080818F77808319BCA7ED4B
:103A6000B0E08C918E7F8C9380818F7E80831092CA
:103A70009F0208950F931F93CF93DF930E948E1D93
:103A80000E94961DC8EDD0E088818F778883888159
:103A90008068888388818F7D888319BC1092A002FA
:103AA00010929C0210929E0210929D0200EE10E075
:103AB000F80180818B7F808388818160888342E0E8
:103AC00060E080E00E949C1CE1EEF0E080818E7F4F
:103AD0008083E2EEF0E08081816080838081886075
:103AE0008083F80180818E7F8083888180618883D4
:103AF000DF91CF911F910F910895E8EDF0E0808163
:103B00008F7E8083E7EDF0E080818160808384E0B8
:103B100082BF81E080939F020C943A1DE8EDF0E0B3
:103B200080818E7F80831092E20008951092DA00E7
:103B30001092E10008951F920F920FB60F92112478
:103B40002F933F934F935F936F937F938F939F93A5
:103B5000AF93BF93EF93FF938091E10082FF0BC07F
:103B60008091E20082FF07C08091E1008B7F80930B
:103B7000E1000E9405208091DA0080FF19C0809149
:103B8000D80080FF15C08091DA008E7F8093DA0024
:103B90008091D90080FF96C080E189BD82E189BD16
:103BA00009B400FEFDCF81E08093A0020E94EB19D2
:103BB0008091E10080FF19C08091E20080FF15C074
:103BC0008091E2008E7F8093E2008091E20080612C
:103BD0008093E2008091D80080628093D80019BC65
:103BE00085E08093A0020E94FE198091E10084FF8D
:103BF0002BC08091E20084FF27C080E189BD82E173
:103C000089BD89B5982F917080FFFBCF8091D80036
:103C10008F7D8093D8008091E1008F7E8093E100BA
:103C20008091E2008F7E8093E2008091E2008160CB
:103C30008093E20080919C02882309F449C084E0CB
:103C40008093A0020E94061A8091E10083FF29C0A0
:103C50008091E20083FF25C08091E100877F8093FF
:103C6000E10082E08093A00210929C028091E1002A
:103C70008E7F8093E1008091E2008E7F8093E2004E
:103C80008091E20080618093E20042E060E080E0A9
:103C90000E949C1C8091F00088608093F0000E943C
:103CA000FC19FF91EF91BF91AF919F918F917F91FF
:103CB0006F915F914F913F912F910F900FBE0F9099
:103CC0001F90189519BC1092A0020E94F91970CF8C
:103CD0008091E30087FD93E09093A002B3CF1F9201
:103CE0000F920FB60F9211242F933F934F935F9330
:103CF0006F937F938F939F93AF93BF93CF93DF93F4
:103D0000EF93FF93D091E900DF708091EC00C82F12
:103D1000C17080FDC0E81092E9008091F000877FBB
:103D20008093F00078940E94B31E1092E900809175
:103D3000F00088608093F000CD2BCF70C093E90035
:103D4000FF91EF91DF91CF91BF91AF919F918F91B3
:103D50007F916F915F914F913F912F910F900FBE87
:103D60000F901F9018951F93CF93DF93CDB7DEB7B9
:103D7000AA970FB6F894DEBF0FBECDBF81EA92E0DE
:103D80002091F100FC012193CF01F2E0893A9F07D5
:103D9000B9F70E94241A8091E80083FF1EC1809128
:103DA000A1029091A2029A3008F017C1E92FF0E029
:103DB000E455FF4D0C943520803899F0823809F095
:103DC0000CC18091A5028F70873008F006C18093E6
:103DD000E9008091EB0085FB882780F91092E900CB
:103DE00006C080919D0290919E02911182609091F7
:103DF000E800977F9093E8008093F1001092F10023
:103E00008091E8008E77E5C0882309F4D3C0823022
:103E100009F0E3C08091A3028111D6C08091A50270
:103E20008F702FEF280F263008F0D7C08093E9005D
:103E30002091EB0020FFC8C0933031F48091EB005B
:103E400080628093EB00C0C09091EB0090619093F2
:103E5000EB0021E030E001C0220F8A95EAF72093C1
:103E6000EA001092EA008091EB008860EACF8111AD
:103E7000B4C01091A3021F778091E3008078812B5A
:103E80008093E3008091E800877F8093E8000E94A0
:103E9000D01C8091E80080FFFCCF8091E300806817
:103EA0008093E30082E0111183E08093A00295C02B
:103EB0008058823008F091C08091A3029091A402B2
:103EC0008C3D23E09207A1F583E08A838AE289830F
:103ED0004FB7F894DE01139620E03EE051E2E32F65
:103EE000F0E050935700E49120FF03C0E295EF709B
:103EF0003F5FEF708E2F90E0EA30C0F0C7968D9351
:103F00009D932F5F243159F74FBF8091E800877F41
:103F10008093E8006AE270E0CE0101960E94DF1B08
:103F20008091E8008B778093E80057C0C096E7CF78
:103F30006091A5027091A602AE014F5F5F4F0E9493
:103F4000201BBC01892B09F448C09091E800977FA1
:103F50009093E80089819A810E943D1CE1CF8038CE
:103F6000E1F58091E800877F8093E80080919C02D2
:103F70008093F10045CF811130C09091A30292301F
:103F800060F58091E800877F8093E80090939C0221
:103F90000E94D01C80919C02882311F084E005C00F
:103FA0008091E30087FDFACF81E08093A0020E9418
:103FB000101A13C08091A302813079F481E093300C
:103FC00009F080E080939E021092E9008091E80061
:103FD000877F8093E8000E94D01C8091E80083FFD7
:103FE0000AC08091E800877F8093E8008091EB0011
:103FF00080628093EB00AA960FB6F894DEBF0FBEE6
:10400000CDBFDF91CF911F9108950895CF938091F7
:10401000A0028823A1F0C091E900CF709091EC003C
:10402000892F817090FD80E8C82B1092E900809163
:10403000E80083FD0E94B31ECF70C093E900CF91CA
:10404000089597FB072E16F4009407D077FD09D04A
:104050000E943B2007FC05D03EF4909581959F4F30
:104060000895709561957F4F0895EE0FFF1F05909D
:10407000F491E02D0994AA1BBB1B51E107C0AA1FB4
:10408000BB1FA617B70710F0A61BB70B881F991FF9
:104090005A95A9F780959095BC01CD010895FB0133
:1040A000DC0104C08D910190801921F441505040F1
:1040B000C8F7881B990B0895F999FECF92BD81BD71
:1040C000F89A992780B50895A8E1B0E042E050E061
:1040D0000C949020262FF999FECF92BD81BDF89ABD
:1040E000019700B4021639F01FBA20BD0FB6F8943C
:1040F000FA9AF99A0FBE08950396272F0E946B2013
:104100000E946A20252F0E946B20242F0C946B2084
:104110000196272F0E946B200C946A20DC01CB01B2
:10412000FC01F999FECF06C0F2BDE1BDF89A3196C7
:1041300000B40D9241505040B8F70895F894FFCF65
:104140002B052B055F055F05FE05180691059105FA
:104150002306B306C306C306DC1E041FED1F041F9F
:0C416000ED1F371F581FED1FAF1FBB1FC6
:10416C007D001202280850011E0A140153197819F7
:10417C005719E719E319561901E200E900EA00B5ED
:10418C0000B600B700CD008301CC008A01920194E7
:10419C00012102230224022502260227022A02B34D
:1041AC0000B4006F007000818283E200E900EA0035
:1041BC00B500B600B700CD008301CC008A01920196
:1041CC0094012102230224022502260227022A023C
:1041DC00B300B4006F007000818283353637F56709
:0C41EC00909192939495963031323300FC
:00000001FF
